:10000000F06A0020B151000045510000DD510000B0
:1000100000000000000000000000000000000000E0
:10002000000000000000000000000000E54F00009C
:100030000000000000000000854F000000000000EC
:1000400071510000896E0000715100007151000073
:100050007151000071510000715100007151000098
:100060007D6E00007151000071510000715100005F
:100070007151000071510000715100007151000078
:100080007151000071510000715100007151000068
:100090007151000071510000715100007151000058
:0800A0007151000071510000D4
:1000A800002243088B4274D303098B425FD3030AAF
:1000B8008B4244D3030B8B4228D3030C8B420DD3C2
:1000C800FF22090212BA030C8B4202D31212090250
:1000D80065D0030B8B4219D300E0090AC30B8B428E
:1000E80001D3CB03C01A5241830B8B4201D38B033C
:1000F800C01A5241430B8B4201D34B03C01A5241E1
:10010800030B8B4201D30B03C01A5241C30A8B4223
:1001180001D3CB02C01A5241830A8B4201D38B020E
:10012800C01A5241430A8B4201D34B02C01A5241B2
:10013800030A8B4201D30B02C01A5241CDD2C30924
:100148008B4201D3CB01C01A524183098B4201D3A0
:100158008B01C01A524143098B4201D34B01C01A8B
:10016800524103098B4201D30B01C01A5241C30803
:100178008B4201D3CB00C01A524183088B4201D372
:100188008B00C01A524143088B4201D34B00C01A5E
:100198005241411A00D20146524110467047FFE7CA
:1001A80001B5002000F0F0F802BDC0460029F7D0E4
:1001B80076E7704703460B437FD4002243088B42FF
:1001C80074D303098B425FD3030A8B4244D3030BD6
:1001D8008B4228D3030C8B420DD3FF22090212BA9B
:1001E800030C8B4202D31212090265D0030B8B4217
:1001F80019D300E0090AC30B8B4201D3CB03C01A01
:100208005241830B8B4201D38B03C01A5241430BDB
:100218008B4201D34B03C01A5241030B8B4201D3CB
:100228000B03C01A5241C30A8B4201D3CB02C01A36
:100238005241830A8B4201D38B02C01A5241430AAE
:100248008B4201D34B02C01A5241030A8B4201D39D
:100258000B02C01A5241CDD2C3098B4201D3CB0144
:10026800C01A524183098B4201D38B01C01A5241F3
:1002780043098B4201D34B01C01A524103098B42F7
:1002880001D30B01C01A5241C3088B4201D3CB00E2
:10029800C01A524183088B4201D38B00C01A5241C5
:1002A80043088B4201D34B00C01A5241411A00D275
:1002B80001465241104670475DE0CA0F00D04942DE
:1002C800031000D34042534000229C4603098B424E
:1002D8002DD3030A8B4212D3FC22890112BA030AD6
:1002E8008B420CD3890192118B4208D38901921158
:1002F8008B4204D389013AD0921100E08909C309DD
:100308008B4201D3CB01C01A524183098B4201D3DE
:100318008B01C01A524143098B4201D34B01C01AC9
:10032800524103098B4201D30B01C01A5241C30841
:100338008B4201D3CB00C01A524183088B4201D3B0
:100348008B00C01A5241D9D243088B4201D34B00CB
:10035800C01A5241411A00D20146634652415B100D
:10036800104601D34042002B00D5494270476346EE
:100378005B1000D3404201B5002000F005F802BD33
:100388000029F8D016E770477047C0461C210123A2
:100398001B04984201D3000C10391B0A984201D360
:1003A800000A08391B09984201D30009043902A23E
:1003B800105C40187047C0460403020201010101A5
:1003C8000000000000000000002B11D1002A0FD10E
:1003D800002900D1002802D00021C943080007B431
:1003E800024802A14018029003BDC0469DFFFFFFCE
:1003F80003B4684601B5029800F006F8019B9E46D2
:1004080002B00CBC7047C046F0B557464E4645464C
:10041800DE46E0B504000D009246994683B08B4253
:1004280030D82DD04946504600F0BAF829000600C9
:10043800200000F0B5F8331A9846203B9B4633D489
:100448005A465346934042461F00534693401E0067
:10045800AF423AD8AF4200D178E05B46A41BBD4119
:10046800002B00DA75E0002200230092019301239B
:100478005A4693400193012342469340009328E053
:100488008242CFD900220023009201930C9B002BBB
:1004980001D01C605D600098019903B0F0BCBB46B8
:1004A800B246A946A046F0BD424620239B1A5246B2
:1004B800DA40414613004A468A40170042461F4325
:1004C800534693401E00AF42C4D900220023009235
:1004D80001934346002BD9D0FB0772081A434646BE
:1004E8007B080EE0AB4201D1A2420CD8A41A9D4170
:1004F800012024196D410021013E24184D41002E90
:1005080006D0AB42EED9013E24196D41002EF8D138
:10051800009801995B4600196941002B24DB2B00E8
:100528005A464446D3402A00E2401C005B46150068
:10053800002B2ADB26009E40330026004746BE409B
:100548003200801A9941009001919FE7A342BCD8DC
:1005580083E74246202300219B1A00220091019242
:100568000122DA40019286E7424620239B1A2A009C
:1005780046469A402300F340444613432A00E2408B
:100588001C005B461500002BD4DA42462F002023BE
:10059800260097409B1ADE403B003343CDE7C04618
:1005A80010B5002903D1FFF7F1FE203002E0080062
:1005B800FFF7ECFE10BDC046F0B5CE46474680B505
:1005C80087B006F063FC01F013FC00F0F1FC00F0CA
:1005D800FBF800F0F1F801F08FFE01F021FD00F0CA
:1005E800F3F8A43002F050FB02F0DAFE012007F025
:1005F800A5FA00216B4A012007F0F8FA6A4B00249B
:1006080018600220984607F099FA00210220674AEC
:1006180007F0ECFA664B072699460025654F3860C7
:100628001F2E19D84B46B6009B599F4643461B6858
:100638001A68002A00D1B2E0186001F075FC0120A8
:1006480007F0CAFA3B681A68002A05D01C6001F056
:1006580051FE022007F0C0FA01F0D4FB041E0ED0B0
:1006680002F0FEFE2000E3781830002B00D0403066
:1006780001F0E0FC01F0E6FB012007F0ADFA01F023
:100688008DFD041ED2D001F0A3FD0600012007F065
:10069800A3FA43461B681A68002A05D01D6001F0BA
:1006A80043FC012007F098FA3B681A68002AB7D083
:1006B8001D6001F01FFE022007F08EFAB0E720004F
:1006C80001F0B2FD00F0BCFCC6E701F085FB01F0CB
:1006D80041FDC1E701F046FCBEE7200001F0A2FDA4
:1006E800040000F071F82100A43002F0D3FDB3E754
:1006F800200001F095FD040000F066F82100A43008
:1007080002F0C2FDA8E7200001F088FD040000F017
:100718005BF82100A43002F0A7FD9DE7200002A9A4
:1007280001F084FD02A801F09DFE95E7200001F08C
:100738003FFC91E701F0F8FB8EE7200002A901F0E9
:1007480065FD02A802F07CFD86E702F083FD20002B
:1007580001AA02A901F074FD00F0C4FC6B460298DE
:10076800197900F041FC00F005FD75E76B462000A3
:100778009A1C02A901F02EFD6B462000DA1C01A983
:1007880001F034FD00F0AEFC6B460198D97800F01A
:1007980041FC6B4602A9987800F04AFD5CE7FF2609
:1007A80082E7C046400D0300200C002020A107006E
:1007B80068840000240C0020942210B500219200C7
:1007C80004F034FE10BDC046004870477003002096
:1007D800F8B5CE4647463E4E0400336880B5002B38
:1007E80058D0FFF7F1FF012581460023217B0A003D
:1007F8001A41154260D10133082BF8D10022354B3C
:10080800257DE07B1B78ED008046677B6DB20C2B65
:1008180043D00ED8092B0ED00B2B50D106231A43E8
:100828001543EDB2054304294FD00023FF2798460E
:100838000EE00D2B01D1022002431543EAB24546D2
:100848001543042900D0FF27002290460D2B2CD0F9
:1008580000233068C370183001F0E6FB3A00290025
:100868004346060001F0FEFC217B6268022921D084
:1008780004394B1E9941184B494219407931FF31CF
:100888003000511A01F0E6FC01F0F0FAC0BCB9469C
:10089800B046F8BD01F02CFDF8E704231A431543D0
:1008A800EDB20543042900D0FF274A460B4BD35A23
:1008B8009846CDE71821E3E71B01DAB29FE72A4300
:1008C8000500D2B215430429BDD100239846BFE7DD
:1008D800500C0020DC660020B0FEFFFF3A0200004A
:1008E800F8B501240522037905001C40013C944316
:1008F8000E000B349A0701D50634E4B25A0701D525
:100908000134E4B21A0701D50234E4B2DB0600D49C
:10091800F8BDFFF759FF88239B0029190700C01865
:1009280001F02CFF347B7068022C12D0043C631E4B
:100938009C41094B64421C407934FF348821074BA1
:10094800074A8900FB5CBA5A795C001B02F0C0F8C0
:10095800DEE71824F2E7C046B0FEFFFF21020000E0
:10096800220200000F2370B502780C001340073BE9
:10097800012B00D970BD012503791D42FAD0114B16
:100988001B78002BF6D0104B1B78002BF2D0920965
:100998001542EFD00D4E411D0622F01C04F002FD59
:1009A800320001210A4806F03DFB06F00FFB056006
:1009B80006F05AFB06F00EFB40080540207D054373
:1009C8002575D7E7DA660020D9660020440C002098
:1009D800340C0020012310B502790C00134201D118
:1009E800012010BD084902780978920913409942FC
:1009F80001D0207DF5E7411D0622044804F0A2FC41
:100A08000028EDD0207DECE7CF660020280C0020E0
:100A180010B50A4B1B78022B0DD094229200821835
:100A2800042B01D0843AFF3A0021002007F0DEF8B9
:100A380006F0B2FB10BD0200B932F5E7D16600201E
:100A480070B5002006F0A8FBFFF7BEFE892604005B
:100A5800B600815D2522012006F064FC164BE05C9F
:100A680006F0A2FC02F04AF88138050002F062F8AC
:100A7800A35D022B1CD00400B534FF34042B01D035
:100A8800313004002A000221002007F0AFF82200CC
:100A980005000021002007F0A9F80400280006F04E
:100AA800C3FB200006F078FB0022044B1A6070BDDF
:100AB8001D300400E6E7C04625020000300C002087
:100AC80070B5002006F068FBFFF77EFE8F26040055
:100AD800B600815D2522012006F024FC214BE05A56
:100AE80001F0E8FD06F060FC1F4BE01806F0CEFCB4
:100AF8001E4BE01806F09EFC022006F00BFB0021BE
:100B08000200002007F08CF8082006F003FB012102
:100B18000200002007F084F802F064F8813805002C
:100B280002F084F8A35D022B19D00400B534FF3419
:100B3800042B01D0313004002A000221002007F0E4
:100B480055F8220005000021002007F04FF80400A6
:100B5800280006F069FB200006F01EFB70BD1D3062
:100B68000400E9E73A020000360200003202000001
:100B7800F8B5DE46454657464E46E0B501F056F90B
:100B8800674D2860002800D17DE0183001F04AFA4E
:100B980004002868583001F045FA0500614B1B78BD
:100BA800002B3FD0FFF710FE5F4B06001B789946DD
:100BB800002B64D17823C35C98463000494608303E
:100BC80003F06CF94B46594F3861796128003B7640
:100BD80006F0E0FC22002900380006F059FA6423E8
:100BE800F05A01F06DFE01214140C9B2404606F0BD
:100BF80069FA4F4E3378002B1BD14E4B1B78002BD4
:100C080003D04D4F3B78002B20D1FFF7DDFD922319
:100C18009B00C4500433C550F0BCBB46B246A9463D
:100C2800A046F8BD200006F0B5FC414E3378002BF5
:100C3800E3D0414F3B78002BE7D0404B98461B78D8
:100C4800002B25D03B4B1B78002BDED03C4B187873
:100C580006F052FE220001213A4806F0E3F901228B
:100C6800394B1A703378002BCFD0384B1B78002BB8
:100C7800CBD0042006F09EF906F06CFCC5E777237C
:100C8800C35C984699E703F0E1FA314D314C85E7AA
:100C9800314B06229A46314B51469946D81C04F0EE
:100CA80081FB4A460121274806F0BCF906F08EF977
:100CB80001239946036006F0D7F906F08BF9284B13
:100CC80040089B464B4618405B464A4618704346C8
:100CD800062150461A7007F0ABF9002804D15B468C
:100CE8001B789846002B11D006F070F980464020FA
:100CF80006F010FA414606F0B9FD4022104B187074
:100D0800184B1A800B4B3F3A1A707BE70C4E307821
:100D180006F086FEFF2342463370064B1A7074E7CE
:100D2800500C0020D56600202E030020C0050020AE
:100D3800D3660020DA660020D9660020D466002039
:100D480031030020340C0020CD660020D26600203C
:100D5800540C0020780C0020280C0020440C0020A3
:100D6800CE660020C4660020F0B5DE4657464E46E3
:100D780045460400E0B583B0FFF726FD854A864D59
:100D880011695269A161E2619221844A2B789346E4
:100D9800890012784158A373A27406004878474224
:100DA8004741E774002A02D0421E9041C2B26274E1
:100DB80008229046E27BB044002A00D0D1E0A42269
:100DC8009146B1440A004846414601F0DBFF012242
:100DD8002B7853402B7092239B00F3589A46932309
:100DE8009B00F35800936E4B1F68002F01D001F051
:100DF8003DF8FFF7BDFE2B78002B00D190E077235C
:100E0800F55C06F0BDFA002800D190E0A368022D39
:100E180000D1A3E0942292009A18042D01D0CD337A
:100E28001A000021002006F0E1FE06F0B5F9E37B88
:100E38000022002B16D05946009B09785B780029C0
:100E480001D1032B0ED90099013B8C46DBB2CA5C59
:100E580063445978987809021143DA780004014309
:100E680012060A432100380002F0CEFA002F00D102
:100E780087E0FFF7A9FC002300900120217B0A00EE
:100E88001A41104200D081E00133082BF7D100232A
:100E98002269444DA07B15406A1E9541A27C400002
:100EA800920002431343ED001D43E37BEDB21D4363
:100EB800637B9B46042901D0FF239B463800FB78BF
:100EC8001830002B00D0403001F0AEF8009B5A4695
:100ED80029005B88070001F0D1F8217B62680229AC
:100EE80052D004394B1E99412F4B49421940793150
:100EF800FF313800511A01F0ADF9E27BA37B002ADB
:100F080038D152464146484601F0EAFF0F22274BA6
:100F18001A7003B0F0BCBB46B246A946A046F0BD65
:100F28007823F55C06F02CFA002800D06EE7A2685A
:100F380002210F3206F05AFE5B461A782900531E2A
:100F48009A41920001901B32002006F0EBF90198BB
:100F580006F06AF9A368022D00D05BE7B9331A00DE
:100F68005FE72200404602F023FF92239B00F158DE
:100F7800A37B24E71A005146300002F0F3FFA37B5D
:100F8800BFE701F0B5F9B8E71821B2E71B015BB27A
:100F98007EE7C046C00500202E030020D56600204D
:100FA800500C0020FF0000FFB0FEFFFFDC660020B1
:100FB80000220B4B10B500201A7006F0BFFD02206E
:100FC80006F0A8F80400012006F056F801002000F9
:100FD80006F04CFC034B187003F036F910BDC04600
:100FE800DC660020CC660020012302781800064940
:100FF8001040087051089208194004481340044AE8
:10100800017013707047C046300300202F03002082
:10101800DB6600200123027818000649104008709A
:1010280051089208194004481340044A017013708B
:101038007047C046D6660020D8660020D7660020D4
:1010480010B50A4C01001022200004F0ABF9102161
:10105800200006F0EDFF01235840054B054A1870A3
:1010680000231370044A137010BDC046340C0020CE
:10107800D9660020CE660020D466002070B50D0029
:101088000600FFF7A1FB083002F08EFE29003000B1
:1010980002F0A8F9094C31002000102206F0D8FF10
:1010A800200029000822193004F07CF9044B187834
:1010B80006F022FC0122034B1A7070BDC005002007
:1010C800CC660020D566002010B5044B187806F0D1
:1010D80081FC0022024B1A7010BDC046CC6600206D
:1010E800D566002070B5194E3378002B2AD100241C
:1010F800174B1C70174B1C7006F038FA164D2878E1
:1011080006F068FC154B1C7006F044F905F07AFFF0
:10111800134B187806F05EFC124B28781C7006F00A
:101128007FFCFF232B70104B00201C7006F06AFB1D
:10113800012006F067FB01220C4B34701A700C4B2F
:101148001C6070BD002006F027F8D0E7DC660020A0
:10115800D4660020CE66002031030020D36600202C
:10116800CC660020D5660020DA6600202E03002019
:10117800500C002070B5FFF7B5FF244806F07CF846
:10118800402006F047F905F021FF802504006D0096
:10119800280005F0BFFF210006F068FB01241C4B66
:1011A800252218701B4B01201D801B4B1C701B4BEC
:1011B80019784B1E99414B4203211940184B0131B4
:1011C800197006F0AFF801F033F906F0EDF815489C
:1011D80006F05CF9144806F02DF9022005F09AFF94
:1011E80000210200002006F01BFD082005F092FFF8
:1011F80001210200002006F013FD002006F014F87B
:10120800FFF7B6FC094B1C7070BDC046B115000055
:1012180031030020C4660020DA660020DB66002067
:10122800D16600202C85000028850000DC6600209F
:1012380070B505000C00FFF755FF254806F01CF8AF
:10124800244E06223570244D2100280004F0AAF807
:101258002900307806F050F9204B1C7806F070F918
:1012680001221F4B01201C701E4B1A701E4B24328A
:1012780019784B1E99414B42032119401B4B0131F0
:10128800197006F04FF801F0D3F806F08DF81848F9
:1012980006F0FCF8174806F0CDF806F067F80220CB
:1012A80005F038FF00210200002006F0B9FC0820F4
:1012B80005F030FF01210200002006F0B1FC0020FB
:1012C80005F0B2FFFFF754FC05220B4B1A7070BDF6
:1012D800B1150000CF660020280C0020D866002039
:1012E800D2660020D3660020D7660020D166002091
:1012F8002C85000028850000DC66002010B5FFF76B
:1013080063FA0C4A835A0133835202F087FF01F0D3
:10131800B1FC002805D1FFF7D3FB0C22064B1A704D
:1013280010BD064B06491878FFF782FF0522024BCD
:101338001A70F5E73A020000DC660020CF6600204C
:10134800280C0020F0B5C64600B50400FFF73CFAAB
:10135800060006F027F9037921009846050007786A
:10136800FFF700FB2000FFF733FAE37B002B04D1E3
:10137800FFF7C4FF80BCB846F0BD300002F0D4FED1
:10138800E37B002BF4D00F233B40072BF0D1210047
:101398002800FFF71FFB0028EAD04346DB06E7D505
:1013A80021002800FFF79CFAFFF74AFB0D22014BAA
:1013B8001A70DFE7DC66002070B5002006F02EFA10
:1013C800002005F0E9FEFFF7FFF943880400013328
:1013D800438002F06BFE0122274B1A7001F052FB8A
:1013E80000283AD1200002F09FFD002838D16088FB
:1013F80001F0EEF805F0D8FF204B00201A78531EB4
:101408009A417723E55C920029001B3205F08AFF98
:1014180001F0C6FA8138040001F0EAFA022D27D05B
:101428000600B536FF36042D01D031300600220003
:101438000221002006F0DAFB32000021050000201E
:1014480006F0D4FB0400280005F0EEFE200005F0AD
:10145800A3FE0E220A4B1A7009E0200002F064FD78
:1014680002F0FAFE074B08491878FFF7E1FE70BD55
:101478001D300600DBE7C0462E030020D56600209D
:10148800DC660020CF660020280C002070B582B0F2
:101498000600FFF799F90400FFF724FE012006F083
:1014A800A3F900232000638002F050FD01F086FFBD
:1014B8002000083002F066FC210020005031A430E2
:1014C80001F0FAFB354805F0D7FE05F04FFF200084
:1014D8006B3005F0DBFF20006E3005F0ABFF304BC2
:1014E80000201A78531E9A417723E55C9200290060
:1014F8001B3205F017FF6A205F2362226421205CFB
:10150800E35CA25A615A01906820205A009030008A
:1015180001F0DCF9022005F0FDFD002102000020A9
:1015280006F07EFB082005F0F5FD012102000020F1
:1015380006F076FB608801F04BF805F035FF01F006
:101548002FFA8138040001F053FA022D22D0060048
:10155800B536FF36042D02D0092628303618220069
:101568000221002006F042FB320000210500002085
:1015780006F03CFB0400280005F056FE200005F0AC
:101588000BFEFFF7F5FA02F065FE0E22054B1A7006
:1015980002B070BD05261830E0E7C046B11500005E
:1015A800D5660020DC660020F0B5D6464F46464694
:1015B800C0B58AB0050005F0D5FE02AC207305F071
:1015C800D3FE002160730020029506F04BFB227BBE
:1015D800022A3AD003003C3B042A01D00923C31A4B
:1015E80001210020636006F03DFB227B617B022A1B
:1015F80029D00923042A05D14B42594105234942E0
:101608000B401933C31AA3600023E37323742375B3
:10161800029B1B071BD4C54E3378002B08D0C44B44
:10162800029A1B881A424AD105F0ECFC0023337059
:10163800280002F013FEBF4D2B780F2B2BD8BE4A83
:101648009B00D3589F460523DCE70523C7E705F031
:1016580037FFBA4BE0731B78002BDCD005F042FD56
:1016680005F048FD2074D6E7029B1B0700D5D8E19A
:10167800002006F0D3F8002005F08EFDB04B25229F
:101688000120197805F04EFE00F0D2FE05F08CFE20
:10169800002005F0C9FD05232B70AA4B1868002807
:1016A8000AD005F0B3FD2B780F2B05D10AB0E0BCAA
:1016B800BA46B146A846F0BDFFF75AFAF6E705F074
:1016C800D3FC05F087FC8007C00F2075ACE7029BB0
:1016D8001B0700D5F3E19B4C2368002B03D01B6844
:1016E800002B00D07AE2002006F098F8002005F0E0
:1016F80053FD00F0A7FE05F057FE002005F094FD0D
:10170800012320682B70CAE7029B1B0700D47CE1E9
:101718002000FFF75DF805F045FF8B4B1B78002B89
:1017280012D0E37B002B0FD00F2603781E40032E28
:101738000AD1A068FFF76CF9824B2E701868AEE7E3
:10174800029B1B0700D536E2002006F067F8002050
:1017580005F022FD00F076FE05F026FE002005F0DB
:1017680063FD01232B70774B186898E7029B1B07D2
:1017780000D517E2002006F051F8002005F00CFD16
:101788006F4B25221978012005F0CCFD00F050FEA2
:10179800E2E70826029B334200D066E1694C2368E1
:1017A800002B30D01B68002B2DD0FFF749F920689B
:1017B8002E7074E705F0F6FE0826029B07003342F8
:1017C80000D0C1E15F4C2068002802D00368002BDC
:1017D800EBD105232B7062E7029B1A070BD5227DFC
:1017E8009B0604D5594B1B78002B00D01A0020000B
:1017F8002275FEF7EDFF534C2368002B03D01B68BE
:10180800002B00D0E0E1524B1E7805F099FE012232
:10181800504B00201E70504B1A7005F0FFFF00203F
:1018280005F0BAFC00F00EFE05F0BEFD002005F044
:10183800FBFC052320682B7031E7029B1B0700D4B3
:1018480016E705F0AFFE0F26C37821009846037906
:101858000700994603781E40FFF784F8072E00D04A
:1018680006E721003800FFF7B5F8002800D1FFE6A9
:101878002000FEF7ADFFE37B002B00D1F8E64346DE
:101888009B09013B012B00D86BE24B469B0600D518
:1018980038E24B46DB0600D4EAE621003800FFF7C1
:1018A8001FF8FFF7CDF809232B70264B1868F6E6CA
:1018B800FEF78AFF029B1B0700D4CFE08F239B0013
:1018C800C05C6268022800D186E10438431E984152
:1018D800224B404218407930FF30101A01F070F95D
:1018E8002000FFF72FFD174B186878E0029B1B07B5
:1018F80000D4BDE62000FEF76BFF05F053FEE37B46
:101908000600002B00D1B3E60F2302781340052B05
:1019180000D1B5E1032B00D0AAE6A068FFF778F85C
:101928000B232B70074B1868B9E6C046CD6600201C
:10193800C4660020DC660020E8840000D56600202C
:10194800D1660020300C002030030020CE66002035
:10195800D8660020D2660020D3660020B0FEFFFFC4
:10196800029B1B0700D483E605F01CFE03792100C7
:10197800984606000778FEF7F5FF2000FEF728FFD7
:10198800E37B002B00D173E60F233B40072B00D0ED
:101998006EE621003000FFF71DF8002800D167E649
:1019A8004346DB0600D463E655E0029B1B077FD560
:1019B800207B6268022800D10CE10438431E98415C
:1019C800C54B404218407930FF30101A01F03CF8FE
:1019D80001F052F82000FFF7C7F9C04B186800283B
:1019E80000D05EE65FE6029B1B0710D52000FFF7DC
:1019F800BBF9BA4B1868F2E7029B1B070CD520000D
:101A0800FFF7A0FCB54B1868E9E7B44C6BE6FFF7A5
:101A1800D3FCB24B1868E2E7FFF770FCAF4B1868CD
:101A2800DDE705F0BFFD21000600FEF79BFF200063
:101A3800FEF7CEFEE37B002B00D119E60F233278A8
:101A48001340082B00D1F4E0072B00D010E63379BF
:101A5800DB0600D40CE62100300020E701F0BAF8DC
:101A6800FFF74CFC9D4B1868B9E72000FEF7B0FE65
:101A780005F098FD0F2302781340052B00D1BCE038
:101A8800032B03D1E37B002B00D0EAE0944B1C78B6
:101A980005F056FD0122934B00201C70924B1A70E2
:101AA80005F0BCFE002005F077FB00F0CBFCEDE56F
:101AB80000F0DAFFFFF780FC884B18688FE705F025
:101AC80071FD21000600FEF74DFF2000FEF780FEA5
:101AD80005F068FD0F2302781340844A1278002A23
:101AE80000D181E0E27B002A00D12DE6002B00D155
:101AF800AFE0062B00D1ACE07D4A1278002A00D175
:101B080022E6072B00D01FE6002005F087FE002004
:101B180005F042FB00F096FC05F046FC002005F0BD
:101B280083FB0123210030002B70FEF7D9FE00F063
:101B3800E5FF813800F0FCFF01210200002006F0DB
:101B480055F8664B18604AE70378073621001E40AF
:101B58009846FEF707FF072E00D19CE023689B06F6
:101B68006FD54246634B1A70634B227D1B78134333
:101B780020002375FEF72CFEE37B002B86D0022E77
:101B880084D005F0F3FC5D4B187805F023FF0022A4
:101B9800554BA0681A70FEF73BFF06232B704F4B7E
:101BA80018687CE505F0FEFC2100FEF7DBFE20004E
:101BB800FEF70EFEDEE505F0F5FC2100FEF7D2FE8D
:101BC8002000FEF705FEBFE5FEF73AFF0823206870
:101BD8002B7064E51820F8E618207EE6FEF730FF43
:101BE800042320682B705AE5414A1278002A00D154
:101BF800AAE5E27B002A84D1A6E5E37B002B00D18D
:101C080044E73F4B1B78002B00D03FE7002005F04E
:101C1800C3FA05F0C7FC0600FEF7D6FD354B3100C8
:101C28001A783378503013409B060122DB0F00F0FE
:101C380051FDA068FFF72AFC0E232B70274B18686C
:101C48002DE5237D002B00D125E54146294A117059
:101C58008EE7A068FEF7DCFE02232B701F4B186886
:101C68001DE505F06DFC01231E4AA06813701E4A8D
:101C78001370FEF7CDFE07232B70184B18680EE57E
:101C8800FEF7A2FD89239B00C25C3100012350307E
:101C980000F020FD41E621003800FEF79BFE0028F9
:101CA80000D1F8E42000FEF793FDE37B002B00D180
:101CB800F1E4002005F0B2FD002005F06DFA00F017
:101CC800C1FB05F071FB002005F0AEFA05232100E9
:101CD80038002B7029E7C046B0FEFFFF300C00200B
:101CE800D8660020D2660020D3660020300300208A
:101CF8002F030020D0660020CE660020310300208C
:101D0800D6660020FEF760FD63688046994605F0B8
:101D180049FC037907000524DA0700D506349A0739
:101D280001D50634E4B25A0701D50134E4B21A07E2
:101D380001D50234E4B2DA0601D50334E4B29B06D5
:101D480017D442461F4BD45A002C00D190E4FEF71A
:101D5800B7FE0C2340462B7002F0E0F91A4B1868C6
:101D68003DE6A068FEF754FE0A232B70164B186850
:101D780095E4FEF729FD89239B009A46C25C114B26
:101D880006003919C01800F01BFD5346F35C022BFE
:101D980016D02820042B01D15130FF304C468A231D
:101DA800201A0A4C074A345B09499B00F35CB25A73
:101DB800715C0194074C345D009400F0D7FEC0E7D5
:101DC8001820EBE726020000300C00202A02000051
:101DD800310200002902000010B500220321002072
:101DE80005F01EFF0321002005F03CFF10BDC04692
:101DF8000023024A1380024A13807047C6660020F7
:101E0800C8660020064B074A1B8812889A4204D0ED
:101E180098205843044BC01870470020FCE7C04680
:101E2800C6660020C8660020E80500209820034BFD
:101E38001B885843024BC0187047C046C86600202C
:101E4800E8050020074A084913880988994204D000
:101E5800072B03D001339BB21380704700231380F4
:101E6800FBE7C046C6660020C8660020044A1388FF
:101E7800072B03D001339BB2138070470023FBE785
:101E8800C8660020F0B583780600447883B0012B3B
:101E980047D9037824021C4324B20334A4B2351969
:101EA80001A805F019FB280001A9032206F0D0F8C3
:101EB8003321A01C335C01341A091B011A43D2B226
:101EC800931092008A430B4013435522DBB25F10F4
:101ED8005B00174093433B433354335D18091B01A0
:101EE8001843C0B28310800088430B400343DBB221
:101EF80058105B0010409343034333552B7818095F
:101F08001B011843C0B28310800088430B40034371
:101F1800DBB259105B00114093430B432B7003B0A5
:101F2800F0BD24B2B9E7C04670B50B4C2378DDB2DA
:101F3800002B00D070BD01332370084B08481A6885
:101F4800120A02711A68511C1960C270062100F049
:101F580027FA2570EEE7C046DD660020980C0020C1
:101F68000C00002070B50E4C2378DEB2002B00D098
:101F780070BD013323700B4B0B4D1A68A81D120A54
:101F88002A711A68511C1960EA700849052203F081
:101F980009FA0B21280000F003FA2670E8E7C0468A
:101FA800DD660020980C002020000020308500000D
:101FB80070B5184D2B78002B00D070BD01332B70F5
:101FC800154B164E1A68120A32711A68511CF270B3
:101FD800C27919608179037A1202407A11431B048D
:101FE8000B430006184300F005FA030C3372030E86
:101FF8000400F0800A213000737200F0D1F9002843
:1020080004D0002C02D0200000F002FA00232B702C
:10201800D3E7C046DD660020980C002000000020B1
:102028007047C04615307047042902D0FF2303705B
:102038000130704710B503780400FF2B03D1837972
:10204800062B0CD00134A3786178012B13D923789F
:10205800090219432000063100F0A2F910BD15301D
:1020680000F04EFEA37D1433D9B21B0AA370237867
:102078006170FF2BE6D089B2ECE7C046F0B5204F7F
:102088001D003B780400160083B0002B01D003B07C
:10209800F0BD01333B7009338371073B8370033311
:1020A8004371184B1A68120A02711A68501C18609A
:1020B800E270FF2E20D0A37D153323701B0AE17137
:1020C800637005F099F9207205F09CF9A5722D0A44
:1020D8006072E57201A805F0C3F92000042201A985
:1020E800103005F0B5FFFF2E00D026752000FFF751
:1020F800C9FE00233B70CAE7637D1433DDE7C046A1
:10210800DD660020980C002070B50C000600152232
:102118000100200003F046F932780123FF2A02D19A
:102128000023013601340821607DE2791B180A4337
:102138001D001900143517331B31E2717118032281
:102148002DB2E01803F02EF92570ADB22D0A657096
:1021580070BDC04670B50E4C2378DDB2002B00D0A0
:1021680070BD013323700B4B0B4A1968D080090AE4
:10217800117119684E1C1E60030C000ED17050724C
:102188000A211000137200F00BF92570E8E7C04629
:10219800DD660020980C00201400002010B500F027
:1021A800DBF8011E11D0006883784278012B0AD928
:1021B8000478130223434A6806339B1A5A42534150
:1021C8005B42184010BD93B2F5E70020FAE7C0461D
:1021D8004079704770B50400150008000622A11D5B
:1021E80005F036FF237B2B7070BDC04630B5837871
:1021F8004478012B07D9057823022B43073B0D3080
:102208001370086030BDA3B2F8E7C0460B0010B5E4
:10221800811D1022180003F0C5F810BD0630704764
:102228000630704706307047063070478379CB70A8
:10223800C3790B70037A4B70437A8B707047C04632
:1022480030B585784378841D012D00D90378137043
:102258000C6030BD0B0A017343730B0C090E8373BA
:10226800C1737047F0B5204F1D003B78040016007D
:1022780083B0002B01D003B0F0BD01333B700933AC
:102288008371073B8370013B4371184B1A68120A2C
:1022980002711A68501C1860E270FF2E20D0A37DCE
:1022A800153323701B0AE171637005F0A5F8A57258
:1022B8002D0A2072E57205F0A5F8607201A805F0F4
:1022C800CFF82000042201A9103005F0C1FEFF2E2E
:1022D80000D026752000FFF7D5FD00233B70CAE724
:1022E800637D1433DDE7C046DD660020980C0020CE
:1022F8007047C0467047C04670B50F4804F00CFEE2
:1023080080220E4CD20020000D4905F0ADFE2100C0
:102318000C4805F061FFA0220B4DD20128000B49A3
:1023280005F0A2FE29000A4805F056FF2A00210000
:10233800084805F0F9FC70BDDE6600202411002075
:10234800240D0020341100204C6100204C11002085
:10235800401100202C00002010B50D4B0D4C0E48EC
:10236800236080232100636005F088FF431E9841A5
:102378004042044005F0B2FD002801D0200010BD05
:10238800064805F077FE0028F8D105F099FDF5E735
:102398009C0C00201C0D002034110020241100206A
:1023A80070B5114D82B000902800019104F0B8FD7D
:1023B800041E02D1200002B070BD684605F016FF69
:1023C80006000A4805F064FE864208D901F040FF7D
:1023D8000024280004F0B2FD05F04CFDEAE7694648
:1023E800034805F01DFFF4E7DE6600204C6100207D
:1023F80040110020E1220300D202904204D0034A97
:102408000020934200D118007047C04640420F0098
:10241800E12310B5DB02984206D0044B984202D162
:10242800112005F0EBFC10BD0F20FAE740420F0029
:102438000022024B1A70024B18787047DF660020A2
:102448003400002070B5054D054C2878E17801303E
:10245800FDF796FF605C297070BDC046DF660020FE
:102468003400002010B501000422024802F09AFF4F
:1024780010BDC04634000020F8B557464E464546C4
:10248800DE461C00E0B58146E0789B7800021843E0
:10249800637827781B023B435BBA40BA584083B243
:1024A8001E009C46032388469A460124072156406D
:1024B80000250022300A030013418F1A2340BB4035
:1024C80001321D43EDB2082AF5D12B020022F5B2E4
:1024D80000261FB22B001341881A23408340013283
:1024E8001E43F6B2082AF5D13B0033439BB21A01CA
:1024F800D31863449EB201235B429B46DA44534699
:10250800002BD5D16746774025213800FDF74EFED0
:102518004A46C8B2C308D25C072303409C40144211
:1025280005D142462523D05C78430014105CF0BCEA
:10253800BB46B246A946A046F8BDC0460E4B0F4A58
:10254800F0B50400186094460020002307260125F2
:10255800223431002F0019408F40DA08A25C17425C
:1025680003D06146421C0B54D0B20133DBB2252B99
:10257800EFD16246D054F0BD5C6100206461002058
:102588000022104BF0B51A700F4B104A0400186067
:1025980094460020002307260125223431002F000D
:1025A80019408F40DA08A25C174203D06146421CEA
:1025B8000B54D0B20133DBB2252BEFD16246D05495
:1025C800F0BDC046E06600205C6100206461002028
:1025D800134B70B51B6802001C00997B223400293C
:1025E80005D020000F491E33FFF746FF70BD0E4D82
:1025F8001B7C28782521C018FDF7C2FEC8B2C30885
:102608000722E15C01230240934028700B42EDD180
:102618002523044CE15CFDF7C9FDC9B2605CE5E720
:102628005C61002064610020E06600200E4B0F4AC8
:10263800F0B5040018609446002000230726012501
:10264800063431002F0019408F40DA08A25C174287
:1026580003D06146421C0B54D0B20133DBB2252BA8
:10266800EFD16246D054F0BD606100208C6100203B
:102678000E4B0F4AF0B50400186094460020002362
:1026880007260125063431002F0019408F40DA084B
:10269800A25C174203D06146421C0B54D0B20133EE
:1026A800DBB2252BEFD16246D054F0BD606100202B
:1026B8008C610020054B0200186810B5030004491E
:1026C8000C330630FFF7D8FE10BDC046606100200D
:1026D8008C610020F8B50D000400160003310622B5
:1026E80007301F0002F05EFE29002A7820005206FB
:1026F800D20F62730931062202F054FE290020002D
:102708002B780422DB09A371A7730F311E3005F063
:102718009FFC29002000032213311B3002F042FEE7
:1027280029002000AB7D1F31E3732B7EEA7D1B025D
:1027380013436382AB7E6A7E1B021343A3822B7F03
:10274800EA7E1B021343E382AB7F6A7F1B021343BB
:1027580023830522223002F025FE24221F23A95CB0
:1027680020000B402374AB5C5B09A3762723E65457
:102778000133E654FFF704FFF8BDC0463F230A784B
:1027880010B5134043710B785B06DB0F03700B78B1
:10279800DB0943708B784C781B022343DB04DB0C8A
:1027A80043808B785B09012B08D0023B5A1E93416A
:1027B80002225B4293430433037110BD0223FBE7FB
:1027C80070B54B7816000A781B02134301220500E6
:1027D8000C00DB04DB0C03804B785B09134083702F
:1027E8004B789B091A40C270CB788A781B02134336
:1027F800838004220431063002F0D4FD1F23280010
:102808002100227A09311340AB72237A04225B0932
:10281800EB720C3005F01CFC2800210003220D315E
:10282800103002F0BFFD637C227C1B021343AE759F
:102838002800AB82FFF7FAFE70BDC04610B5040051
:10284800054B0522C118163BC01802F0ABFD034B1F
:10285800E018FFF70DFF10BD42020000260200003D
:10286800A02310B5C25C043BC15A2A3BC1522C3389
:10287800C15A2A3BC1520233C2545030FFF75EFEA0
:1028880010BDC0460B0070B50400CA7BC273498AEC
:1028980092B24182988AA082DD8AE5821B8B2383CB
:1028A80000F050F870BDC0462723CA5C002A00D04B
:1028B800C2542823CA5C002A00D0C2547047C046BC
:1028C800D0231B018342804140427047F0B5070086
:1028D80005A8068806A80078154C84460F252760A9
:1028E800A76267463D40134F6D000020ED5BE06135
:1028F8006584D025A06110482D01A060A94215D992
:102908004D016D1AA80040180C49C0008C4660445F
:10291800094960604B434A432361094BE2605E43C7
:102928002022002366626361A354F0BD4843EFE7A9
:10293800B46100203C850000E20400000038CDFFAF
:102948001027000070B5124C06006068E0616069ED
:10295800A061D0200001864217D97501AD1BA800DF
:102968000C4D8019AC46C000604460600A480904F8
:1029780042432261094A090C53432022636200231F
:1029880041436361E160A35470BD03487043ECE7C1
:10299800B46100200038CDFFE204000010270000D9
:1029A800104B10B5D9689A698C46501CDA69596978
:1029B80050439A681C686244801820228C469A5CAE
:1029C800596862444A435B8C801832339BB2203C7E
:1029D80024185843044B05499C466044FDF760FBA6
:1029E800201A10BDB46100203F420F0040420F0082
:1029F800124A10B5D4689369A446D16901334B4390
:102A0800916861445B182021505C51698C4651687B
:102A1800604448431B1810691168844661440C00DF
:102A2800508C2034323080B2E4185843044B0549A6
:102A38009C466044FDF734FB201810BDB4610020AB
:102A48003F420F0040420F0000220121054B5A610E
:102A58009A601A61DA60DA619A61203218609954D2
:102A68007047C046B4610020024A5369013353617C
:102A78007047C046B4610020014B1A689A627047DB
:102A8800B46100202022114B9A5C5969002A17D0A2
:102A980098681A688446D86862448446986A62448A
:102AA800121A481C5968484399691218481CD96970
:102AB8005B6A4843121800209A424041C0B27047EE
:102AC8000520884280414042F9E7C046B4610020B1
:102AD80010B5084C20600320014007484900095AF6
:102AE800A2802181591E8B4159420E230B401E336F
:102AF800A37110BDE06100203885000010B5094BB6
:102B080009499A8898791C6850431B89203C3233BC
:102B18009BB224185843054B9C466044FDF7C0FA05
:102B2800201A10BDE061002040420F003F420F0014
:102B38009638704770B50A4D0A49AB88AC790133AD
:102B48005C43094B28899C46323080B2604360441C
:102B5800FDF7A6FA2B6820331B19C01870BDC046B4
:102B6800E061002040420F003F420F0070B504AC06
:102B7800257805AC26880F4C20600F2001400E48B0
:102B88004900095AA280A181591E8B4187215B42C5
:102B980049000B401E33E3806B1E9D4196236D4216
:102BA8009B031D40054BA560734323610023A3824B
:102BB80070BDC046EC6100203C850000E2040000C6
:102BC8000022034B5A609A60013218609A8270475B
:102BD800EC610020024A537D013353757047C046AB
:102BE800EC61002010B50E4B9A88D888597D504367
:102BF8009A681C6894461A7D6044521819699B8922
:102C08004A43323380189BB2203C24185843054B62
:102C180005499C466044FDF743FA201A10BDC0469A
:102C2800EC6100203F420F0040420F0070B50E4C8F
:102C38000E49657D237D22695B195343A268E688A6
:102C48009446A088704360441D18094BA0899C468F
:102C5800323080B268436044FDF722FA236820339B
:102C68009B195B19C01870BDEC61002040420F0031
:102C78003F420F000520034B5B7D98428041404254
:102C88007047C046EC61002010B5040010220021F6
:102C9800074802F0CBFB200010220021173002F079
:102CA800C5FB2100034804F053F9BC23E05210BDD2
:102CB800A46200201532000070B5BE230025040070
:102CC80005718571C55429300E0006220731FF3081
:102CD80002F068FB20009723727B5B007530E2549A
:102CE80031000622FF3002F05DFBBD23B2795B00A4
:102CF800E254BA3BE554013BE5540333E55470BD57
:102D08000322F0B5C646160000B5037804001E403D
:102D18001A422CD1032282564778C378002A29DA2E
:102D280040253F221D401A406B425D4190463623A4
:102D3800011D6D42BA1C0A309D4302F019FB43463F
:102D48000621237206235235E5716672DB19043BAE
:102D58001BB2E3709BB21B0A237104230220637128
:102D680000232278C919024322706170A37180BCC4
:102D7800B846F0BDC11CFA1C073002F0F9FA04236A
:102D88000421E3E770B5060014001D0004F098FB69
:102D9800346075716378002B05D0002803D0237840
:102DA800DB439B0700D070BDE378052B06D00B2BC7
:102DB800F9D1002DF7D1FEF787F9F4E7310030009B
:102DC800B3312730FEF75AF9EDE7C046E823F0B5EE
:102DD800C646040098463E4D2700804429004022FC
:102DE80000B5404602F0AEFA3537FF372900060035
:102DF8004022380002F0A6FA0500002E1BD1002858
:102E08004CD0344D20223900280005F021F921004A
:102E1800280055312022FF31203005F019F9C02350
:102E2800E6540122013BE254033BE05A04F0AEF8B9
:102E380080BCB846F0BD002810D1264E202241465D
:102E4800300005F005F92100300009312022FF315A
:102E5800203005F0FDF8C023E554E2E71E4D40227E
:102E68002900404602F06EFA002821D1194D390098
:102E78002022280005F0ECF82100553128002022F6
:102E8800FF31203005F0E4F80123C022A354013AB1
:102E9800A354BB33E05A04F079F8C9E72000202294
:102EA8000E49C33005F0D4F8BE230122E254BFE72F
:102EB80040222900380002F045FA0028B8D1054D13
:102EC80041462022280005F0C3F821000931D5E742
:102ED800B48500006462002024620020F4850000AC
:102EE800F0B5CE46474680B585B0040015001E00F3
:102EF800884604F0E5FA98225200914625606671EA
:102F080007006B78A144002E02D04C3A9146A144A8
:102F1800002B08D003232A781340022B35D0032B2B
:102F28000CD0012B04D005B0C0BCB946B046F0BDEA
:102F3800002F7ED14B234A46D754F4E7002FF2D016
:102F4800EB78042B00D1AEE0062B00D1A8E0032BD0
:102F5800E9D12000291D0822813002F023FA20003F
:102F6800216802220C31893002F01CFA2000216805
:102F780008220E318B3002F015FA20002168042255
:102F88001631AB3002F00EFACDE7AB796A791B0245
:102F980013434A461380002FCCD0062BCAD1EB79B5
:102FA800002E00D194E093700C2BC3D85D4A9B008F
:102FB800D3589F460123A3716E78053EF6B2B046FA
:102FC800402E01DD3F3398464B4629004246181DE6
:102FD800083102F0E7F94B464246DA706379002B74
:102FE800A8D13F2EA6D92000FFF7F0FEA2E72900BE
:102FF8000831002E00D182E020001022413002F07A
:10300800D1F997E7002E95D1290020001022083128
:10301800173002F0C7F98DE7290020000831002E8B
:103028007BD01022613002F0BDF983E701232371C0
:1030380080E73100404600F025FF002805D04B23EB
:103048004A46D35C002B00D074E74B461B88062BFE
:1030580000D06FE7250063793135FF35002B00D0AC
:103068004C3DAB780C2B00D064E72168E8784E78AB
:103078003218402A02DD4026361AF6B204303200F1
:103088000331281802F08EF9EB78F618F6B2EE70D4
:103098006379002B00D04DE7402E00D04AE7A2E725
:1030A80000F09AF93FE72000291D0822933002F02A
:1030B80079F92000216804220C31AF3002F072F94E
:1030C800C2230122E254063BE05A03F05FFF2AE7DD
:1030D80093700C2B00D92DE7134A9B00D3589F46B9
:1030E8002900200002221031373002F05BF9290054
:1030F800200008220831393002F054F91AE7513417
:103108001022200002F04EF968461022210004F037
:103118009FFF6846FDF794FF0CE71022713002F01C
:1031280041F907E74C8500008085000030B58379B8
:1031380004008BB0002B1BD0BE23C35C002B01D135
:103148000BB030BD02AD019525000300020001005F
:103158007535FF352933FF3371326131C33000953E
:1031680000F0C4FD1022E01D06A902F01BF9E7E7F4
:1031780002000100C31D61320248713100F0A0FD58
:10318800DEE7C046A462002070B503790400002B76
:1031980033D1250021009B3508228B31280002F00D
:1031A80001F92100200008229331A33002F0FAF837
:1031B800210020000422AB31B33002F0F3F82100E3
:1031C80020000422AF31B73002F0ECF820000221D1
:1031D8008930260004F02CFF2736002806D020006E
:1031E8000821813004F024FF002809D121002A0099
:1031F8003000173100F0D8FA70BDFFF797FFC8E725
:103208002A003000E11D00F0CFFAF5E7BF2370B5C2
:10321800C25C0400002A01D00022C254C123E25C2F
:10322800002A01D00022E254C225635D002B00D1A0
:1032380070BD2000FFF7A8FF00236355F8E7C046DC
:1032480010B501001022024804F002FF10BDC0466C
:10325800A462002010B510220021024802F0E6F80E
:1032680010BDC046A462002010B520220400054805
:1032780002F098F80122C123E254053BE05A03F01A
:1032880085FE10BD0462002010B51022173004F02E
:10329800DFFE10BD10B51022073004F0D9FE10BDB6
:1032A8000368F0B557469A46DE464E4645461B78B3
:1032B80051469A019446E0B50E694F699B46354BD5
:1032C8008DB0634409921A6B5B6BBB4251D84ED0E8
:1032D800FDF77AFA18235344040018000A93FEF7FE
:1032E800A1FE582353440690083418000B93002578
:1032F800FEF798FE08940424099AA4197D4194467F
:10330800244B0494059563440124002599460790AD
:10331800069B36196F410393079B320002931E4B9D
:103328001E48019353461B7800933B0000F064FC51
:1033380080463B00009032005946089800F0B6FDE0
:103348004346002B18D14B464A461B8F16635763DA
:1033580001331387049B9E42DAD1059B9F42D7D144
:103368000DB0F0BCBB46B246A946A046F0BDB2427D
:10337800AED916001F00ABE7002253460549DA70A4
:103388008C46099B0A9963440B981A87FEF7BCFE82
:10339800E6E7C046A80A0020B4620020BC6200200C
:1033A80010B50349034803F0D3FD034B188010BD43
:1033B800CC620020A9320000CA660020802210B525
:1033C8000021034802F032F80022024B1A7010BDA7
:1033D800A80A0020E16600200122014B1A707047FC
:1033E800E166002010B50C0001001022044804F02A
:1033F8002FFE08222100034801F0D4FF10BDC0466B
:10340800BC620020B4620020F0B5CB7B8C7B002826
:103418001DD001251E006E404670002B16D04E7C34
:103428000023002E02D00B7C6B40DBB286700B4E63
:10343800A501C370735904709B1A5F427B41826077
:1034480003718B69CC69036144617251F0BD002B33
:10345800FCD0024EA5017251F8E7C046A80A002028
:10346800F8B5CE46474680B545780400002D10D102
:10347800C3780678002B10D00379002B21D1234B79
:103488001B78002B05D0B301214EF618338F632B20
:1034980034D9C0BCB946B046F8BD8378002BF8D003
:1034A8001830FEF7BFFDB601427801003000184D14
:1034B80008300332401901F075FFA368AE19736034
:1034C800E7E7134FB601BB19984682685B689A42D2
:1034D800DFD11823994681444846FEF7A3FD4346A9
:1034E80031005A7A08310332C91901F05BFF200014
:1034F80049465830FEF708FEE570CAE7054B1860E4
:10350800054B188803F042FDC3E7C046E16600207A
:10351800A80A0020CC620020CA660020F0B5DE466A
:1035280057464E4645469A461300E0B55C4E0F3363
:1035380007001D093000012383B033748946904683
:1035480039000D2211300C9C009501F02BFF00234F
:103558003000F38304F0F2F820222378B25C534061
:1035680021222370B25C6378534022226370B25CDC
:10357800A37853402322A370B25CE3785340E370EE
:10358800002D34D04B464546012701934346591B2D
:10359800CBB2994654463000F77704F0CFF8019B38
:1035A8004C444B4419002B00102D00DD1023DBB2D6
:1035B80099460F2D22D8202293460023B344002D8C
:1035C8000DD04846AC46B9465D46CA5CEF5C7A40C9
:1035D800E2540133DAB29042F7D865464F46009A72
:1035E800BBB2103D0137FFB2EDB29A42CED803B05C
:1035F800F0BCBB46B246A946A046F0BD20220B78D7
:10360800B25C534021222370B25C4B785340222293
:103618006370B25C8B7853402322A370B25CCB7882
:1036280053402422E370B25C0B7953402522237166
:10363800B25C4B79534026226371B25C8B7953405C
:103648002722A371B25CCB7953402822E371B25C84
:103658000B7A534029222372B25C4B7A53402A22B8
:103668006372B25C8B7A53402B22A372B25CCB7A22
:1036780053402C22E372B25C0B7B53402D22237300
:10368800B25C4B7B53402E226373B25C8B7B5340FE
:103698002F22A373CB7BB25C5340E3739FE7C046F2
:1036A800E0620020F0B5D64646464F46C0B51F003A
:1036B8000F371D003B091F0049233A4C0E002374A5
:1036C800230011330100904618000D2201F06AFE14
:1036D80000232000A377E57704F030F8802320004A
:1036E8005B000D2200212382A674133001F09EFE98
:1036F800002F38D01023994600269A46A14405E0A9
:10370800721C103DD6B2EDB2B7422CD92369226A99
:10371800200053402361626A636953406361A26A6F
:10372800A3695340A361E26AE3695340E36104F08B
:1037380005F82A00102D00DD10223101C9B24846D3
:10374800414401F02FFE0F2DDAD8280053461030DF
:103758005A1B0021201801F069FE721C103DD6B2D8
:10376800EDB2B742D2D82369226A200053402361C0
:10377800626A636953406361A26AA3695340A361A3
:10378800E26AE3695340E36103F0D8FF21000422B1
:103798000898203101F006FEE0BCBA46B146A846BA
:1037A800F0BDC046E0620020030010B5080011001B
:1037B8001A0003F089FF10BDF0B585B00C001500A4
:1037C80018496A4603F080FF6A4601230020561E06
:1037D800671EF25C51000843F8540133D009112BDD
:1037E800F7D16B46DB7B22787F2B10D80020002393
:1037F80000E0225C520013432B54235C0130DB09A8
:103808001028F6D1E37B7F2B05D805B0F0BD8723C0
:103818005A402270EAE779232A785B4253402B709A
:10382800F3E7C046D0620020F0B5DE4657464E4664
:1038380045468946E0B5A7B011909346484616AA72
:1038480012A99846FFF7B8FF0F2343449A460F2260
:103858001C09434613401093002C00D0BAE01EAD5B
:1038680000212800013201F0E1FD22AC109F1AAEC0
:10387800F01B3A005946103001F094FD0F228023C6
:10388800D21BB35400D0B0E112AB32781B7C5A4043
:1038980012AB5B7C3270904672785A4012AB9B7CBC
:1038A80001927270B2785A4012ABDB7C0292B2700D
:1038B800F2785A4012AB1B7D0392F27032795A406B
:1038C80012AB5B7D0492327172795A4012AB9B7DC8
:1038D80005927271B2795A4012ABDB7D0692B271D1
:1038E800F2795A4012AB0792F271327A1B7EF77A5C
:1038F8005A4012AB5B7E08923272727A307B5A4021
:1039080012AB9B7E92467272B27A717B5A4012ABAE
:10391800DB7E94465F4012AB1B7FB272584012ABFD
:103928005B7FB27B594012AB9B7FF7725A4009927A
:10393800B27312AAF37BD27F30735A4093467173E5
:10394800F27346462B785E4026706B78019E5E4087
:103958006670AB78029E5E40A670EB78039E5E4070
:10396800E6702B79049E5E4026716B79059E5E4059
:103978006671AB79069E5E40A671EB79079E5E4044
:10398800E6712B7A089E5E40267256466B7A5E4038
:1039980066726646AB7A5E40EB7AA6725F40E77263
:1039A8002B7B099A58406B7B20735940AB7B617322
:1039B8005A40A2735A46EB7B21005A40E2734846AC
:1039C800119A03F081FE27B0F0BCBB46B246A94667
:1039D800A046F0BD1EADE3B21022002128000F93CF
:1039E80001F024FD012C00D104E143460133019389
:1039F8004346023302934346033303934346043357
:103A080004934346053305934346063306934346DA
:103A1800073307930823434408930923434409932E
:103A28000A2343440A930B2343440B930C23434434
:103A38000C930D23434447460D930E230126103F54
:103A480043445F4422AC0E933B782A78697853400C
:103A580023704346019AFB1A9A5C48464A406270B2
:103A6800029AA9789A5C01364A40A270039AE978CA
:103A78009A5CF6B24A40E270049A29799A5C103F3F
:103A88004A402271059A69799A5C4A406271069A9D
:103A9800A9799A5C4A40A271079AE9799A5C4A40E6
:103AA800E271089A9A5C297A4A402272099A697ADC
:103AB8009A5C4A4062720A9AA97A9A5C4A40A2724F
:103AC8000B9AE97A9A5C4A40E2720C9A297B9A5CD2
:103AD8004A4022730D9A697B9A5C4A4062730E9A37
:103AE800A97B9A5C4A40A27352469B5CEA7B210000
:103AF8005340E3732A0003F0E7FD0F9BB342A3D1C1
:103B0800109B002B00D0B1E65B461A7812AB1B78ED
:103B18005A401AAB1A7090465A46517812AA5278EF
:103B280051405A4601915970917812AA92785140A1
:103B38005A4602919970D17812AAD27851405A46C1
:103B48000391D970117912AA127951405A460491F9
:103B58001971517912AA527951405A4605915971F1
:103B6800917912AA927951405A4606919971D17960
:103B780012AAD27951405A460791D971117A12AADC
:103B8800127A51405A4608911972517A12AA527AF9
:103B980051405A468A465972917A12AA927A5140ED
:103BA8005A46D77A12AAD27A8C4657405A46107B80
:103BB80012AA127B997250405A46517B12AA527B24
:103BC800DF7251405A46967B12AA927B1873724054
:103BD80009929A735A46D27B5973934612AAD67B96
:103BE8005A4672409346DA73ABE60021300001F082
:103BF8001DFC49E622AC83E7F0B5DE4657464E4643
:103C0800454614009B46E0B589B0149F12AB7D78F9
:103C18001B78043DEDB29A46E91C03AB81460422A9
:103C28001800791804AE984601F0BCFB230A73709B
:103C3800230C5A46B3703F23134052461520D20135
:103C480013431399082234706844240EF4703371B6
:103C580001F0A8FB1C233C784946102217489C43D6
:103C680001F0A0FB159B2A0003339A464346300017
:103C7800F91C00935346FFF751FC02AB9946524694
:103C88002100300000932B00FFF70CFD0422414671
:103C9800484601F057FB0023002806D13B78159AC7
:103CA80013705570BB7893700123180009B0F0BCED
:103CB800BB46B246A946A046F0BDC046E062002019
:103CC80070B516001C00050084B0082202A801F097
:103CD80069FB31000822684601F064FB6A46290046
:103CE8002000FFF761FD04B070BDC046F0B5CE46B8
:103CF800474680B593B00D0016001F000200202330
:103D080068461E49FFF790FD0023122004AC99462F
:103D18001A9923700722013368449846637001F0AA
:103D280041FB192039000722684401F03BFB3100B0
:103D3800102208A801F036FB290010220CA801F077
:103D480031FB04220E4910A801F02CFB34254B4608
:103D5800220069461B9863553533FFF765FD4346D6
:103D68001B9863552200694610303433FFF75CFD19
:103D780013B0C0BCB946B046F0BDC04618860000B6
:103D88001486000010B538220021040001F04EFB13
:103D980001212223E15401225242D317A172226346
:103DA8006363A261E36110BD012303707047C046DD
:103DB800F0B557464546DE464E461300E0B50127A6
:103DC8000A785C7C9108D208394017409A7B8C4667
:103DD8009046012241464A40002C02D0197C002915
:103DE80034D143465E00F318DB00C318997AC91B27
:103DF8004D426941197251008918C9008B468344A4
:103E080059468D7A1C73A946654649464D405D72F0
:103E18000478002C0ED059460C7B002C0AD00C6973
:103E28004D69013251008A465244D2008218116805
:103E3800A14216D063464644F60080198772C372C1
:103E4800F0BCBB46B246A946A046F0BD41464D1C53
:103E580069004919C90041189D69DE690D604E6005
:103E6800BFE75268AA42E5D1E145E3D0DB7A634572
:103E7800E0D001220023594612196B410A614B61B7
:103E8800D8E7C0464B005B18DB00C318187A7047A8
:103E98004B005B18DB00C318587A70474B005B185F
:103EA800DB00C318186959697047C046F8B5CE4693
:103EB800474680B50D0004001F0008AB1B781600AC
:103EC800984603F01DF869004B19DB00E3185A699E
:103ED8008146BA420BD822D04B19DB009C460122FE
:103EE8000023A44492197B41604602614361434622
:103EF800002B07D04919C9006118CB69BB4208D209
:103F08008E61CF61484603F003F8C0BCB946B0469D
:103F1800F8BDBB42F6D18B69B342F3D2F0E71B6917
:103F2800B342E4D8D8E7C0464222825C0300002AA4
:103F380004D04322805C002800D070474022985C5F
:103F48000028FAD00132985CF7E7C04601230370D5
:103F58004C2200238354043A8354043A0364835460
:103F68007047C046F0B5C64600B50B780500DB4380
:103F78000C0016009B0712D00124402374406400F3
:103F88002C19E35C002B02D180BCB846F0BD280098
:103F980031000830FFF77CFF4123E054F4E7CF7885
:103FA800022F6FD023D8002F3CD08F7A4B7A4088CD
:103FB8003F021F433B49381AFCF7E2F93A4B994252
:103FC8006ADC9C232279EA5462790133EA54A279A3
:103FD8000133EA54E2790133EA54227A0133EA548C
:103FE8000122543BEA542B004C335F80C4E7182F5E
:103FF800C2D1CF798B7940883F021F432949381AAB
:10400800FCF7BEF9284B9942B6DCA1232279EA5481
:1040180062790133EA5401225A3BEA542B004833AF
:104028005F80A9E78B7B4A7B40881B021343181AE1
:104038001C499846FCF7A4F91B4B99422FDC8923AD
:104048002279EA548C22A37961791B020B43AB5283
:10405800237AE1791B020B430232AB52A37A617ACD
:104068001B020B430232AB52237BE17A1B020B4348
:104078000232AB524423913AEA542B00424644336D
:104088005A8079E753004022C318995C002900D070
:1040980072E7013199546FE700232B706CE72F709A
:1040A8006AE7C046FFFF0000FE7F000070B54C25A0
:1040B800425D04004388002A04D002004C32528832
:1040C8009A4225D04425625D002A04D02200443259
:1040D80052889A4212D04825625D002A04D02200F4
:1040E800483252889A4200D070BD210020007A31AF
:1040F8005030FEF7D9FB00236355F5E72100200077
:104108007A315030FEF7BEFB002363556388E2E73F
:10411800FEF7A6FB002363556388D3E70022014B13
:10412800C25470473E020000F8B545465746DE4681
:104138004E469223E0B53F25012405229B00C7582F
:104148008046FB781D403B791C40013C94430B346E
:104158009A0701D50634E4B25A0701D50134E4B20E
:104168001A0701D50234E4B2DA0601D50334E4B201
:104178009A0601D51234E4B25B0601D50134E4B2E3
:104188002D1B05352EB2002E38DD92239B009A4652
:104198001D4B994605E0761B2C1936B2E4B2002E69
:1041A8002CDD3B195A783D5D282AF4D15146424608
:1041B8005258DB791219127A1449120213439B469A
:1041C8004A464346985A5B46181AFCF7D9F8104BEA
:1041D8009942E0DC0F48A11C05227918404401F0FF
:1041E800E1F8012241460C4B761BCA545A46434417
:1041F8002C1936B25A80E4B2002ED2DCF0BCBB4691
:10420800B246A946A046F8BD3A020000FFFF0000EA
:10421800FE7F0000420200003E02000070B5084D1B
:104228000400435D002B05D0064BC25A43195B8836
:104238009A4200D070BDFEF701FB00236355F9E7F1
:104248003E0200003A0200007047C0467047C04670
:104258007047C0467047C0467047C0467047C04662
:10426800002806D0032342681340012B07D0032BF4
:1042780002D01620404270470368002BF9D0002373
:1042880083600020F7E7C04642680300D24381609C
:10429800920703D1006800225A6070470020FAE7AD
:1042A800F8B54E46DE4657464546E0B5038B060050
:1042B800180700D501E107208346072458461C400B
:1042C8001840022900D083E0002800D0ABE0316814
:1042D800002900D1ACE03169062009688A465946B0
:1042E8008B4318430623984680B23083444500D157
:1042F800B7E0B168002500270300002900D11FE1BD
:10430800082318433083002A73D162B6BFF36F8F36
:10431800B16800296DD1002D13D0B1463E0006E0EA
:104328002900330042464846A0473D1E08D02800D1
:10433800310080C8FFF7A8FF041EF1D13D1EF6D159
:104348004E465346002B02D030007E49D047EFF34B
:10435800108272B60823308B9843308310230342AF
:1043680027D0010099438BB25946776901408846A6
:104378000C003383002F2FDB41460539012900D873
:104388008DE041460025042900D1B7E0A04500D0C2
:10439800CEE000218A46002D00D1D1E008210B4350
:1043A800338300239A46002AB5D162B6BFF36F8FD4
:1043B800B1E7202303423BD001005C4699438BB20E
:1043C80004400221584633831840022900D17BE774
:1043D80077698046002FCFDA002135687160316037
:1043E80059468B4301210B4301219BB288463383F5
:1043F800CCE73300464698460C68A9463B00320095
:1044080040464D68A847002C08D0210024683B008E
:10441800320040464D68A847002CF6D143464D4629
:10442800B0461E0077E7022828D1718B00290AD0F0
:10443800002A02D162B6BFF36F8FF0BCBB46B2460A
:10444800A946A046F8BD3169042049688A465946FC
:104458008B4318430423984680B23083444500D0E8
:1044680047E700275346002B00D177E70823184376
:104478003083002A00D064E7002596E70128D7D1C9
:1044880031680029D4D03169052089688A4659469F
:104498008B431843052380B29846308326E70021D2
:1044A80035687160316059468B4341469BB2062995
:1044B80009D000213383884668E701292DD02021BF
:1044C8000B433383B4E7002D0DD028009C46718B35
:1044D800013189B200680B00013189B20028F9D195
:1044E8001900634671830221708B194389B23183A5
:1044F800002816D00B000221884647E759468B430F
:10450800002135689BB288463383002D00D13DE7F2
:1045180020310B430025338338E710210B433383C5
:1045280086E722210B4302219BB2884633832DE77D
:104538000020B1688246002900D12AE71800DFE68A
:1045480018008FE75145000010B5EFF3108272B6DE
:1045580041610121FFF7A4FE10BDC04670B50500FA
:104568000C0000280ED000290CD00B68002B09D0B5
:104578004B68002B06D01C22002100F057FF0020BA
:104588002C6170BD16204042FBE7C046F8B5040018
:104598000D00002856D0002954D00E1D3000FFF71A
:1045A8005FFE002820D10322AB6893434AD1EFF382
:1045B800108272B60723278B618B24483B408142C7
:1045C80015D0022B25D0B90719D1002129606168BF
:1045D800002932D00D606560181E0AD12000022122
:1045E800FFF75EFE002001E00028E0DAF8BD0B20AE
:1045F8004042002AFAD162B6BFF36F8FF6E7062B66
:10460800E3D0581F431E984143421E2018402338C8
:10461800EFE701316183002A02D162B6BFF36F8FE1
:1046280030000021FFF730FE061E09D020000023CD
:1046380002222900B0470220D8E765602560CBE751
:104648000220D3E716204042D0E7C046FFFF000013
:1046580010B50400080011001A00A04701F0F4FF8B
:1046680000F040FEF8B580278368CE0004000D00F6
:1046780086193F02BB4217D27088AFB24008FBF7D9
:1046880085FE1F23181A8200A2181369002B39D03F
:10469800D90061188A88B280D2009446200060440C
:1046A800F380C7808F80F8BD736858080128FAD056
:1046B8000138FBF76BFE1F23181A8200A218136932
:1046C800002B13D0D90061188A68B260D2009446D2
:1046D800A018A268BA421ED3F360A368BB4222D3D3
:1046E800C560A368BB421BD38D60DCE70123834010
:1046F800E1680B43E3601561B560A368BB420CD366
:10470800F560D0E701238340E1680B43E36015615E
:10471800B780F780C7E7AFB2C0E7AFB2F780C2E7AC
:10472800AFB28F80BFE7AFB2C780BBE70023F0B559
:1047380080241D00E402A2425D414646D6464F460B
:104748006C420425C0B5072625400435551BCC1DF1
:104758004919B443B14304600D1B00200021E360F4
:104768008023EE0820606160A6601B029E4244D24E
:104778003000FBF70BFE24212023091A890007319A
:104788001F1AC908834243D0220000230020103298
:10479800013301C2BB42FBDB80274B009C46731AE6
:1047A80098465B009946CA00F3003F02BA46A21831
:1047B8006519E318BE4236D301266746374367605A
:1047C8004F465760A768574533D31160A2685245D2
:1047D80030D36860A26852452ED342462A60A26848
:1047E80052452BD35A6816435E602000FFF73AFF04
:1047F800E0BCBA46B146A846F0BD701EFBF7C6FD40
:1048080024212027091A890007313F1AC908BBE764
:104818004B009C46731A98465B009946CA00F30001
:10482800A2186519E31801206646064348466680C3
:104838005080118000226A8042462A8001205A88CE
:1048480002435A80D1E7C0467047C046FF23C2687A
:1048580007200B405900C918890051180B6C1840E3
:104868007047C0461B4A70B50D00811A8910CB00ED
:104878005B18040098011B18DB005B18D8031B1891
:10488800DB005B18FF215B420B40EFF3108072B630
:104898005900C91889005218116C090607D5002853
:1048A80015D162B6BFF36F8F012149420CE0012197
:1048B8001164002802D162B6BFF36F8F064ADB008D
:1048C800D3185B68984700212000A84770BD0121D4
:1048D8004942F9E720630020448600000B00FF21CD
:1048E80010B51940CB00C068591A8900401800213A
:1048F800904710BD10B5002001F06EF910BDC046FC
:1049080010B503210448494202F0F4F9C30702D460
:10491800012001F081F910BD7063002010B500205E
:1049280001F07AF910BDC04610B5100001F092FEF2
:1049380010BDC046F0B585B06B46009301930023C7
:10494800029301330393FE33C4681940EFF31087D1
:1049580072B607254A0053189B00E3181E6C3540B1
:10496800012D14D0C0231E40802E08D0002F02D164
:1049780062B6BFF36F8F0120404205B0F0BD002F33
:1049880002D162B6BFF36F8F45204042F5E77F350D
:104998001D64002F02D162B6BFF36F8F5218084B07
:1049A8009200A21893636B46D3634368C900CB583F
:1049B8009847802200236846D20101F067FEDCE7B1
:1049C80031490000F8B5002201210400002000F060
:1049D8002FFB002000F014FB0F4801F0DBF80F4B11
:1049E800984216D101F0E8F8E6680D4D300029002C
:1049F800FFF7B4FD00280BDBE4680127200029003D
:104A080037641C30FFF7AAFD002801DB0020E764AB
:104A1800F8BD05204042FBE72D4B00000000AD0B20
:104A280054860000FF2310B5C2681940EFF31084C4
:104A380072B64B005B189B00D3181A6C520607D548
:104A4800002C02D162B6BFF36F8F012040420CE008
:104A580001221A64002C02D162B6BFF36F8F43683B
:104A6800C90059184B689847002010BD43001B180F
:104A7800010000209A000C4B70B59B189D6BDA6BF7
:104A88009863EFF3108072B6C0241E6C344002267F
:104A980034431C64002802D162B6BFF36F8F002D27
:104AA80001D00248A84770BD2063002038030020C9
:104AB80070B5EFF3108472B6174A02211368180014
:104AC8000843106001221A4208D1002C02D162B6B4
:104AD800BFF36F8F012001F07FF870BD80200F4B6E
:104AE800C005C558C3582A42EFD0EFF3108072B6FC
:104AF800C0230B4A156C2B4019431164002802D1BE
:104B080062B6BFF36F8F002C02D162B6BFF36F8F0E
:104B18000020FFF7ABFFE0E7706300200C04000003
:104B28002063002010B5002805D0012802D10120FB
:104B3800FFF79CFF10BD044B1B6C5B07FAD10020EC
:104B4800FFF794FFF6E7C04620630020F8B5CE468D
:104B58004746FF24994680B5C6682140EFF3108880
:104B680072B64D006C18A4003419276CBC46072790
:104B780063461F40012F19D0C02362461340802B83
:104B88000BD04346002B02D162B6BFF36F8F0120D2
:104B98004042C0BCB946B046F8BD4346002B02D1DE
:104BA80062B6BFF36F8F45204042F2E743467F3736
:104BB8002764002B02D162B6BFF36F8F4B466D1886
:104BC800AD007519EB634368C900CB58AA639847D1
:104BD8000020DEE70A002549F8B5441AA410E300CE
:104BE8001B199D015B19DB001B19DD035B19DB0039
:104BF8001B19FF245B422340EFF3108C72B6072683
:104C08005D00EC18A4000C19276C3E40012E16D04C
:104C1800C0231F40402F09D06346002B22D162B623
:104C2800BFF36F8F012149429047F8BD6346002BBF
:104C380002D162B6BFF36F8F45214942F4E74020A5
:104C480020646046002802D162B6BFF36F8FED186A
:104C5800AD0049190648CA63064ADB009B588863B9
:104C68009847E2E701214942DEE7C0462063002079
:104C7800E548000044860000F8B5050001212848F1
:104C880002F02CF8002803D06B1E012B10D9F8BDB8
:104C9800244C0C220021201D00F0C8FB01232248CF
:104CA800A36021001C30FFF771FC6B1E012BEED8AE
:104CB80001F018FD002803D11C4B1B78002B1DD1D7
:104CC800EFF3108772B601239C468022832380204D
:104CD8000326D205DB004002D158D4580442FBD049
:104CE8003140022901D0012DF6D16346002B0FD0A7
:104CF800002FCCD162B6BFF36F8FC8E78022C223E2
:104D080002219B00D205D150002300279C46DCE7F6
:104D18008022C1230221D2059B00D150B7E7C046AB
:104D2800746300201063002020630020E3660020E5
:104D38007047C046C12370B580240F499B000F48B7
:104D4800CB5864020568234203D00D4B1A68002A29
:104D580000D170BD00221A60D2239B00CC50F933D9
:104D6800FF33C958002D01D10560F2E7026042689F
:104D78000020A847EDE7C0460010014078630020F6
:104D880040110140F8B5294B02009C465746E246BF
:104D98005032920092B29244802252024E464546C8
:104DA800DE468240A823E0B593468700204ADB0010
:104DB8000D026744984666469146FB582D0A20E046
:104DC8008021A21CAB1A1B021B0A09048B4200D9C2
:104DD8001500002352461360D1235A469B00F25017
:104DE80042462B021B0ABB504B46F3589C4217D035
:104DF8008022EB1A023B1B021B0A120493420FD9B2
:104E08002B004A464146B45822021B1B120A1B02B9
:104E18007A501B0A012BD3D1132001F069FCCFE78C
:104E2800F0BCBB46B246A946A046F8BD00100140FA
:104E380004050000054A10B51368C81A0002000AE4
:104E48001B18136001F0ACFE10BDC046846300203F
:104E5800A123002210B5104CDB00E250C1238022B0
:104E680080219B005202E2500C4A853BFF3B89029D
:104E7800D15011200121002200F0DAF8112000F0B1
:104E8800BFF80123064A02201360064A2360136014
:104E9800FFF7F2FE002010BD0010014000E100E025
:104EA800081001408063002070B5431C26D00138EB
:104EB80000281EDC00208024114A124B2404D358F9
:104EC800114A12689B1A190223405D426B41090A74
:104ED8005B42184001310818A04200D30B480C4B24
:104EE8000C4919600021596011180020FFF74AFF8A
:104EF80070BD094B9842DEDD0448DCE70648DAE776
:104F0800001001400405000084630020FFFF7F00BB
:104F1800786300203D4E0000FEFF7F00EFF3108312
:104F280072B6074A07498858074A1268801A000269
:104F3800000A002B02D162B6BFF36F8F7047C046DC
:104F4800040500000010014084630020084A094954
:104F580093680968D8661967802307495B0548681C
:104F680003434B6062B6BFF36F8F9368186F704747
:104F7800EC630020D486000000ED00E013498A6845
:104F880013481044EFF3098CF0C043464C4655468D
:104F98005E466746F8C072B60E4F0F4E8A6A8A6040
:104FA8003E60D06E0023D366002800D162B6084C5C
:104FB80010191030F8C89846A146AA46B346BC4610
:104FC8002438F0C88CF3098870470000EC6300208F
:104FD8003800000004ED00E00000000804207146DD
:104FE800014202D0EFF3098001D1EFF30880816913
:104FF800023909780229FFD001B500F099F801BDFE
:10500800030605D41F2318401E3B8340014A136042
:105018007047C04600E100E0044A43099B009B58E2
:105028001F220240012090401840704700E100E034
:1050380070B5FF2503232C000340DB009C40890149
:105048000D40E4439D4042B2C6B203060BD4930818
:105058000B4A9B009446C0226344920099580C4026
:1050680025439D5070BD0F23064A33409446083BA4
:105078009B089B006344D9690C402543DD61F1E737
:1050880000E100E000ED00E010B50021012000F093
:105098004BF810BD10B5EFF3108472B6074B586A81
:1050A800002805D1002C02D162B6BFF36F8F10BD66
:1050B80000225A6200F060FEF4E7C046EC6300206C
:1050C80010B5203A1360029B01245360039B0649E4
:1050D8009360049BA143D36080235B04D3610023C6
:1050E80091618265C36610BD59460000064B986001
:1050F800101C81F30988002162B6BFF36F8F00226C
:105108000023FFF7A5FAC046EC63002001491022EE
:105118000A60704710ED00E0BFF34F8F30BF62B6F2
:10512800BFF36F8F7047C04610B500F00FFE10BD7B
:1051380010B50100006800F009FE10BD10B500F0C0
:1051480003F800F0A5F810BD30BFFDE77047C04672
:1051580010B5FFF7FBFF00F03BFE01F09BFB00F0F2
:10516800A7F800F05BFEC04601B572B60A4A506A5D
:10517800002803D00021516200F0FEFD62B6EFF373
:1051880005800649401AC0000549014409C99847E5
:1051980009BC9E4603490847EC6300201000000044
:1051A8008C8300009952000000F0A6F972B60748F7
:1051B8000749401880F30988EFF314800221084357
:1051C80080F31488BFF36F8FFFF7C2FFF06B0020E6
:1051D80000080000EFF30880EFF3098101B572467B
:1051E80000F002F801BDC04630B5254B89B05B68B8
:1051F800DB05DB0D62B6BFF36F8F140EFF2C17D1E2
:10520800F33C1440082C13D0082425001540144200
:105218000FD1032B2CD06C4620220100200000F077
:10522800C1F8E369DA0510D1164A1343E3610CE0CB
:105238000021032B0FD06C462022200000F0B2F88A
:105248000025E3695B0A5B02E36121002800FFF7A0
:105258006BFF09B030BD8B69023B1A880A4B9A4232
:10526800E9D16C46202220000D6800F09BF8E8E7A1
:105278008369023B1A88044B9A42CCD10568CAE775
:1052880000ED00E0FF01000002DF00007047C046AB
:10529800044B9968986A884202D00349034A0A6015
:1052A80070470000EC63002004ED00E000000010EF
:1052B800F0B5C02400220326FF25A40030002F00EB
:1052C800074910408C46C000874093089B00634400
:1052D80019590132B94319511A2AEFD1F0BDC04604
:1052E80000E100E00C4B10B59B68834207D001F049
:1052F80025F8EFF3108072B601F04AF910BDEFF30C
:105308000583002B06D08023044A5B0551680B43B4
:105318005360ECE701F0AEFAEC63002000ED00E02A
:1053280010B50C78027801230139944205D006E0C3
:10533800C25C0133CC5CA24201D1002AF8D1101B17
:1053480010BDC04630B5002A0FD00D78012304786F
:105358000139012A05D106E0C45C0133CD5C9A42CB
:1053680001D0AC42F8D0601B30BD0020FCE7C0463D
:1053780010B5431A934208D30023002A04D0CC5C0A
:10538800C45401339A42FAD110BD002AFCD0013A24
:105398008B5C8354002AF7D0013A8B5C8354002A33
:1053A800F5D1F1E70323F0B50400C6461D004C40D3
:1053B80000B52540234227D1184231D0002A2CD0ED
:1053C800561CB446032600230400B0468C4402E071
:1053D8000133002A21D06646B71ACE5C0134C65480
:1053E8004646013A3442F3D1032A1CD9111F8908D1
:1053F800013189007B5963510435A942FAD103234D
:1054080064181A40791800E00400002A05D0002327
:10541800CD5CE55401339A42FAD180BCB846F0BD60
:105428000F000400E0E73900EFE7C046F0B5C646D4
:10543800040000B5CDB2830730D0002A2BD003007A
:10544800032602E00134002A25D001332570013AF1
:105458003342F7D1FF2739400F0239430F040F4376
:10546800032A11D9141FA408A4461E1DA400A0468F
:1054780034001900444480C1A142FCD103210A40F0
:105488006146013189005B18002A04D09A181D7002
:1054980001339342FBD180BCB846F0BD0300D9E785
:1054A800EFF3108372B6002B02D162B6BFF36F8F91
:1054B80000207047FF238021064A0340C9058B500E
:1054C800BFF34F8F044B054ADA60BFF34F8FC046D6
:1054D800FDE7C0461C05000000ED00E00400FA05E9
:1054E80010B5022805D90122024B023800011343E6
:1054F800984710BD6084000010B500F0B7FA10BDE1
:105508004368F0B59C46324B14001340314A93422D
:105518005BD039D8062B52D029D980225203934226
:1055280050D180235B000C26E20629D501252800EE
:10553800620A2A401700220A9043A20509D562464A
:1055480052689446220533D5A1248D406246E40072
:1055580015511F22114042003A431343A022002054
:10556800C131FF3133438900D2058B50F0BD002B88
:10557800D9D0022B26D180230C26DB00E206D5D415
:10558800A606F60FB600D1E7134A93420DD0A02223
:10559800D203934202D1C0239B00C4E78022D203E6
:1055A80093420FD180239B00BDE7A023DB00BAE71D
:1055B8006205CED58D406246084C1551C9E7C02317
:1055C800DB00B0E716204042D0E7E023DB00AAE783
:1055D8000600F00006001000020040000C05000064
:1055E800436800205A68A223DB00D3580B60704739
:1055F800436810B55868044BC45862401140614074
:10560800C150002010BDC0460405000043680020BA
:105618005A68A123DB00D1507047C0464368002078
:105628005A68014BD15070470C0500004368034A83
:10563800586883584B408350002070470405000089
:1056480070B5C5686E68002E1CD03300002400E0D9
:10565800030099420DD018681C000028F8D11638AC
:10566800002A05D0AB680E606960002B12D00020BC
:1056780070BD0B68A868002C0ED02360884210D03B
:1056880000230B60002AF2D06E68AB680E60696078
:10569800002BECD1A960EAE76B608842F0D1AB60DF
:1056A800EEE7AC60ECE7C0460B4B10B51A78002A61
:1056B80001D0002010BD01321A70012100220620FD
:1056C800FFF7B6FC0620FFF79BFCC1238021034AA5
:1056D8009B000906D150ECE7E2660020006000401C
:1056E800F8B54546DE4657464E465C4BE0B51D6864
:1056F8000024002D2FD1C12189008C461F21894605
:105708000021002301268846554A564F614678589D
:105718003100994008420FD0116800290CD01900B7
:1057280048464531FF318900C959090A014030000E
:10573800884041460443116001330432042BE5D10B
:10574800002C00D070E0002D3AD1F0BCBB46B24628
:10575800A946A046F8BD444BA02099695A69C005DE
:105768000A43D9681B699143A2220C00D2008258CF
:1057780053409C4300291CD01F229046E022D200AF
:1057880092463A4A002001239446194215D0A02691
:105798004246F605B14656466746024092004A44DC
:1057A800965999433E4057460130D6515B0000292F
:1057B800EBD10022294B1A609DE701305B00E4E73A
:1057C800294B5A699969DD680A439543BDD01B691D
:1057D800E0269A461F2399461E3B9846023300242A
:1057E80001219C46214FF60029421AD0A0234846A1
:1057F800DB059B46204080005844835942469B461F
:105808005346E34013406246D31A5A461B043A40B3
:1058180013438D43835101344900002D95D029420B
:10582800E4D101344900DFE70F4B5968002900D162
:1058380089E78B680E681A000D4F2240234202D078
:1058480038004B689847002E00D17CE731008B6800
:1058580036681A0022402342F5D0F1E77C61004007
:10586800006100400060004088630020FFFFFCFFEB
:1058780058030020F0B5CE46474680B589464168B2
:10588800C468087A1F214E460D003540AC46A02555
:1058980083B040016D02AA4200D1ACE00121B140C1
:1058A8008026CF43E568B601B24200D085E03D408E
:1058B800E5606546626905433A40C0266261A069B1
:1058C8002269F602B34200D191E03840A0618020FD
:1058D800C002834200D08CE00A43C1230F27226113
:1058E8005B4A9B00D35800201F4001231F219C4680
:1058F80003004533FF339B00D3581B0A0B409D42DE
:105908005ED001300428F3D1A0221F23D20594468B
:10591800E0272B409B006344FF004E49DA598C4630
:105928000A404946DA51E2680020CA400121114282
:105938003ED04E466269F240114200D16FE0A36941
:105948000327F340194200D175E06B46D81D00F0DB
:10595800CDF9414B984200D074E06B46DA793C4B64
:1059680091009C46A2236144DB00C8583B4C2D02A1
:105978002040F824C850C8586401254005433F0416
:105988003D43CD50364992008C4600216244116057
:105998006A46D4792E4AA100944601226144C85827
:1059A8001043C850C123A240614600209B00CA5042
:1059B80003B0C0BCB946B046F0BD0D43E56078E71A
:1059C8003B006646C3401E429BD02149A227884619
:1059D80083004344FF00D959B143D9516346C221DA
:1059E800834089005350C0B200F064F98CE7084343
:1059F800A0613A4071E76546A02205432940C131BC
:105A0800FF318900D2058A58012111421DD1B140C8
:105A1800E268CF430A43E26062690A434DE72269BC
:105A2800DD59F24011400322511A6246090415401B
:105A38002943D951BCE72769F740394002277F1A23
:105A4800FFB282E713204042B2E723204042AFE78B
:105A580000600040FFFFFCFF0000AD0BFFE0FCFF13
:105A680000610040002010B5FFF724FD214B1B7892
:105A7800012B03D0204B214A1A607047204B1B682A
:105A88001B061B0F0D2B22D81E4AD25C002A06D0FB
:105A98001D4A1E49116080211D4A090211601D4AD4
:105AA800D35C002B20D08022C1230121DB00D2054A
:105AB800D150104B1B78012BDCD1114B1B681B06F6
:105AC8001B0F0D2B03D8144AD35C002BD2D0134ADA
