:1010000080D303201DAB000081AA00004DAB00007F
:101010004DAB00004DAB00004DAB000000000000E8
:10102000000000000000000000000000D1A8000047
:101030004DAB0000000000007DA80000ADA4000042
:10104000DDAA000055F50000DDAA0000DDAA0000C1
:10105000DDAA0000DDAA0000DDAA0000DDAA000074
:1010600039F50000DDAA0000DDAA0000DDAA0000BD
:10107000DDAA0000DDAA0000DDAA0000DDAA000054
:10108000DDAA0000DDAA0000DDAA0000DDAA000044
:10109000DDAA0000DDAA0000DDAA0000DDAA000034
:1010A000DDAA0000DDAA0000DDAA0000DDAA000024
:1010B000DDAA0000DDAA0000DDAA0000DDAA000014
:1010C000DDAA0000DDAA0000DDAA0000DDAA000004
:1010D000DDAA0000DDAA0000DDAA0000DDAA0000F4
:1010E000DDAA0000DDAA0000DDAA0000DDAA0000E4
:1010F000DDAA0000DDAA0000DDAA0000DDAA0000D4
:1011000053B94AB9002908BF00281CBF4FF0FF316E
:101110004FF0FF3000F078B9ADF1080C6DE904CE66
:1011200000F006F8DDF804E0DDE9022304B07047C2
:101130002DE9F047089D0E4604468E46002B4CD103
:101140008A42944667D9B2FA82F252B101FA02F3A6
:10115000C2F1200120FA01F10CFA02FC41EA030E6F
:1011600094404FEA1C48210CBEFBF8F61FFA8CF79E
:1011700008FB16E341EA034306FB07F199420AD94B
:101180001CEB030306F1FF3080F01E81994240F210
:101190001B81023E63445B1AA4B2B3FBF8F008FB68
:1011A000103344EA034400FB07F7A7420AD91CEBBB
:1011B000040400F1FF3380F00981A74240F2068168
:1011C00064440238E41B40EA064000211DB1D440CB
:1011D0000023C5E90043BDE8F0878B4208D9002D04
:1011E00000F0EF800021C5E900060846BDE8F08761
:1011F000B3FA83F1002949D1B34202D3824200F20B
:10120000FF80841A66EB030301209E46002DE2D086
:10121000C5E9004EDFE702B9FFDEB2FA82F2002A2A
:1012200040F08E80A1EB0C064FEA1C471FFA8CF3AE
:101230000121B6FBF7FE07FB1E60260C46EA0046BE
:1012400003FB0EF0B04208D91CEB06060EF1FF3886
:1012500002D2B04200F2D080C646361AA4B2B6FB23
:10126000F7F007FB106644EA064400FB03F3A342D1
:1012700008D91CEB040400F1FF3602D2A34200F2AD
:10128000B8803046E41A40EA0E409FE7C1F12007DB
:1012900022FA07F48B40234306FA01FC26FA07F4EE
:1012A00020FA07F646EA0C064FEA134900FA01F85D
:1012B000B4FBF9FE300C1FFA83FC09FB1E4440EA24
:1012C00004440EFB0CF0A04202FA01F20AD91C19E8
:1012D0000EF1FF3A80F08B80A04240F28880AEF1A0
:1012E000020E1C44241AB6B2B4FBF9F009FB1044F8
:1012F00046EA044400FB0CFCA44507D91C1900F184
:10130000FF3670D2A4456ED902381C4440EA0E4024
:10131000A0FB02E6A4EB0C04B442F446B14659D358
:1013200056D0002D6ED0B8EB0C0364EB0904CB4013
:1013300004FA07F71F43CC40C5E9007400214AE7CF
:10134000C2F1200024FA00F10CFA02FC06FA02F3C2
:1013500026FA00F04FEA1C4741EA0306B0FBF7F11A
:101360001FFA8CF307FB110E300C40EA0E4001FB14
:1013700003FE864504FA02F408D91CEB000001F1D3
:10138000FF3832D2864530D902396044A0EB0E00D6
:10139000B6B2B0FBF7FE07FB1E0046EA00460EFBA6
:1013A00003F0B04209D91CEB06060EF1FF3818D243
:1013B000B04216D9AEF1020E6644361A4EEA014129
:1013C00037E72946284606E70646E4E61846F9E6E2
:1013D000F045A6D2BEEB020C66EB0303013899463A
:1013E0009FE7C646E9E7304690E74146CEE7D64656
:1013F00078E76444023845E7AEF1020E66442CE714
:10140000084603E72946E6E6704700BF70B491E856
:101410007800B2E802105B1854EB0C04B2E802103A
:101420004D4156EB0C0680E878008041013070BCDD
:10143000704700BF70B491E87800B2E802105B1A00
:1014400074EB0C04B2E802108D4176EB0C0680E8D8
:1014500078008041404270BC704700BF2DE9F00722
:1014600091E8F807B2E802105B1854EB0C04B2E8FC
:1014700002104D4156EB0C06B2E802104F4158EBFA
:101480000C08B2E8021059EB01095AEB0C0A80E88B
:10149000F80780410130BDE8F00770472DE9F007FB
:1014A00091E8F807B2E802105B1A74EB0C04B2E89A
:1014B00002108D4176EB0C06B2E802108F4178EBFA
:1014C0000C08B2E8021079EB01097AEB0C0A80E80B
:1014D000F80780414042BDE8F00770472DE9F0076A
:1014E000524290E87800B1E880071740DB1918EA0B
:1014F000020854EB080419EA020955EB09051AEA37
:10150000020A56EB0A0678C090E87800B1E8800736
:1015100017407B4118EA020854EB080419EA020953
:1015200055EB09051AEA020A56EB0A0678C0804113
:101530000130BDE8F00770472DE9F007524290E80E
:101540007800B1E880071740DB1B18EA020874EB4B
:10155000080419EA020975EB09051AEA020A76EB92
:101560000A0678C090E87800B1E880071740BB41D0
:1015700018EA020874EB080419EA020975EB090578
:101580001AEA020A76EB0A0678C080414042BDE8BA
:10159000F007704790E8300091E8C000A31B1340AB
:1015A000E41AF618EB1B1340ED1AFF1830C0C0C147
:1015B000704700BFF0B55242FFF7ECFFFFF7EAFFBC
:1015C000FFF7E8FFFFF7E6FFF0BD00BF2DE9F007EA
:1015D0003AC91668A1FB069A4FF0000CE3FB06AC73
:1015E0004FF00007E4FB06C74FF00008E5FB067864
:1015F00040F8049B56684FF00009E1FB06A9E3FBA5
:1016000066C9E4FB6679E5FB668940F804AB966839
:101610004FF0000AE1FB06CAE3FB667AE4FB668A48
:10162000E5FB669A40F804CBD6684FF0000CE1FB6E
:10163000067CE3FB668CE4FB669CE5FB66AC80E81D
:101640008017BDE8F00770470A4600BF2DE9F04F4C
:1016500092E8F00F2DE9F30F87B01EC90998A1FB9E
:1016600000784FF00009E2FB00894FF0000AE3FB2D
:10167000009A4FF0000BE4FB00AB0D984FF0000C0C
:10168000E1FB00BC4FF0000EE2FB00CE4FF0000586
:10169000E3FB00E54FF00006E4FB005600970A98D4
:1016A0004FF00007E1FB0087E2FB6097E3FB60A7D8
:1016B000E4FB60B70E98E1FB60C7E2FB60E7E3FB89
:1016C0006057E4FB6067CDF804800B984FF000088A
:1016D000E1FB0098E2FB60A8E3FB60B8E4FB60C8B4
:1016E0000F98E1FB60E8E2FB6058E3FB6068E4FB15
:1016F0006078CDF808900C984FF00009E1FB00A944
:10170000E2FB60B9E3FB60C9E4FB60E91098E1FB30
:101710006059E2FB6069E3FB6079E4FB6089CDF826
:101720000CA0089901F110011EC909984FF0000A98
:10173000E1FB00BAE2FB60CAE3FB60EAE4FB605A4B
:101740000D98E1FB606AE2FB607AE3FB608AE4FBF0
:10175000609ACDF810B00A984FF0000BE1FB00CB77
:10176000E2FB60EBE3FB605BE4FB606B0E98E1FB8C
:10177000607BE2FB608BE3FB609BE4FB60ABCDF83E
:1017800014C00B984FF0000CE1FB00ECE2FB605C36
:10179000E3FB606CE4FB607C0F98E1FB608CE2FB98
:1017A000609CE3FB60ACE4FB60BCCDF818E00C98F7
:1017B0004FF0000EE1FB005EE2FB606EE3FB607E3B
:1017C000E4FB608E1098E1FB609EE2FB60AEE3FB01
:1017D00060BEE4FB60CE079800F11C0181E8E05F89
:1017E000BDE8F80380E8F8030AB0BDE8F08F00BF59
:1017F00030B44FF0000310F8014B11F8015B013ACF
:1018000084EA050443EA0403F5D1A3F101034FEA96
:10181000D37030BC704700BF4FF0000310F8012BAD
:10182000013943EA0203F9D1A3F101034FEAD3706E
:10183000704700BF11F8013B00F8013B013AF9D1B4
:10184000704700BF002200F8012B0139FBD170471F
:101850002DE9F00791E8F807B2E802105B1854EBA5
:101860000C04B2E802104D4156EB0C06B2E802102F
:101870004F4158EB0C08B2E8021059EB01095AEB42
:101880000C0A8941B3F1FF3374F1FF3475F1FF3570
:1018900076F1000677F1000778F1000879F1010987
:1018A0007AF1FF3A51F100015B184C414D4156F17C
:1018B000000657F1000758F1000859EBD1795AEBAF
:1018C000010A80E8F807BDE8F00770472DE9F00746
:1018D00091E8F807B2E802105B1A74EB0C04B2E866
:1018E00002108D4176EB0C06B2E802108F4178EBC6
:1018F0000C08B2E8021079EB01097AEB0C0A894175
:101900005B184C414D4156F1000657F1000758F164
:10191000000859EBD1795AEB010A80E8F807BDE8D5
:10192000F00770470A4600BF2DE9F04F92E8F00F2C
:101930002DE9F30F87B01EC90998A1FB00784FF07D
:101940000009E2FB00894FF0000AE3FB009A4FF028
:10195000000BE4FB00AB0D984FF0000CE1FB00BC6A
:101960004FF0000EE2FB00CE4FF00005E3FB00E578
:101970004FF00006E4FB005600970A984FF000076E
:10198000E1FB0087E2FB6097E3FB60A7E4FB60B745
:101990000E98E1FB60C7E2FB60E7E3FB6057E4FB06
:1019A0006067CDF804800B984FF00008E1FB0098C9
:1019B000E2FB60A8E3FB60B8E4FB60C80F98E1FBC2
:1019C00060E8E2FB6058E3FB6068E4FB6078CDF818
:1019D00008900C984FF00009E1FB00A9E2FB60B908
:1019E000E3FB60C9E4FB60E91098E1FB6059E2FBAE
:1019F0006069E3FB6079E4FB6089CDF80CA008998D
:101A000001F110011EC909984FF0000AE1FB00BA6C
:101A1000E2FB60CAE3FB60EAE4FB605A0D98E1FB7D
:101A2000606AE2FB607AE3FB608AE4FB609ACDF8CF
:101A300010B00A984FF0000BE1FB00CBE2FB60EB2B
:101A4000E3FB605BE4FB606B0E98E1FB607BE2FB19
:101A5000608BE3FB609BE4FB60ABCDF814C00B989C
:101A60004FF0000CE1FB00ECE2FB605CE3FB606C20
:101A7000E4FB607C0F98E1FB608CE2FB609CE3FB85
:101A800060ACE4FB60BCCDF818E00C984FF0000EA1
:101A9000E1FB005EE2FB606EE3FB607EE4FB608ED8
:101AA0001098E1FB609EE2FB60AEE3FB60BEE4FBEE
:101AB00060CEDDE90423069C12EB0A0253EB0B0314
:101AC00054EB0C0455EB0E05002040F1000012EB26
:101AD0000B0253EB0C0354EB0E0455EB0E05464181
:101AE0000020474158EB000859EB0A0940F100007B
:101AF000B2EB0E0273F1000374F1000475EB0A05FA
:101B000076EB0B0677EB0C0778EB0A0879EB0C0900
:101B100060F10000B5EB0B0576EB0C0677EB0E07DA
:101B200078EB0B0879EB0E0960F100006FEAE07AC0
:101B3000B2EB0A0273EB0A0374EB0A0475F10005B9
:101B400076F1000677F1000778EBDA7879EB0A098D
:101B500060F100004FEAE07A12EB0A0253EB0A034D
:101B600054EB0A0455F1000556F1000657F1000741
:101B700058EBDA7859EB0A0940F100004FEAE07AB5
:101B800012EB0A0253EB0A0354EB0A0455F1000569
:101B900056F1000657F1000758EBDA7859EB0A09BD
:101BA000DDE900ABDDE902011AEB060A5BEB070B8E
:101BB00050EB080051EB09015FF0000C4CF1000CF8
:101BC0001AEB070A5BEB080B50EB090051EB09011C
:101BD00052EB0C025FF0000C53EB0C0354EB0C04C3
:101BE00075414CF1000CBAEB090A7BF1000B70F166
:101BF0000000B141BA4173EB0803B44175EB08052D
:101C00006CF1000CC91B72EB080273EB0903BC41B9
:101C100075EB09056CF1000C6FEAEC76BAEB060A7D
:101C20007BEB060BB04171F1000172F1000273F120
:101C3000000374EBD674B5416CF1000C4FEAEC76FE
:101C40001AEB060A5BEB060B704151F1000152F1F1
:101C5000000253F1000354EBD67475414CF1000CB3
:101C60004FEAEC761AEB060A5BEB060B704151F17A
:101C7000000152F1000253F1000354EBD674754198
:101C8000079FA7E8000C87E83F0011B0BDE8F08F80
:101C9000F0B587B00DF06CFC01F0F2FB00F0A2FC97
:101CA00000F0D8F800F0D0F801F08EFE01F0F4FC5E
:101CB00000F0D0F8A43002F04BFB02F017FF012037
:101CC0000EF0E8FA5E4A5F4E002101200EF036FB6E
:101CD00000243060072527461F2D15D8DFE805F0C2
:101CE0008F1414141414147E14141414767314140E
:101CF0001414146F141414675C5146431410143DEB
:101D000001F0B2FB01F06AFD01F0C4FB044670B1C2
:101D100002F056FFE37804F599700BB904F118004E
:101D200001F0C4FC01F0D6FB01200EF0FFFA01F037
:101D300079FD044600287BD001F088FD054601208E
:101D40000EF0F4FA33681A68002AC5D01F6001F05B
:101D500033FC01200EF0EAFABEE7204601F09EFDBA
:101D600000F088FCD0E701F045FCCDE7204601F00B
:101D700093FD044600F06EF82146A43002F036FED2
:101D8000C2E7204601F086FD044600F063F82146D4
:101D9000A43002F027FEB7E7204601F079FD0446A3
:101DA00000F058F82146A43002F00AFEACE72046C5
:101DB00002A901F075FD02A801F0B2FEA4E72046D9
:101DC00001F03EFCA0E701F0F7FB9DE7204602A9E9
:101DD00001F058FD02A802F0E3FD95E702F0E8FDEE
:101DE00001AA02A9204601F065FD00F095FC9DF8CE
:101DF0000410029800F012FC00F0D6FC84E70DF10C
:101E0000020202A9204601F023FD0DF1030201A9FF
:101E1000204601F029FD00F07FFC01989DF8031099
:101E200000F012FC9DF8020002A900F01FFD6BE714
:101E300033681A68002A3FF467AFFF2586E700BFC2
:101E4000400D0300E01F00204FF41472002109F040
:101E500017B900BF00487047800600202DE9F04107
:101E60003A4E3368002B4DD00446FFF7F3FF217B39
:101E7000002241FA02F313F0010356D10132082A7D
:101E8000F7D1334A94F814C01278677BE57B4FEAA8
:101E9000CC0CA2F1090E4FFA8CFCBEF1040F06D84F
:101EA000DFE80EF003054634030043F00203042983
:101EB0004CEA0303A2F10C02DBB218BFFF27012A90
:101EC00045EA03052CD94FF0000830680022C270A3
:101ED000183001F0E5FB294643463A46054601F035
:101EE00003FD237B6168022B1DD0042B14BF282324
:101EF0004FF4BC732846C91A01F0ECFCBDE8F04170
:101F000001F0FABABDE8F04101F036BD43F0040338
:101F10004CEA0303DBB2042945EA030518BFFF2797
:101F2000B0F83A82D1E71823E4E71301DBB2A8E75F
:101F300043F006034CEA0303DBB2042945EA030538
:101F400018BFFF274FF00008BFE700BF0C2000209C
:101F500020C703202DE9F041037913F0010F0CBFD6
:101F600005240B240546980748BF06340E4659073A
:101F700044BF0134E4B21A0744BF0234E4B2DB06C2
:101F800001D4BDE8F081FFF765FF2919074600F588
:101F9000087001F055FF337B7068022B0FD0042BC3
:101FA00014BF28234FF4BC73B7F8222297F82012ED
:101FB000C01A97F82132BDE8F04102F0E1B81823C9
:101FC000F2E700BF027802F00F03073B012B00D9B4
:101FD00070470379DB07FBD5114B1B78002BF7D03B
:101FE000104B1B78002BF3D05306F1D510B5062209
:101FF0000C46411D0C4809F003F80C4A0C4801211D
:102000000DF070FB0DF048FB012303600DF086FB23
:102010000DF046FB227DC0F340031343237510BD32
:102020001EC703201DC7032003200020002000201E
:10203000F01F00200279D30701D40120704710B5AA
:102040000C46094902780978C2F38012914203468E
:1020500001D0207D10BD05480622591D08F09CFFC7
:102060000028F6D1012010BD13C70320E41F002073
:1020700010B5044600200DF013FC04F168020221A3
:1020800000200EF05BF90DF053FC0B4B1B78022B7C
:102090000ED0042B09D104F51472002108460EF06D
:1020A0004DF9BDE810400DF0FBBB04F1CD02F4E7A3
:1020B00004F1B902F1E700BF15C7032038B50020CD
:1020C0000DF0EEFBFFF7C6FE044690F82412FF2247
:1020D00001200DF0BBFC94F825020DF00DFD02F07F
:1020E00067F8A0F1280502F083F894F82432022B57
:1020F0001CD0042B17D100F5DA742A4602210020E7
:102100000EF01CF900212246054608460EF016F98D
:10211000044628460DF00CFC20460DF0C1FB054B93
:1021200000221A6038BD00F13104E6E700F11D0419
:10213000E3E700BFEC1F002038B500200DF0B0FB36
:10214000FFF788FE044690F83C12FF2201200DF0B4
:102150007DFCB4F83A0201F017FE0DF0CDFC04F25C
:1021600036200DF03BFD04F232200DF011FD02206F
:102170000DF044FB0021024608460EF0F7F8082057
:102180000DF03CFB0121024600200EF0EFF802F0BA
:1021900089F8A0F1280502F0A9F894F83C32022B46
:1021A0001AD0042B15D100F5DA742A46022100203A
:1021B0000EF0C4F800210546224608460EF0BEF88F
:1021C000044628460DF0B4FB2046BDE838400DF02B
:1021D00067BB00F13104E8E700F11D04E5E700BF4B
:1021E0002DE9F04701F06AF95F4D2860002873D0AF
:1021F000183001F053FA2B68044603F5997001F08A
:102200004DFA0546594B1B78002B35D0FFF722FEBF
:10221000574B93F800800646B8F1000F59D190F85B
:102220007890544F06F10800414603F027FAC7E9B9
:102230000401284687F818800DF040FD2246294603
:1022400038460DF07DFAB6F864004B4E01F08EFE74
:1022500080F00101C9B248460DF08EFA337893B987
:10226000464B1B7813B1464F3B78CBB9FFF7F2FDD5
:10227000C0E99245BDE8F0873F4E20460DF01EFDB7
:102280003378002BECD03E4F3B78002BEED0DFF8BC
:10229000F48098F8003023B3384B1B78002BE5D03E
:1022A000394B18780DF0C2FE2246012137480DF057
:1022B00019FA374A337801211170002BD6D0354BEB
:1022C0001B78002BD2D004200DF0DAF90DF0D6FCEB
:1022D000CCE790F87790A4E703F0ACFB2E4D2F4CA1
:1022E00090E72F492F48DFF8C090062208F088FEBB
:1022F00001212E4A25480DF0F5F90DF0CDF94FF0EA
:10230000010AC0F800A00DF009FA0DF0C9F9C0F3F8
:10231000400089F800000621214888F800A00EF04E
:102320004FF820B999F80080B8F1000F11D00DF0E6
:10233000B3F9804640200DF061FA41460DF032FEBF
:10234000114B1B4A187040210C4B118001221A704E
:102350008AE70D4E30780DF0F7FEFF233370074B00
:1023600083F8008082E700BF0C20002019C70320FB
:102370008C040020D008002017C703201EC70320AC
:102380001DC7032018C703208F040020F01F002062
:1023900011C7032016C7032010200020142100209D
:1023A000E41F00200320002012C70320002000208B
:1023B00008C703202DE9F04F85B00446FFF74AFD1A
:1023C000834B844FDFF810A23978A173D3E904233B
:1023D000C4E906230546D0F848229AF80000A07404
:1023E0005378B3FA83F67609E67410B1181E18BF55
:1023F0000120E37B607405F10808002B40F0CF80DA
:1024000005F1A4090B464846414602F01BF8734B00
:102410001E683B7883F001033B70D5E992B30193CA
:102420000EB101F069F8FFF7DBFE3B78002B00F0FE
:102430008F8095F877700DF04DFB002800F08F80AD
:10244000022FA26800F0A480042F00F0A58002F102
:10245000C40309221A44002108460DF06FFF0DF055
:102460001FFA01F0F7FD0121A0F19C0200200DF000
:1024700065FF0DF04FFAE27B52B1019B9AF8002004
:102480005B780AB9032B03D9013B019ADBB2D2581E
:102490002146304602F062FB002E00F09080FFF7EC
:1024A000D9FC217B0746002341FA03F212F0010216
:1024B00040F08A800133082BF6D1206994F812A0ED
:1024C000E37B20F47F0020F47F400028A07B4FEACC
:1024D000400040EA8A0040EA020014BF4FF0080AB8
:1024E0004FF0000A4AEA000A5FFA8AFA4AEA030A47
:1024F000F378627B042918BFFF2233BB06F1180072
:10250000019201F0CDF87B88019A5146064601F010
:10251000F5F8237B6168022B54D0042B14BF2823C9
:102520004FF4BC73C91A304601F0D4F9E27BA37BA7
:10253000002A3DD15A464146484602F02DF8284B24
:102540000F221A7005B0BDE8F08F06F59970D7E735
:1025500095F878700DF0BEFA00287FF471AFA2688C
:102560000390683202210DF0E9FE9AF80020039BE7
:102570000290002A14BFFF22FB22184639460DF0B4
:1025800065FA02980DF0D4F9022FA2687FF45CAFCF
:1025900002F1B40305225DE702F514725BE7114610
:1025A0004046224603F008F8D5F84822A17B27E7E9
:1025B0001A462846594603F0B3F8A37BBAE701F060
:1025C000DBF9B3E71823ADE71B015AB275E700BF8B
:1025D000D00800208C04002019C703200C20002004
:1025E00020C703200B4B10B5002018700DF052FED1
:1025F00002200DF003F9044601200DF097F8014682
:1026000020460DF0CFFC044B1870BDE8104003F0DD
:102610000FBA00BF20C7032010C7032010B40378EF
:10262000064C0749074A03F001002070C3F340003D
:10263000C3F3800310BC0870137070478E04002031
:102640008D0400201FC7032010B40378064C0749EF
:10265000074A03F001002070C3F34000C3F3800376
:1026600010BC0870137070471AC703201CC70320E2
:102670001BC7032010B50A4C01461022204608F063
:10268000BFFC102120460DF09BFE064C0649074A70
:10269000002380F0010020700B70137010BD00BF8C
:1026A000F01F00201DC7032012C7032018C70320F6
:1026B00070B50C460546FFF7CDFB0D4E083002F015
:1026C00077FF2146284602F035FA10222946304687
:1026D0000DF086FE0822214606F1190008F090FC54
:1026E000044B18780DF0A2FC034B01221A7070BD48
:1026F000D008002010C7032019C7032008B5044BD9
:1027000018780DF0FDFC034B00221A7008BD00BFC5
:1027100010C7032019C7032070B5194E337853BB77
:10272000184A194B194D002414701C700DF0B2FAA0
:1027300028780DF0E5FC164B1C700DF0D3F90CF069
:10274000C3FF144B18780DF0DBFC134B28781C707A
:102750000DF0FAFC114BFF2220462A701C700DF080
:10276000E1FB01200DF0DEFB0D4A0E4B3470012120
:1027700011701C6070BD00200DF092F8D0E700BF12
:1027800020C7032018C7032012C703208F0400208E
:1027900017C7032010C7032019C703201EC7032033
:1027A0008C0400200C20002010B5FFF7B5FF264850
:1027B0000DF0F4F801200DF0DFF840200DF0D8F90D
:1027C0000CF06AFF04464FF480700DF017F82146B4
:1027D0000DF0E8FB1D4B1A781D4B002A18701D4A9E
:1027E0001D481E4B4FF4807C4FF0010414BF0421A0
:1027F0002146A2F800C00470FF22204619700DF097
:1028000025F901F073F90DF077F915480DF0E6F9A7
:1028100014480DF0BDF902200CF0F0FF0021024633
:1028200008460DF0A3FD08200CF0E8FF2146024603
:1028300000200DF09BFD00200DF07AF8FFF7D0FC92
:10284000094B1C7010BD00BF152C00001FC70320D2
:102850008F04002008C703201EC7032015C70320CC
:102860000C1401000814010020C7032070B50D46A8
:102870000446FFF751FF2648264E0DF08FF8012041
:102880000DF07AF8062229462348347008F0B8FB88
:10289000214930780DF0D4F9204B1D780DF0E4F982
:1028A0001F4A204B127820481D70002A1F4B4FF002
:1028B000010414BF04212146FF2204702046197030
:1028C0000DF0C4F801F012F90DF016F918480DF0EA
:1028D00085F918480DF05CF90DF0F2F802200CF0C3
:1028E0008DFF0021024608460DF040FD08200CF047
:1028F00085FF2146024600200DF038FD00200DF036
:1029000017F8FFF76DFC0C4B05221A7070BD00BF65
:10291000152C000013C70320E41F00201CC7032050
:102920001BC7032016C7032017C7032015C70320A2
:102930000C1401000814010020C7032008B5FFF79C
:1029400089FAB0F83A220132A0F83A2203F05CF892
:1029500001F0F4FC28B9FFF7EFFB064B0C221A70CC
:1029600008BD054B05491878FFF780FF014B05228C
:102970001A7008BD20C7032013C70320E41F0020DE
:102980002DE9F0410446FFF765FA06460DF09CF983
:102990002146077890F804800546FFF713FB204690
:1029A000FFF75CFAE37B1BB9BDE8F041FFF7C6BF58
:1029B000304602F0C3FFE37B002BF5D007F00F0792
:1029C000072FF1D121462846FFF734FB0028EBD032
:1029D00018F0100FE8D021462846FFF7BBFAFFF7A2
:1029E0006DFB024B0D221A70BDE8F08120C7032059
:1029F000F8B500200DF0AAFA00200CF051FFFFF707
:102A000029FA438801334380044602F05DFF304BCE
:102A100001221A7001F090FB00283FD1204602F0FD
:102A200063FE054600283CD1608801F02BF90DF0CB
:102A300063F8284B94F877601B78002B14BFFF22B3
:102A4000FB22284631460DF001F801F003FBA0F10E
:102A5000280501F029FB022E30D0042E2AD100F5E2
:102A6000DA772A46022100200DF068FC00213A4660
:102A7000064608460DF062FC054630460CF058FF4D
:102A800028460CF00DFFB4F8640001F06FFAC8B1ED
:102A90000DF016F8104B0E221A70F8BD204602F009
:102AA00023FE02F0CDFF0D4B0D491878BDE8F8402C
:102AB000FFF7DCBE283009270744D2E71830052786
:102AC0000744CEE70DF00EF8034B0E221A70F8BD46
:102AD0008C04002019C7032020C7032013C703203C
:102AE000E41F0020F0B583B00646FFF7B3F90446B3
:102AF0000025FFF711FE01200DF000FA2046658049
:102B000002F002FE02F000F804F1080002F03CFDC1
:102B100004F1500104F1A40001F032FC3A480CF039
:102B20003DFF01200CF028FF04F16B000DF056F87A
:102B300004F16E000DF02CF8344B94F877701B788C
:102B4000AB4214BFFF22FB22394628460CF07EFF21
:102B5000304694F86A6094F85F30B4F86220B4F8B4
:102B600064100196B4F86860009601F005FA02203E
:102B70000CF044FE2946024628460DF0F7FB0820DB
:102B80000CF03CFE0121024628460DF0EFFB608868
:102B900001F078F80CF0B0FF01F05CFAA0F1280623
:102BA00001F082FA022F2BD0042F23D100F5DA7521
:102BB0003246022100200DF0C1FB00212A460646C4
:102BC00008460DF0BBFB054630460CF0B1FE28462A
:102BD0000CF066FEB4F8640001F0C8F968B10CF0BE
:102BE0006FFFFFF7FDFA02F029FF094B0E221A7062
:102BF00003B0F0BD00F13105DAE70CF073FFF0E748
:102C000000F11D05D4E700BF152C000019C70320F3
:102C100020C703202DE9F0418AB004460CF038FFAC
:102C20008DF814000CF044FF0021034608468DF88F
:102C3000153002940DF0B8FB9DF81430022B4CD0E7
:102C4000042B45D1A0F13C030121002003930DF09A
:102C5000ABFB9DF814309DF81520022B3BD0042BC4
:102C600034D1002A0CBF1E23192302990022C31A53
:102C7000080704938DF817208DF818208DF81C2074
:102C80002DD4A34D2B7843B1A24A029B12881A423D
:102C90005DD10CF019FD00232B709F4D204602F0F2
:102CA000D1FE2B78013B0E2B3FD8DFE813F0590003
:102CB00075009000A600DE00B900EF000101470199
:102CC000C6012700750192019E01BA010923CCE7D4
:102CD0000923C31AB8E70523C7E70523F9E70CF072
:102CE00093FF8E4B8DF817001B78002BC9D00CF08A
:102CF00071FD0CF077FD8DF81800C2E7029B1F07ED
:102D000000F1CD8100200DF021F900200CF0C8FD6C
:102D1000834BFF22197801200CF098FE00F0E6FEAC
:102D20000CF0EAFE00200CF003FE7E4A052310683A
:102D30002B7038B10CF0EEFD2B780F2B02D10AB0BE
:102D4000BDE8F081FFF74CFA0AB0BDE8F0810CF065
:102D5000E5FC0CF0A5FCC0F340008DF81C0098E7E2
:102D6000029B190700F129826E4C23681BB11B6876
:102D7000002B40F0918200200DF0E8F800200CF0CC
:102D80008FFD00F0BDFE0CF0B7FE00200CF0D0FD72
:102D9000012320682B70CCE7029B1A0740F1758154
:102DA00002A8FFF75BF80CF08FFF5F4B1B7893B125
:102DB0009DF817307BB1047804F00F04032C0AD17E
:102DC0000498FFF755F9574B2C701868B1E7029B30
:102DD0001B0700F1938100200DF0B8F800200CF0E3
:102DE0005FFD00F08DFE0CF087FE00200CF0A0FDD2
:102DF0004C4A012310682B709BE7029B1F0700F1D0
:102E0000748100200DF0A2F800200CF049FD444B25
:102E1000FF22197801200CF019FE00F067FEE2E7AE
:102E2000029B1C0700F1A5813E4C23681BB11B6867
:102E3000002B40F027823D4B1E780CF015FF3C4ADA
:102E40003C4B1670002001221A700DF07FF8002014
:102E50000CF026FD00F054FE0CF04EFE00200CF0AD
:102E600067FD052320682B7063E70CF02DFF029BA4
:102E70001E07044600F14B812A4C206818B10368F4
:102E8000002B40F0FF8105232B7052E7029B1807AF
:102E9000CAD599069DF81C2004D5274B1B78002B1A
:102EA00018BF1A4602A88DF81C20FEF7D7FFBBE713
:102EB000029B19077FF526AF0CF006FF0678C7784E
:102EC00090F8048006F00F0602A90446FFF77AF88E
:102ED000072E7FF417AF02A92046FFF7ABF80028B2
:102EE0003FF410AF02A8FEF7B9FF9DF81730002B92
:102EF0003FF408AFBB09013B012B40F27B8218F085
:102F0000200F40F0478218F0100F3FF4FBAE38E07E
:102F100011C7032008C7032020C7032019C70320B7
:102F200015C70320EC1F00208E0400201CC70320BF
:102F300016C7032017C7032012C70320029B1F07D1
:102F40007FF5E0AE0CF0C0FE02A9077906780446D2
:102F5000FFF738F802A8FEF781FF9DF81730002B25
:102F60003FF4D0AE06F00F06072E7FF4CBAE02A9D9
:102F70002046FFF75FF800283FF4C4AEFE067FF559
:102F8000C1AE204602A9FEF7E5FFFFF797F8B44A65
:102F9000092310682B70CCE6FEF75CFF029B1C0730
:102FA00040F1548190F83C320398022B00F072817A
:102FB000042B14BF28234FF4BC73C01A01F060F92E
:102FC00002A8FFF7DDFCA64B186800287FF4B2AE1C
:102FD000B2E6029B190750D502A8FFF7D1FCA04B1F
:102FE000186800287FF4A6AEA6E6029B1A0772D5E1
:102FF0009DF814300398022B00F04A81042B14BF73
:1030000028234FF4BC73C01A01F078F801F08EF851
:1030100002A8FFF7CFF9924B186800287FF48AAE18
:103020008AE6029B1B0732D502A8FFF7C3F98C4B37
:10303000186800287FF47EAE7EE6029B1B077FF5B2
:1030400061AE02A8FEF70AFF0CF03EFE9DF81730B5
:103050000446002B3FF456AE037803F00F03052B14
:1030600000F06D81032B7FF44DAE0498FFF700F85C
:103070007B4A0B2310682B705BE6FFF75FFC784BF5
:10308000186800287FF456AE56E6754C73E6FFF7D5
:10309000AFFC734B186800287FF44CAE4CE60CF084
:1030A00013FE02A90446FEF78DFF02A8FEF7D6FE26
:1030B0009DF81730002B3FF425AE237803F00F0363
:1030C000082B00F01581072B7FF41CAE2379DE0658
:1030D0007FF518AE55E701F021F8FFF789FC604B4A
:1030E000186800287FF426AE26E60CF0EDFD02A954
:1030F000FEF768FF02A8FEF7B1FE82E60CF0E4FDE1
:1031000002A9FEF75FFF02A8FEF7A8FE63E60778B4
:1031100002AE07F00F083146FEF754FFB8F1070F73
:1031200000F01781029B980640F1EA804D4B9DF814
:103130001C201F704C4B1B78134330468DF81C30FD
:10314000FEF78CFE9DF817302BB3B8F1020F22D09A
:103150000CF0A0FD454B18780CF0D2FF444B0498BE
:1031600000221A70FEF784FF3D4A062310682B7078
:10317000DFE502A8FEF772FE0CF0A6FD037803F06F
:103180000F03052B00F09880032B04D19DF8173016
:10319000002B40F0C580374B1C780CF065FD36499C
:1031A000334B0C70012200201A700CF0CFFE00206F
:1031B0000CF076FB00F0A4FCB2E50CF085FD02AE4D
:1031C00031460446FEF7FEFE3046FEF747FE0CF0A1
:1031D0007BFD2A4A0378127803F00F03002A61D09E
:1031E0009DF81720002A3FF4F6AD002B00F09080E8
:1031F000062B00F08D80224A1278002A3FF4EBADB6
:10320000072B7FF4E8AD00200CF0A0FE00200CF0AE
:1032100047FB00F075FC0CF06FFC012700200CF060
:1032200087FB314620462F70FEF794FE00F0C0FF6A
:10323000283800F0DBFF0121024600200DF07EF867
:10324000074B186000287FF475AD75E501F022F892
:10325000FFF774FB024B186800287FF46BAD6BE539
:10326000EC1F002014C7032012C703208F04002086
:1032700017C703201CC7032016C703208E04002095
:103280008D040020FEF71AFF082320682B7050E5FC
:103290001823B8E6182390E6FEF710FF04232068F1
:1032A0002B7046E56A4A1278002A3FF494AD9DF8E7
:1032B0001720002AA4D18EE59DF81730002B3FF48B
:1032C0006AAF644B187800287FF465AF0CF0E8FA19
:1032D0000CF0FAFC0446FEF7BDFD5F4B22781B782C
:1032E00013402146C3F340130122503000F05AFD31
:1032F0000498FFF7F7FB594A0E2310682B7018E566
:103300009DF81C30002B3FF410AD534A177014E7A2
:103310000498FEF7ADFE514A022310682B7008E5B1
:103320000CF0A2FC4E4A4F490498012313700B7015
:10333000FEF79EFE494A072310682B70F9E4FEF75A
:1033400089FD012390F824222146503000F02AFD07
:103350008BE631462046FEF76DFE00283FF4E5ACD3
:103360003046FEF77BFD9DF81730002B3FF4DDACB7
:1033700000200CF0EBFD00200CF092FA00F0C0FBF6
:103380000CF0BAFB00200CF0D3FA0523314620469E
:103390002B7049E7FEF75EFD039F06460CF094FC98
:1033A000037913F0010F0CBF05240B249A0748BFC3
:1033B00006348046580744BF0134E4B2190744BFBD
:1033C0000234E4B2DA0644BF0334E4B29B0619D4F3
:1033D000B6F82642002C3FF495ACFEF7ADFE0C2368
:1033E00030462B7002F0A6FA1C4B186800287FF4B8
:1033F000A1ACA1E40498FEF73BFE184A0A2310682A
:103400002B7096E4FEF726FD08EB0401044600F25B
:10341000262094F8242200F031FD94F82432022B67
:1034200014D0042B14BF28204FF4BC70381AB4F801
:103430002A7294F82832B4F8262294F831120197AF
:1034400094F82942009400F0F1FEC1E71820EDE75E
:103450008D0400201AC7032014C70320EC1F00208E
:1034600017C7032016C7032008B500220321104602
:103470000CF07CFFBDE80840032100200CF094BF55
:103480000249034A00230B80138070470AC70320B8
:103490000CC70320064B074A1B8812889A421DBF9F
:1034A00005484FF4147202FB03000020704700BF70
:1034B0000AC703200CC70320F8080020034A044B66
:1034C00012884FF4147000FB023070470CC70320C1
:1034D000F8080020064A074913880988994205D050
:1034E000072B1ABF01339BB200231380704700BF24
:1034F0000AC703200CC70320044A1388072B1ABFEE
:1035000001339BB200231380704700BF0CC7032018
:1035100030B583784578012B8CBFB0F900502DB2BF
:1035200083B003350446ADB201A80CF079FB01A9C4
:10353000601903220CF054FFA91C635C1A0142EAD3
:103540001312C2F38500930003F0CC0300F03302A2
:1035500013435A105B0002F0550223F05503134346
:103560006354691C635C1A0142EA1312C2F38500BA
:10357000930003F0CC0300F0330213435A105B00B6
:1035800002F0550223F0550313436354635D1A019F
:1035900042EA1312C2F38501930003F0CC0301F059
:1035A000330213435A105B0002F0550223F0550317
:1035B0001343635503B030BD38B50B4C237803B1CA
:1035C00038BD0A4A0A4803F0FF0501232370136837
:1035D0001B0A03711368C37006210133136000F0E6
:1035E0004BFA257038BD00BF21C7032014220020EC
:1035F0000C00002070B50E4C237803B170BD0D4A4D
:103600000D4D0E4903F0FF060123237013681B0ABA
:103610002B711368EB7001331360A81D052207F0AE
:10362000EFFC0B21284600F027FA267070BD00BF82
:1036300021C70320142200202000002010140100C4
:1036400070B5124C237803B170BD114A114DD0F8FA
:1036500006000123237013681B0A2B711368EB709B
:103660000133136000F034FA0A21020C030E0646FF
:10367000E88028462A726B7200F0FEF918B116B184
:10368000304600F031FA0023237070BD21C70320BB
:103690001422002000000020704700BF1530704742
:1036A00004291CBFFF2300F8013B704710B50378C5
:1036B000FF2B044603D18379062B0BD00134A3786A
:1036C0006178012B13D9218820460631BDE81040CE
:1036D00000F0D2B9153000F075FEA37D22781433C6
:1036E000D9B2FF2A4FEA13236170A370E6D089B2E2
:1036F00020460631BDE8104000F0BEB9F0B5214EBD
:103700001546327883B00AB103B0F0BD1E4AC171CC
:103710001F460123337013681B0A03711368C370BB
:10372000FF2D03F1010313600CBF427D827D4FF03A
:103730000A030CBF143215328371032383700270A5
:103740000623120A4270437104460CF003FA2072F9
:103750000CF006FA3B0AE3726072A77201A80CF043
:1037600029FA04220DEB020104F110000CF038FEDE
:10377000FF2D18BF25752046FFF7CAFE00233370C2
:1037800003B0F0BD21C703201422002070B50C4601
:10379000054601461522204607F032FC2B78FF2B08
:1037A00004BF01340023607DE27918BF0123034484
:1037B00003F1140603F11B0103F1170008BF0135E3
:1037C00042F0080236B2E27129442044032207F095
:1037D00017FCC6F307232670637070BD38B50E4C16
:1037E000237803B138BD0D490D4A03F0FF050123CD
:1037F00023700B68D0801B0A13710B68D3700133E0
:103800000B60010C030E117253720A21104600F076
:1038100033F9257038BD00BF21C7032014220020D2
:103820001400002008B500F003F9034660B10068F9
:1038300081784278012988BF0288596898BF92B27E
:10384000931D8B4218BF002008BD00BF4079704710
:1038500038B50446154606220846A1180CF0C0FDEE
:10386000237B2B7038BD00BF90F802C04378BCF1B9
:10387000010F8CBF03889BB2073B0D3013700860AB
:10388000704700BF0B461022811D184607F0B8BBD9
:103890000630704706307047063070470630704774
:1038A0008379CB70C3790B70037A4B70437A8B703A
:1038B000704700BF90F802C04378BCF1010F88BF89
:1038C000038810B488BFDBB2841D13700C6010BC79
:1038D000704700BF4FEA112C0A0C0B0E017380F8E1
:1038E0000DC08273C3737047F0B5214E1546327810
:1038F00083B00AB103B0F0BD1E4AC1711F46012357
:10390000337013681B0A03711368C370FF2D03F132
:10391000010313600CBF427D827D4FF00A030CBF90
:103920001432153283710323837002700223120A4A
:103930004270437104460CF00DF93B0AE3722072A9
:10394000A7720CF00DF9607201A80CF033F9042293
:103950000DEB020104F110000CF042FDFF2D18BF29
:1039600025752046FFF7D4FD0023337003B0F0BD6A
:1039700021C7032014220020704700BFC10710B5E3
:10398000044607D4A20711D4630702D50C4B0122C9
:103990001A7010BD0BF01CFE0A4A094B0121117070
:1039A00000221A700BF01CFEA207EDD50BF010FEE2
:1039B0000349044A00230B7013700BF011FEE3E778
:1039C00024C7032023C7032038B5114C1148124DDA
:1039D0000BF00AFE4FF48062204610490CF01AFDED
:1039E00021460F480CF01CFE28464FF460320D496A
:1039F0000CF010FD29460C480CF012FE2A46214618
:103A00000A4802F0F5F8BDE8384002F0D5B800BF2A
:103A1000A026002022C70320C8A60320A022002041
:103A2000B0260020C8260020BC2600207D390000DA
:103A300010B50D4C0D4A0E4821468023C4E90023E1
:103A40000CF04CFE002808BF002402F01BF908B15E
:103A5000204610BD07480CF0EBFC0028F8D102F01E
:103A600003F9204610BD00BF982200201822002034
:103A7000B0260020A026002030B5034683B01148B0
:103A8000CDE900310BF0B4FD044610B9204603B077
:103A900030BD68460CF0CEFD05460B480CF0EAFC44
:103AA00085420AD901F0C8FF002406480BF0B0FD9A
:103AB00002F0C8F8204603B030BD044869460CF057
:103AC000D5FDF2E722C70320C8A60320BC260020AC
:103AD000B0F5E12F034604D00248834218BF00200E
:103AE0007047704740420F00704700BF024A034BC7
:103AF000002118781170704725C703202C00002082
:103B00000549064A0B78D0780133B3FBF0FC00FB83
:103B10001C330B70D05C704725C703202C0000209D
:103B2000014B0068186070472C000020F0B5B3F816
:103B300002E01B889EFA9EFE5BBA8EEA030E1FFA15
:103B40008EFE82EA0E06044603220023370A9C46B4
:103B500047FA0CF0CCF1070500F00100A8400CF189
:103B6000010C0343BCF1080FDBB2F1D11B020025AD
:103B70000FFA83FCF7B2284647FA00F3C0F10706B4
:103B800003F00103B34001302B430828DDB2F3D129
:103B90004CEA05039BB203EB03137344013A9EB254
:103BA000D3D1104D8EEA0603A5FB03255A1B05EB66
:103BB00052056D0905EBC50205EB82055D1BC5F3DA
:103BC000C402E8B2A45C05F00705012202FA05F57B
:103BD0002C4205D191F8256006FB03F31B14C85C49
:103BE000F0BD00BF4D91CFBA0F4A30B500230F4D45
:103BF000106000F1220E01241846C3F3C40103F043
:103C000007021EF8011004FA02F211425FFA83FC67
:103C100003F1010303D0421C05F800C0D0B2252BEC
:103C2000EBD185F8250030BDD8A60320E0A60320FF
:103C300030B51149114C124D08600022227000F17C
:103C4000220E134610460124C3F3C40103F00702F9
:103C50001EF8011004FA02F211425FFA83FC03F12C
:103C6000010303D0421C05F800C0D0B2252BEBD1D4
:103C700085F8250030BD00BFD8A6032026C7032045
:103C8000E0A60320184B1B68997B024603F1220033
:103C900019B116491E33FFF749BF154993F810C0F3
:103CA0000B78144A634482FB03C21A44521102EB9C
:103CB000C20C02EB8C029B1ADBB2DA0803F0070C91
:103CC000805C0B70012202FA0CF2104201D01846FF
:103CD0007047064A92F82500B3FBF0F100FB113360
:103CE000DBB2D35C18467047D8A60320E0A60320B9
:103CF00026C70320A7C867DD0F4A30B500230F4D44
:103D0000106000F1060E01241846C3F3C40103F04D
:103D100007021EF8011004FA02F211425FFA83FC56
:103D200003F1010303D0421C05F800C0D0B2252BDB
:103D3000EBD185F8250030BDDCA6032008A70320C1
:103D40000F4A30B500230F4D106000F1060E01241C
:103D50001846C3F3C40103F007021EF8011004FA69
:103D600002F211425FFA83FC03F1010303D0421C0B
:103D700005F800C0D0B2252BEBD185F8250030BD69
:103D8000DCA6032008A70320044B05490246186857
:103D900000F10C030630FFF7C9BE00BFDCA603200C
:103DA00008A70320F8B504460D461646033106223F
:103DB00007301F4607F024F92946062211F8093B6F
:103DC000C3F380136373204607F01AF929460422CF
:103DD00011F80F0BA773C309A37104F11E000CF0B7
:103DE000FFFA05F11301032204F11B0007F008F9A3
:103DF000AB7DE373B5F817306382B5F81930A38251
:103E0000B5F81B30E382B5F81D30238305F11F019F
:103E100004F12200052207F0F3F895F8243003F0AE
:103E20001F03237495F8243084F827605B09A37678
:103E300084F828602046BDE8F840FFF7F9BE00BFCF
:103E40000B7803F03F0343710B78C3F380130370C7
:103E50000B78DB094370B1F80130C3F30C034380E6
:103E60008B785B09012B05D0022B14BF012304239F
:103E70000371704702230371704700BF70B50B8850
:103E8000C3F30C0303804B78C3F3401383704B7868
:103E9000C3F38013C3700D464B88838016460422FB
:103EA00004461144063007F0ABF82B7A03F01F03E9
:103EB000A3722B7A5B09E37205F1090104F10C008E
:103EC00004220CF08DFA05F10D0104F1100003221B
:103ED00007F096F82B8AA675A3822046BDE87040AD
:103EE000FFF70ABF10B500F242210446052200F593
:103EF0000B7007F085F804F22620BDE81040FFF7AC
:103F00001FBF00BF0346503093F8A020B3F89CC0F9
:103F1000B3F89E10A3F872C0A3F8741083F876204B
:103F2000FFF762BE00B58E46CA7BC2738446498ADB
:103F3000BEF81400BEF81830BEF816E0ACF816E073
:103F4000ACF812105DF804EBACF81400ACF81830C3
:103F500000F04EB891F827300BB180F8273091F877
:103F600028300BB180F82830704700BFB0F5506F93
:103F700094BF00200120704710B594469DF80C2096
:103F8000194CBDF808E002F00F02B1F5506F34F89B
:103F90001220164C62844FF00002C4E9062240F25F
:103FA000E2422060A062A2601AD94FF47A7202FB4A
:103FB00001F1A1F54B11A1F5006140F2E24261600F
:103FC00002FB0CF103FB02F242F21073002003FB30
:103FD0000EF3C4E903126362606184F8200010BD2F
:103FE00002FB01F1E9E700BF1C14010030A7032028
:103FF00010B4174CD4F804C0C4F81CC0B0F5506F0E
:10400000D4F814C0C4F818C01CD94FF47A7C0CFB47
:1040100000F0A0F54B10A0F50060606089B240F29E
:10402000E24000FB01F100FB02F242F2107000FBE3
:1040300003F30020C4E903126362606184F8200086
:1040400010BC704740F2E24C0CFB00F0E5E700BF0B
:1040500030A70320124A1349D2F818C0D0699368D8
:104060000CFB0000D2F80CC09C44604492F8203055
:10407000D2F814C06344D2F804C00CFB0300538C84
:10408000126832339BB200FB03F303F57423203A2A
:1040900003F23F231044A1FB0323A0EB934070479E
:1040A00030A7032083DE1B43124A1349936830B4C0
:1040B000D2E9064004FB0000D46815691C44204482
:1040C00092F8203054692344546804FB0300538C55
:1040D000146832339BB200FB03F3621903F57423B7
:1040E000203203F23F231044A1FB032300EB934053
:1040F00030BC704730A7032083DE1B43064B0022F1
:104100000121C3E90322C3E906225A6118609A60BB
:1041100083F82010704700BF30A70320024A53697C
:1041200001335361704700BF30A70320014B1A6869
:104130009A62704730A70320104B93F820205869EB
:10414000BAB110B4D3E902411A6822440A449C6A05
:104150005968121B00FB0110D3E90641104404FB0F
:1041600001115B6A10BC084483428CBF002001200F
:104170007047052894BF00200120704730A7032016
:10418000002B01F00301084B10B4084C33F8113038
:10419000206014BF4FF02C0C4FF01E0C84F806C0AA
:1041A0002381A28010BC7047181401005CA7032073
:1041B00010B40C490C4C0B8988888A79323300FB87
:1041C00002F29BB202FB03F3086803F57423203864
:1041D00003F23F231044A4FB0323A0EB934010BC45
:1041E000704700BF5CA7032083DE1B436438704721
:1041F00010B40C490C4C08898B798A88323002FB48
:10420000033280B20B6802FB00F000F5742000F26C
:104210003F202033A4FB0010134403EB904010BC5C
:10422000704700BF5CA7032083DE1B4310B5002B43
:1042300001F00F01104B9DF8084033F811100F4B9F
:10424000BDF80CC0186014BF4FF4967E4FF01E0EE0
:104250009981002C40F2E2414FF0000014BF4FF46E
:104260001614002401FB0CF19882A3F806E09A8052
:104270009C60196110BD00BF1C14010068A70320D9
:10428000034B00220121C3E900029A609982704722
:1042900068A70320024A537D01335375704700BF5E
:1042A00068A7032010B40F4A0F4C9388D1889068F8
:1042B00001FB0300537D117D1944136903FB0100C9
:1042C0009389126832339BB200FB03F303F5742326
:1042D000203A03F23F231044A4FB0323A0EB9340B6
:1042E00010BC704768A7032083DE1B4300B5114B49
:1042F000597D1A7DB3F806C0B3F804E018690A4482
:1043000099680CFB0E1100FB021298891B680A4980
:10431000323080B202FB00F000F574202033634499
:1043200000F23F20A1FB0010134403EB90405DF826
:1043300004FB00BF68A7032083DE1B43034B587DAB
:10434000052894BF00200120704700BF68A7032004
:1043500010B5102204460021074806F091FE1022F5
:10436000002104F1170006F08BFE044821460BF0F3
:1043700057F9A4F8BC0010BD60A80320194900003B
:1043800070B500250E460446062207310571857179
:1043900080F8BE5000F5947006F032FE737B84F80E
:1043A0002E310622314604F5BA7006F029FEB379A3
:1043B00084F87A3184F8C05084F8BF5084F8C25031
:1043C00070BD00BF2DE9F041037813F003052ED135
:1043D00090F903204678C378002A044629DA13F0BE
:1043E000400F00F1040106F1020200F10A0003F09F
:1043F0003F070CBF4FF01B084FF0520806F0E6FDD8
:10440000062384F8078027726572194622783344A0
:10441000043B1BB242F00202C3F307203144227076
:10442000E37004220023617020716271A371BDE802
:10443000F081C11CF21C073006F0C8FD04231946A8
:10444000E4E700BF70B5054614461E460BF0DCFBE2
:104450002C606E7163782BB120B1237803F00303D5
:10446000032B00D070BDE378052B07D00B2BF9D1BF
:10447000002EF7D1BDE87040FEF740B905F1B30159
:1044800005F12700BDE87040FEF712B92DE9F041B3
:1044900000F1E8073B4904464022384606F07CFD1F
:1044A00004F59A78374940220646404606F074FDE6
:1044B0000546BEB9002848D04146334820220BF0BB
:1044C0008FFF324804F5AA7120220BF089FF0123E7
:1044D000B4F8BC0084F8C06084F8BF30BDE8F04197
:1044E0000BF0BAB8A8B93946274820220BF078FF5C
:1044F000264804F5847120220BF072FF0123B4F8E2
:10450000BC0084F8C05084F8BF30BDE8F0410BF027
:10451000A3B81F494022384606F03EFD00BB1A48AA
:10452000202241460BF05CFF1848202204F5AA71B6
:104530000BF056FF0123B4F8BC0084F8C03084F8B7
:10454000BF30BDE8F0410BF087B81249202204F1DA
:10455000C3000BF045FF012384F8BE30BDE8F081B5
:104560000B494022404606F017FD0028F6D10648C8
:10457000202239460BF034FF0448202204F58471D0
:10458000D6E700BF4C140100E0A7032000A80320D9
:10459000A0A703208C1401002DE9F04385B0044648
:1045A00015461E460F460BF02FFB256066716B7893
:1045B000804676B104F1E40943B12B7803F003039C
:1045C000022B3CD0032B10D0012B05D005B0BDE849
:1045D000F08304F59879EFE7B8F1000F40F09B8085
:1045E00089F84B8005B0BDE8F083B8F1000FEDD03D
:1045F000EE78042E00F0C780062E00F0BF80032E58
:10460000E4D1291D082204F1810006F0F9FC2046BE
:10461000022250F8891B0C3106F0F2FC20460822D9
:1046200050F88B1B0E3106F0EBFC2046042250F8AC
:10463000AB1B163105B0BDE8F04306F0E1BCB5F8A0
:104640000530A9F80030B8F1000FC9D0062BC7D14A
:10465000EB7989F80230013B002E00F0AB800B2B88
:10466000BED801A252F823F011470000E145000036
:10467000E1450000FB460000E1450000E546000082
:10468000E1450000CF460000E1450000E1450000A3
:10469000E1450000994600000123A3716B7805F104
:1046A00008015D1FEDB2402D2E46A8BF40263246C0
:1046B00009F1040006F0A4FC89F803606379002B7B
:1046C0008ED13F2D8CD92046FFF7E0FE88E705F11B
:1046D0000801002E00F09D80102204F1410006F038
:1046E0008FFC7DE7002E7FF47BAF102205F10801DF
:1046F00004F1170006F084FC72E705F108011022AE
:10470000002E00F0948004F1610006F079FC67E768
:104710000123237164E73146384600F0A3FF20B13E
:1047200099F84B30002B7FF45BAFB9F80030062BC3
:104730007FF456AF6379002B68D004F1E406B378B8
:104740000C2B7FF44DAF2168F3784D78EA18402A9E
:10475000C4BFC3F14005EDB20433F0182A4603315B
:1047600006F04EFCF3782B44DBB2F3706279002A3A
:104770007FF436AF402B7FF433AFA4E705B0BDE83C
:10478000F04300F0D1B9291D082204F1930006F08E
:1047900037FC2046324650F8AF1B0C3106F030FC97
:1047A000B4F8BC00012384F8C23005B0BDE8F04382
:1047B0000AF052BF0B2B3FF613AF01A252F823F0C1
:1047C00011470000E1450000E1450000FB46000004
:1047D000E1450000EB460000F1470000CF46000035
:1047E000E1450000E1450000E14500009946000078
:1047F00005F11001022204F1370006F001FC082245
:10480000A91804F1390006F0FBFBE9E604F59876F7
:1048100095E751341022204606F0F2FB684610223C
:1048200021460BF0DDFD6846FDF724FFD8E604F1D4
:10483000710006F0E5FBD3E610B583798AB0044633
:10484000D3B190F8BE300BB90AB010BD02A804F580
:10485000BA73CDE9003004F1710204F1610104F58D
:10486000947304F1C30000F047FE102206A9E01D76
:1048700006F0C6FB0AB010BD0548E31D04F1610255
:1048800004F171010AB0BDE8104000F01FBE00BF86
:1048900060A80320037970B5044693BB04F19B051F
:1048A000082204F18B01284606F0AAFB082204F135
:1048B000930104F1A30006F0A3FB042204F1AB0171
:1048C00004F1B30006F09CFB042204F1AF0104F1F3
:1048D000B70006F095FB022104F189000BF070FD92
:1048E00004F1270628B1082104F181000BF068FDCE
:1048F00050B92A4604F117013046BDE8704000F077
:104900001BBBFFF799FFC9E72A46E11D3046BDE80A
:10491000704000F011BB00BF90F8BF3010B50446E6
:10492000EBB994F8C13053B994F8C23003B910BD53
:104930002046FFF7AFFF002384F8C23010BD1249B4
:1049400012480BF033FF114820210BF053FD1048A3
:1049500020210BF04FFD002384F8C130E4E70D4B1C
:1049600090F8C00008490C4A002808BF19460B48B7
:104970000BF030FF0949202204F1C3000BF030FD99
:104980000123A4F8BE30CCE780A70320A0A7032012
:10499000C0A703202C140100E0A7032020A80320B7
:1049A0000146102201480BF01BBD00BF60A8032088
:1049B00002481022002106F063BB00BF60A803205C
:1049C00010B520220446064806F01AFB0123B4F86D
:1049D000BC0084F8C130BDE810400AF03DBE00BF05
:1049E00080A70320102217300BF0FABC10220730EA
:1049F0000BF0F6BC2DE9F04F0668394A377807EB23
:104A0000C70302EB4313D6E904A9D3E944018BB0F1
:104A1000824579EB01034FEAC70206F118043CBF57
:104A20008246894609920794FDF714FA00F10808B6
:104A30002046FEF733FE06F5997304901846089356
:104A4000FEF72CFE1AF1040306934FEAC70303EBAB
:104A50000705234B059049F1000B03EB45155B4619
:104A6000C346D0469A46049B0393059B02931D4B75
:104A7000019318F1010249F10009317800914B4688
:104A80001948904600F0C0FC4246044600904B4650
:104A90003946584600F0FAFD84B9B5F81811069B5E
:104AA000C5F810810131D14508BF9845A5F8181106
:104AB000C5F81491D7D10BB0BDE8F08F099B3B44EA
:104AC0001F46074BDDE9071003EB47170023F37080
:104AD000A7F818310BB0BDE8F04FFEF757BE00BF86
:104AE000781B002070A8032078A8032008B503498C
:104AF00003480AF095FD034B188008BD88A80320E1
:104B0000F54900000EC7032008B54FF410720448A1
:104B1000002106F0B5FA034B00221A7008BD00BF51
:104B2000781B002027C70320014B01221A70704711
:104B300027C7032010B503460C4606481022194625
:104B40000BF04EFC21460448BDE81040082206F058
:104B500057BA00BF78A8032070A8032070B491F85A
:104B60000EC0CC7B00B384F001034370D4B14B7C06
:104B700003BB1C4683700CEBCC03C4705B010F4C71
:104B8000D1E90656E35880F800C09B1AB3FA83F3C4
:104B9000C0E904565B09037182604FEACC036344A9
:104BA0005B01E25070BC7047002CFBD0034C4FEA15
:104BB000CC03F4E70C7C84F00104DBE7781B0020D5
:104BC0002DE9F84346788EB9C378057804467BB161
:104BD000037923BB254B1B7843B1254B05EBC5055A
:104BE00003EB4515B5F81831632B36D9BDE8F883CA
:104BF0008378002BFAD01830FEF750FD05EBC50581
:104C000042781B4E6D01014605F108000332304425
:104C1000354406F0F5F9A3686B60BDE8F883144FDE
:104C2000826805EBC5054FEA451807EB45156B682B
:104C30009A42DBD100F118094846FEF72FFD6A7A47
:104C400008F108013944033206F0DAF9494604F55F
:104C50009970FEF79BFDE670C8E7064B064A1C609C
:104C60001088BDE8F8430AF0F7BC00BF27C703204F
:104C7000781B002088A803200EC703202DE9F84FD9
:104C8000DFF8A081DDF828A002F10F0714460D46D9
:104C90000D2201461E4608F11100012388F810304C
:104CA0004FF0000906F0ACF94046A8F81E900BF052
:104CB000C9F898F820209AF8003053408AF800305C
:104CC00098F821209AF8013053408AF8013098F87A
:104CD00022209AF8023053408AF8023098F82320B4
:104CE0009AF803304FEA171B53408AF80330BBF1A0
:104CF000000F2ED05F464FEA091A09F101095FFA49
:104D000089F9404688F81F900BF09CF8102C5FFA48
:104D10008AFA2346A8BF10230F2C06EB0A0E05EBD8
:104D20000A0218D88CB1591E3F4B02F1FF3C0EF11C
:104D3000FF3E52FA81F11CF8010F13F8012F8C4548
:104D400080EA02000EF8010FF5D1103C4F45E4B2A5
:104D5000D1D8BDE8F88F98F8201015F80A304B40EC
:104D600006F80A30537898F821104B408EF801303D
:104D7000937898F822104B408EF80230D37898F848
:104D800023104B408EF80330137998F824104B40D1
:104D90008EF80430537998F825104B408EF8053082
:104DA000937998F826104B408EF80630D37998F80E
:104DB00027104B408EF80730137A98F828104B4094
:104DC0008EF80830537A98F829104B408EF8093045
:104DD000937A98F82A104B408EF80A30D37A98F8D4
:104DE0002B104B408EF80B30137B98F82C104B4057
:104DF0008EF80C30537B98F82D104B408EF80D3008
:104E0000937B98F82E104B408EF80E30D37B98F899
:104E10002F20103C53404F458EF80F30E4B23FF640
:104E20006AAF96E79CA80320BBA803202DE9F04FAA
:104E30003F4C83B01D460F4603F10F09014649233D
:104E4000904604F111000D2223740026DDF830A0F5
:104E500006F0D6F820464FEA191BE577A6770AF048
:104E6000F1FF4FF480730D22314604F11300A77453
:104E7000238206F005F9BBF1000F3ED0CDF804A067
:104E800004F11007C246B146A8460AE009F101093B
:104E90005FFA89F3A8F110089B4599465FFA88F8F4
:104EA00029D9D4E909202169A369266AE56A7140F4
:104EB00043406669E069724045402046C4E90412F7
:104EC000C4E906350AF0BEFF42464FEA0911102A2E
:104ED000C9B2A8BF10225144384606F091F8B8F183
:104EE0000F0FD3D808F11000C8F1100200212044A0
:104EF00006F0C6F8CAE7DDF804A0206AA269D4E982
:104F0000041341402161A06A616A42405940C4E9EA
:104F10000512E369E26A06485340E3610AF092FF32
:104F200004490422504603B0BDE8F04F06F068B8CB
:104F30009CA80320BCA803200B4611460246184635
:104F40000AF04ABF30B585B00C4615461C496A4682
:104F50000AF042FF0DF1FF30611E0DF10F0C00232E
:104F600010F8012F43EA4203844501F8013F4FEA5C
:104F7000D213F5D19DF90F302178002B16DB681E76
:104F8000224605F10F0C002300E0117843EA4103AB
:104F900000F8013F12F8013B60454FEAD313F4D10A
:104FA00094F90F30002B05DB05B030BD81F087018F
:104FB0002170E4E72B7883F087032B7005B030BDB8
:104FC0008CA803202DE9F04F9DB00D461F46079099
:104FD00008A9144628460CAAFFF7B4FF07F10F01F1
:104FE0000E0907F00F0B40F0FC803146102214A888
:104FF00006F046F818AE10ABCBF11000214618446D
:105000005A4605F0FDFFCBF10F021CAB1344802183
:1050100003F8301C002A40F0EF819DF840B09DF865
:1050200030309DF841A09DF842909DF843E09DF8F6
:1050300044C09DF845709DF846409DF847009DF896
:1050400048109DF849208BEA030B9DF831308DF80C
:1050500040B08AEA030A9DF832308DF841A089EA0F
:1050600003099DF833308DF842908EEA03030093D4
:105070008DF843309DF834308CEA030301938DF8AA
:1050800044309DF835307B4002938DF845309DF8D3
:105090003630634003938DF846309DF837304340F7
:1050A00004938DF847309DF838304B4005938DF8C8
:1050B00048309DF839309DF84B709DF84CE09DF8D4
:1050C0004DC09DF84E40534006939DF84A208DF800
:1050D00049309DF83A3082EA03089DF83B209DF85C
:1050E0004F308DF84A8057409DF83C208DF84B702A
:1050F0008EEA020E9DF83D208DF84CE08CEA020C01
:105100009DF83E208DF84DC054409DF83F208DF80D
:105110004E4053408DF84F3028469DF85050079A26
:105120008BEA05058DF860509DF851508AEA050517
:105130008DF861509DF8525089EA050531468DF889
:105140006250009E9DF853506E408DF863609DF84C
:105150005450019E6E408DF864609DF85550029E3B
:105160006E408DF865609DF85650039E6E408DF838
:1051700066609DF85750049E6E408DF867609DF8FC
:105180005850059E6E408DF868609DF85950069EF7
:105190006E409DF85A508DF8696088EA05058DF8D3
:1051A0006A509DF85B506F408DF86B709DF85C50B5
:1051B0008EEA050E9DF85D508DF86CE08CEA050CCA
:1051C0009DF85E508DF86DC06C408DF86E409DF876
:1051D0005F4063408DF86F300AF0FEFD1DB0BDE802
:1051E000F08F1022002114A805F04AFF012E5FFA6B
:1051F00086F900F00681A9F102095FFA89F3A4F1AA
:105200001009B944A9EB031904EB0708A7F1100A28
:1052100018AEA8EB07039DF8500013F80A2018F801
:105220000F1C18F80E3C42408DF860209DF852008B
:105230009DF85120434051409DF8530018F80D2C23
:105240008DF86110424018F80C1C9DF855008DF83F
:1052500062308DF8632018F80B3C9DF854204340D1
:1052600051409DF8560018F80A2C8DF86410424001
:1052700018F8091C8DF866209DF857209DF85800F5
:105280008DF86530514018F8083C18F8072C8DF857
:1052900067109DF8591043404A408DF868309DF8DA
:1052A0005A1018F8063C8DF869204B408DF86A308A
:1052B00018F8052C9DF85B0018F8041C18F8033C3E
:1052C00042408DF86B209DF85C209DF85D005140B8
:1052D0008DF86C1018F8022C9DF85E1043404A407F
:1052E0008DF86D309DF85F1018F8013C8DF86E2038
:1052F0004B40A8F1100814AA314628468DF86F30AB
:105300000AF06AFDC84584D1BBF1000F7FF473AE8B
:1053100094F800B09DF8203094F801A094F8029021
:10532000E2788BEA030B9DF821308DF840B08AEAD1
:10533000030A9DF822308DF841A089EA03099DF8FF
:1053400023308DF842905340009322798DF84330FA
:105350009DF824305340019362798DF844309DF8D4
:10536000253053400293A2798DF845309DF82630C0
:1053700053400393E2798DF846309DF8273053402F
:105380000493227A8DF847309DF8283053400593D6
:105390008DF84830627A9DF82930E77A94F80CE06D
:1053A00094F80DC0A17B53400693A27A8DF8493042
:1053B0009DF82A3082EA03089DF82B30E27B8DF8B5
:1053C0004A805F409DF82C308DF84B708EEA030EBA
:1053D0009DF82D308DF84CE08CEA030C9DF82E30B2
:1053E0008DF84DC081EA03049DF82F308DF84E40B2
:1053F00053408DF84F308FE610A8002105F040FE95
:105400000BE618AE80E700BF2DE9F04F89B01D46CE
:10541000149F9DF848B07E78DDF85490043EF6B2B3
:105420000DF10C08F11C1446824639440422404612
:1054300005F03F0505F0E4FD45EACB15082224FA06
:1054400002F38DF814503D4613998DF810408DF8F5
:1054500011300DF11500230C240E8DF812308DF84B
:10546000134005F0CDFD15F8034B174851461022A7
:1054700009F1030A05F0C4FD04F0E304294653468C
:10548000324604A8CDF80080FFF7F8FB214602ACB5
:10549000524604A800943346FFF7C8FC4146204614
:1054A000042205F079FD18B1002009B0BDE8F08FA5
:1054B0003B7889F8003089F80160BB7889F80230C0
:1054C000012009B0BDE8F08F9CA8032070B51646F6
:1054D00084B0082205460DEB02001C4605F090FD45
:1054E00031460822684605F08BFD6A46294620466B
:1054F000FFF722FD04B070BD2DE9F04393B01546CF
:105500000C4602461E46684620231D49DDF86C8085
:105510004FF00009FFF756FD01271A998DF81090FA
:1055200007220DF112008DF8117005F069FD31466A
:1055300007220DF1190005F063FD2946102208A885
:1055400005F05EFD214610220CA805F059FD0D491D
:10555000042210A805F054FD04AA694640463523EC
:105560008DF84490FFF72EFD352304AA694608F113
:1055700010008DF84470FFF725FD13B0BDE8F083EF
:10558000B0140100AC14010010B53822002104460B
:1055900005F076FD4FF0FF334FF0FF32C4E90C23E6
:1055A000C4E90623012384F82230A37210BD00BF92
:1055B00001230370704700BF2DE9F047567C91F836
:1055C00000C0917BCCF3800581F0010ECCF3C00CC0
:1055D0000EB1137C83BB01EB410300EBC3030EEB65
:1055E0004E029C7A00EBC202A4EB0C04977A1E7365
:1055F000B4FA84F4640906781C7287EA05045C72C4
:105600004C008EB1167B7EB10EF1010E0EEB4E0EEC
:1056100000EBCE0650F83EA0D6F80480D2E9046E26
:10562000F04508BFB24511D0214400EBC10080F81D
:105630000AC0C572BDE8F087D2E906234C1C04EB12
:10564000440400EBC404C4E90023C4E7AF42EBD038
:10565000DB7AAB42E8D001364EF1000316615361AC
:10566000E2E700BF01EB410100EBC101087A70479E
:1056700001EB410100EBC101487A704701EB4101A8
:1056800000EBC101D1E90401704700BF2DE9F041F1
:105690000D461F46164604469DF8188009F098FFEF
:1056A00005EB450C04EBCC0CDCE90423964277EBCC
:1056B00003034FEA450106D3731CCCF8103047F1C1
:1056C0000003CCF81430B8F1000F09D0294404EBE2
:1056D000C104D4E90623B242BB4138BFC4E906671E
:1056E000BDE8F04109F07CBF90F8422003461AB1B2
:1056F00090F8430000B1704793F840000028FAD0BA
:1057000093F84100704700BF00230122027080F827
:105710004C3080F84830036480F84430704700BF54
:1057200010B50B7803F00303032B0ED082F00104B5
:1057300000EB440494F8403003B910BD1146083022
:10574000FFF796FF84F8410010BDCB78182BEDD8F9
:1057500001A454F823F000BFFD5700005758000083
:10576000A95800002D5700002D5700002D570000AC
:105770002D5700002D5700002D5700002D57000019
:105780002D5700002D5700002D5700002D57000009
:105790002D5700002D5700002D5700002D570000F9
:1057A0002D5700002D5700002D5700002D570000E9
:1057B0002D5700002D570000BD570000B1F806E03E
:1057C0004388404CAEEB030384FB03C404EB030C9F
:1057D000DC17C4EBEC34C4EB04441B1B47F6FE742B
:1057E000A342A3DC0B7980F8A130497980F8A2109C
:1057F000012380F84830A0F84AE097E7B1F80DE0BF
:105800004388304CAEEB030384FB03C404EB030C6E
:10581000DC17C4EBEC34C4EB04441B1B47F6FE74EA
:10582000A3424CDC0B7980F88930B1F80530A0F840
:105830008C30B1F80730A0F88E30B1F80930A0F8FC
:105840009030B1F80B10A0F89210012380F844308A
:10585000A0F846E06AE7B1F809E04388194CAEEBDE
:10586000030384FB03C404EB030CDC17C4EBEC342C
:10587000C4EB04441B1B47F6FE74A3421FDC0B79E8
:1058800080F89C304B7980F89D308B7980F89E3081
:10589000CB7980F89F30097A80F8A010012380F836
:1058A0004C30A0F84EE041E700EB420393F8401083
:1058B00000297FF43BAF012183F8401036E7002335
:1058C000037033E70180008090F84C20438810B5C6
:1058D00004461AB1B0F84E209A4223D094F84420DE
:1058E0001AB1B4F846209A4211D094F848201AB15F
:1058F000B4F84A209A4200D010BD04F17A0104F1B4
:105900005000FEF727FB002384F8483010BD04F157
:105910007A0104F15000FEF705FB0022638884F849
:105920004420E2E7FEF7EEFA0022638884F84C2078
:10593000D4E700BF002380F83E3270472DE9F04FD6
:10594000D0F848723B79FC7813F0010F0CBF0525A5
:105950000B259A0748BF06355E0744BF0135EDB2F7
:105960008046180744BF0235EDB2D90644BF03355F
:10597000EDB29A0644BF1235EDB25B0644BF013565
:10598000EDB204F03F04641B053424B2002C83B054
:1059900034DDDFF870A047F6FE7908F2422B05E00F
:1059A000A41B24B23544002CEDB227DD7B197E5DAB
:1059B0005A78282AF4D1D8F84822DB79B8F83A1274
:1059C0002A44127A43EA02235A1A8AFB02018818EF
:1059D000D117C1EBE031C1EB0141521A4A45DFDC7E
:1059E000A91C394405225846019305F009FB019B87
:1059F000A8F84032012388F83E32D1E703B0BDE871
:105A0000F08F00BF0180008090F83E3243B1B0F8C3
:105A10003A22B0F840329A4210B5044601D010BD87
:105A20007047FEF75FFA002384F83E3210BD00BFD6
:105A3000704700BF704700BF704700BF704700BF8E
:105A4000704700BF704700BF83685B6C002B6BD052
:105A50002DE9F043354E364F364D91B0044612E0F5
:105A600020469847B0B1A3685A6B1AB120469047B8
:105A700098B9A3685B6A1BB12046984700282ED1CD
:105A8000A3685B6C33B12046984718B1A3681B6CC0
:105A9000002BE5D111B0BDE8F08328680AF0EAFCDC
:105AA000A3689B69002B34D04028E8460246414653
:105AB00028BF4022204698470246286841460AF0FF
:105AC000EFFC28680AF0B4FC0028D2D0A368DB6A97
:105AD0000BB120469847184B00221A70D0E7306867
:105AE0000AF09EFCC0B930680AF0B0FC402828BF1C
:105AF00040208146E84630684A4641460AF042FD69
:105B0000A3685B69002BBBD04A46414620469847B4
:105B1000B6E71A46E846D0E7A3681B6A0BB12046F1
:105B2000984700233B70ABE7704700BFD8A803201D
:105B300029C70320D4A8032028C70320022806D0A1
:105B4000042803D1044B02201B6818477047024BFE
:105B500001201B68184700BFD0A8032010B5134CC4
:105B600082B020688368DB6C13B10122082198475A
:105B700020688368DB6C13B10122102198472068EC
:105B8000836823B11B6D13B101AA012198472068D6
:105B9000836823B19B6C13B1054900229847054BDC
:105BA00004201B68984702B010BD00BFCCA803209A
:105BB000495A0000D0A8032010B582B000230B4C36
:105BC000019304E040F6CD40002108F0E1FF206899
:105BD000836801AA042113B11B6D03B19847019B8F
:105BE000002BEFD0FFF7BAFF02B010BDCCA8032006
:105BF0000D4B10B519600D4C0D4B226018600D480F
:105C00000D4C07F07BFF206018B10C4802F02CF817
:105C100020680B4B01221A7083689B6A13B1BDE8A0
:105C20001040184710BD00BFD4A80320D8A80320F7
:105C3000D0A80320C0140100CCA803203D5B0000C5
:105C400028C70320064B1A7802B170470549012284
:105C500008681A708368DB69002BF6D0184700BF0C
:105C600029C70320CCA80320044B0549012208685A
:105C70001A7083689B6A03B11847704728C70320CE
:105C8000CCA80320014B1878704700BF28C7032019
:105C900030B1436803F00303012B07D0032B02D07C
:105CA0006FF0150070470368002BF9D00023836064
:105CB000184670474268816002F00302032A0346D7
:105CC0000CBF0068002000225A6070470020704717
:105CD0000B68024A013312680B6010473000002045
:105CE0000FB410B582B004AB002453F8042B054860
:105CF000009301A9019400F0ABFD02B0BDE8104093
:105D000004B07047D15C00002DE9F04F0646008BCF
:105D100083B010F00803019340F0E38000F0070720
:105D2000DFF830A2BC460229BFB2144653D1002F7F
:105D300040F08F803368002B00F08F8020F0070147
:105D4000336941F0060189B2D3F800903183062708
:105D5000674500F09580B368002B00F09180002526
:105D6000AB4641F00801318384F31188BFF36F8F94
:105D7000B16889B10C68A8465B464D683A46304622
:105D8000A84744B1214624684D685B463A463046F0
:105D9000A847002CF6D14546002D39D1B9F1000FA6
:105DA00002D051463046C8474FF04003EFF311840C
:105DB00083F31188BFF36F8F318B21F0080189B213
:105DC00022463183C80638D521F0100080B201F098
:105DD00007073083BC46D6F814B0BBF1000F75DB63
:105DE000791F012966D9042F00F0998000256745A5
:105DF00040F0A8800146002DE4D040F00800308338
:105E000084F31188BFF36F8F4FF00009002DC5D0C8
:105E10002846594650F8048BFFF74CFF044640B122
:105E200029465B463A4630464546A047002DEFD10D
:105E3000B4E74546002DEBD1B0E78B060DD521F038
:105E4000200080B201F0070C3083022100F0070728
:105E500069E7022F1FD1738B33B184F31188BFF32D
:105E60006F8F03B0BDE8F08F336920F0070104277E
:105E700041F004016745D3F8049031837FF46BAFA0
:105E8000B9F1000F9ED041F00801318382F31188EF
:105E9000BFF36F8F85E7012FDFD13368002BDCD094
:105EA000336920F0070141F00501D3F808903183F0
:105EB00005274DE7019B3568736020F00700062F2A
:105EC00080B2336016D03083002790E720F00700BF
:105ED000019B3568736040F0010030833360012717
:105EE00085E701290CBF40F0100340F02003144661
:105EF0003383B2E75DB1718B013189B22F463F68C0
:105F00004B1C884699B2002FF9D1A6F81A80778BDE
:105F100040F00201318377B10846022767E720F09D
:105F20000700356880B2308355B140F0200000276B
:105F300030833D465BE740F022003083022756E77E
:105F40002F4654E7B1684FF0000900293FF452AFE3
:105F5000014606E7595F000010B40C464FF04001BF
:105F6000EFF3118281F31188BFF36F8F0121446138
:105F700010BCFFF7C9BE00BF70B169B10B685BB15F
:105F80004B684BB10023C0E90033C0E90233C0E9DC
:105F900005330161184670476FF01500704700BF68
:105FA000002869D0F8B50F46002962D00E1D0546BD
:105FB0003046FFF76DFE002822D1BB6833F00303A3
:105FC00057D14FF04003EFF3118283F31188BFF3F1
:105FD0006F8F6B8B298B4FF6FF70834201F00704A4
:105FE00030D0022C1BD08B070CD0062C0AD0052CED
:105FF00038D082F31188BFF36F8F6FF00400F8BDC3
:10600000DFDAF8BD00233B606B6813B31F606F607D
:1060100014BB28460221FFF777FE2046F8BD013366
:106020006B8382F31188BFF36F8F00213046FFF737
:1060300041FE064620B10023394628462246B04795
:106040002046F8BD82F31188BFF36F8F6FF00A000E
:10605000F8BDC5E90077DBE7204682F31188BFF37E
:106060006F8FF8BD82F31188BFF36F8F6FF022003E
:10607000F8BD6FF01500F8BD6FF01500704700BF58
:1060800010B54FF04001EFF3118281F31188BFF397
:106090006F8F048B04F00704022C0AD0012C0CBF74
:1060A0006FF004006FF0220082F31188BFF36F8F4E
:1060B00010BD418B013989B2418309B12046F3E714
:1060C0002146FFF721FE204610BD00BF002835D035
:1060D000002933D010B54FF04003EFF3118E83F356
:1060E0001188BFF36F8F0368B0F818C043B19942AD
:1060F00002D11AE099420AD01A461B68002BF9D146
:106100006FF044008EF31188BFF36F8F10BD4368AA
:106110000C68146099420FD000230B600CF007004C
:106120008EF31188BFF36F8F10BD42680B68036058
:106130009142F1D14360EFE74260EDE76FF0150067
:10614000704700BF8C460446114608B51A466046A3
:10615000A04708F03FFD04F00FFE00BF10B5044655
:106160004FF0FF324FF0FF33204607F0EFFF00F112
:1061700008020028F4D04168BFF35B8F52E8003F6B
:1061800023F0010C42E800CEBEF1000FF6D1BFF3C0
:106190005B8FDB0700D5884708F0A8FCE0E700BF6D
:1061A00010B48468B4F5004F00EBC10313D3DC686E
:1061B000A1421FD09B68043200EBC30140F822408B
:1061C000CC60826800EBC400B2F5004F28BF83604A
:1061D0000ED29BB20BE0DC88A1420BD09B8804322C
:1061E00000EBC30140F8224000EBC400CC80838068
:1061F00010BC7047C36810BC01219140043223EAEF
:1062000001030021C36040F82210704730B5846854
:10621000531AB4F5004F00EBC10C00EBC20EA1EB1A
:1062200002014FEA43051DD3DCF80440CCF80450CA
:10623000856801EB5401B5F5004F4FEA410418D3CE
:10624000CEF804408468B4F5004F14D340F83230DF
:106250008368B3F5004F10D321F000431A4440F88F
:10626000321030BDBCF80240ACF8025001EB5401D2
:106270004C00AEF8024020F83230BEF8023002EB9B
:10628000530220F8321030BD8368B3F5004F10B5CB
:1062900000EBC10100EBC20C12D34B68DCF80440E8
:1062A0005B0803EB54035C004C608168B1F5004F60
:1062B00010D3DCF8041002EB510240F8323010BD6C
:1062C0004B88BCF802E05B0803EB5E034FEA430E29
:1062D000A1F802E0BCF8021002EB510220F83230C3
:1062E00010BD00BF8368B3F5004F00EBC1020DD2B3
:1062F00053884FF0010C23FA0CF20132A2EB0C028E
:10630000B2FA82F2C2F11F02FFF74ABF5268520886
:10631000012A02D04FF0020CEFE770478368B3F513
:10632000004F70B500EBC1021AD253885B08B3FA74
:1063300083F3C3F11F0300EB830E1FFA81FCDEF829
:106340001040002C4AD000EBC40EBEF804309380FD
:10635000DE00D4808319A3F806C0AEF804C070BD77
:1063600053685B08012BFAD0013BB3FA83F3C3F106
:106370001F0300EB830CDCF81040E4B100EBC40E0B
:10638000DEF8083093608568B5F5004F4FEAC30624
:1063900000EBC3032FD3D4608268B2F5004F2DD336
:1063A000D9608368B3F5004F28BFCEF80810D6D265
:1063B0001FFA81FCD1E7C4684FF0010E0EFA03F317
:1063C0001C43C460CCF8101091608368B3F5004F93
:1063D00028BFD160C3D21FFA81FC09E0C46801253F
:1063E00005FA03F31C43C460CEF81010A2F804C0F1
:1063F000A2F806C070BD1FFA81FCAAE71FFA81FC53
:10640000A9E700BFF8B58368B3F5004F04460D4611
:106410004FEAC10600EBC10714D3796805EB5101BF
:1064200000EBC1035B68D80736D5A159691A04EBA4
:10643000C1035B68DB0714D529462046BDE8F84058
:10644000FFF76CBF798805EB510100EBC1035B8856
:10645000DA0721D5A15B691A04EBC1035B88DB076E
:10646000EAD42046FFF73EFFA368B3F5004F2CBFE8
:10647000A159A15B2046691A2A46FFF705FFA368C8
:10648000B3F5004F2CBFA359A35BED1A2946204654
:10649000BDE8F840FFF742BF2046FFF723FFA3689F
:1064A000B3F5004F2CBF7A687A88294605EB520273
:1064B0002046FFF7E9FEA368B3F5004FB5D2A15B14
:1064C000691A04EBC1035B88C9E700BF2DE9F041FD
:1064D0008568B5F5004F27BF05F1FF3301F1FF3C9B
:1064E0008C462B46BCFA8CFCB3FA83F3C3F11F0332
:1064F000CCF11F02934220DB00EB82073E6996B18C
:1065000034460323B5F5004F00EBC40E19D3DEF873
:106510000480B1EB580F23D9DEF80C403C61013BFD
:1065200001D0A642EED1C368CCF1200C4FF0FF326F
:1065300002FA0CFC1CEA030C0BD100242046BDE837
:10654000F081BEF80280B1EB580F09D9BEF80640C1
:10655000E4E79CFAACF2B2FA82F2131D50F8234041
:106560002146FFF71DFE2046BDE8F081E1B100683D
:106570008368B3F5004F0BD20439091A21F00703E1
:106580000344C9085A8822F001025A80FFF73ABF33
:106590000839091A21F007030344C9085A6822F090
:1065A00001025A60FFF72EBF704700BFF8B50568BB
:1065B00089B3AB68B3EBD10F2DD9B3F5004F2CBF26
:1065C0000824042407310C44E40821462846FFF738
:1065D0007DFF00B3AB68B3F5004F4FEAC00605EB93
:1065E000C0070FD37B68B4EB530F16D343F00103FE
:1065F0007B60AB68B3F5004F2CBF0820042030440B
:106600002844F8BD7B88B4EB530F06D343F0010355
:106610007B800420F3E70020F8BD044401462246B5
:106620002846FFF7F3FD2146FFF778FEAB68B3F588
:10663000004F01D27B88E9E77B68D7E72DE9F0417D
:106640000668B368B3F5004F14462CBF0822042235
:10665000914244D9002C3ED0B3EBD40F3BD90D4628
:10666000E11D2944C9083046FFF730FF074690B3C3
:10667000B368B3F5004F34BF0421082101EBC0011A
:1066800005F1FF3231441144C5F1000505EA010569
:106690002C4434BF6FF003016FF007010734294425
:1066A000891B24F00704A41BB0EBD10F4FEAE404CC
:1066B0004FEAD10823D3B3F5004F06EBC80713D335
:1066C0007B6808EB5302944223D343F001037B60C1
:1066D0002846BDE8F08100252846BDE8F081214626
:1066E000BDE8F041FFF762BF7B8808EB530294429C
:1066F0000FD343F001037B802846BDE8F08142467A
:1067000030463946FFF782FD3946FFF707FEB3688A
:10671000D1E7414622463046FFF778FD2146FFF794
:10672000FDFDB368B3F5004F01D27B88E1E77B68DC
:10673000CBE700BFB2F5802F2CBF08230423D21A69
:106740002DE9F043CC1D114424F0070421F007018A
:10675000A1EB040C4FEADC06002300220460B6F52E
:10676000004FC4E900234FF00003C4E9026346D29E
:10677000B6FA86F0C0F1240189000731D0F120007B
:106780004FEAD10146D0002304F10C021D4601332B
:10679000834242F8045FFADB701AB6F5004F4FEA05
:1067A00041034FEA40084FEAC10904EBC10E04EB74
:1067B0000C0704EBC60237D343F001036360CEF845
:1067C0000480A368B3F5004F33D344F80910A368DD
:1067D000B3F5004F2FD37D60A368B3F5004F2CD3E2
:1067E00044F80C00A368B3F5004F27D3536843F077
:1067F000010320465360BDE8F043FFF78FBD731ED1
:10680000B3FA83F3C3F12000C3F124039B000733E1
:10681000D908B8E7701A4B0004EB0C0704EBC6026A
:106820004FEA400804EBC10E43F001036380AEF869
:106830000280AEF8001000237B803880538843F03C
:10684000010320465380BDE8F043FFF767BD00BF5A
:106850002DE9F04F834699B01078029398B116460F
:1068600089464FF00008DA46252806F101050DD0CB
:106870004946D047002806DB08F101082E4630784B
:106880000028F1D1404619B0BDE8F08F747800239C
:10689000252CCDE91233CDE91433CDE9163300F0C0
:1068A000E781002300939C469E4605930193A4F143
:1068B0002003102B0AD8DFE803F0A90909A609096B
:1068C0000909090909AF09AC0909A1009DF850306F
:1068D000019A62F38203059A62F3C3036EF3041311
:1068E000009A6CF3451362F386138DF8503003F071
:1068F0004403442B14BF134600232A2C009305F1B4
:10690000010300F00B82A4F13002092A00F2628236
:106910001946002202EB820204EB42020C78A4F139
:1069200030000B46092801F10101A2F130028B462B
:10693000F0D9AB4200F092840392D20F049200226D
:1069400009922E2C0CBF0125002540F0D9815C78DE
:106950002A2C00F08984A4F13002092A234698BF2A
:10696000002200F2B0841BF8014F02EB8202A4F176
:10697000300103EB42020929A2F130022346F2D989
:10698000049B069243EAD27304935B460BF1010B1E
:106990000027A4F14C022E2A41D8DFE812F0280388
:1069A00040004000400040004000400040004000E7
:1069B00040004000400040004000400040004000D7
:1069C00040004000400040004000400040004000C7
:1069D0004000400040001F034000190340003C03FA
:1069E00040004000400040004000400040003603AE
:1069F000400040004000400040003003012300936D
:106A000015F8014F53E74FF0010CF9E74FF0010E75
:106A1000F6E701230193F3E701230593F0E7002054
:106A20000B90A4F14103372B39D8DFE813F0800134
:106A300038003800380080018001800138003800BB
:106A40003800380038003800380038003800380086
:106A5000380038003800380038003800AA01380003
:106A6000380038003800380038003800380080011D
:106A70003800AA01AA028001800180013800AA0220
:106A80003800380038003800FD02AA0190023800B2
:106A9000380090023800AA0138003800AA0100230B
:106AA00001220A93079201220892099A42EA4505B7
:106AB0009DF8512045EA870747EAC00722F07F0288
:106AC0001743F907029D8DF8517040F1AF8055F8DA
:106AD000042B0392002A03DA52420392012201920C
