:1000000020ED002059590000BD580000895900001A
:10001000895900008959000089590000000000003A
:100020000000000000000000000000003557000044
:100030008959000000000000E1560000B95400009A
:1000400019590000697A0000195900001959000077
:1000500019590000195900001959000019590000D8
:100060004D7A000019590000195900001959000073
:1000700019590000195900001959000019590000B8
:1000800019590000195900001959000019590000A8
:100090001959000019590000195900001959000098
:1000A0001959000019590000195900001959000088
:1000B0001959000019590000195900001959000078
:1000C0001959000019590000195900001959000068
:0C00D000195900001959000019590000CE
:1000DC0053B94AB9002908BF00281CBF4FF0FF31A3
:1000EC004FF0FF3000F078B9ADF1080C6DE904CE9B
:1000FC0000F006F8DDF804E0DDE9022304B07047F7
:10010C002DE9F047089D0E4604468E46002B4CD137
:10011C008A42944667D9B2FA82F252B101FA02F3DA
:10012C00C2F1200120FA01F10CFA02FC41EA030EA3
:10013C0094404FEA1C48210CBEFBF8F61FFA8CF7D2
:10014C0008FB16E341EA034306FB07F199420AD97F
:10015C001CEB030306F1FF3080F01E81994240F244
:10016C001B81023E63445B1AA4B2B3FBF8F008FB9C
:10017C00103344EA034400FB07F7A7420AD91CEBEF
:10018C00040400F1FF3380F00981A74240F206819C
:10019C0064440238E41B40EA064000211DB1D440FF
:1001AC000023C5E90043BDE8F0878B4208D9002D38
:1001BC0000F0EF800021C5E900060846BDE8F08795
:1001CC00B3FA83F1002949D1B34202D3824200F23F
:1001DC00FF80841A66EB030301209E46002DE2D0BB
:1001EC00C5E9004EDFE702B9FFDEB2FA82F2002A5F
:1001FC0040F08E80A1EB0C064FEA1C471FFA8CF3E3
:10020C000121B6FBF7FE07FB1E60260C46EA0046F2
:10021C0003FB0EF0B04208D91CEB06060EF1FF38BA
:10022C0002D2B04200F2D080C646361AA4B2B6FB57
:10023C00F7F007FB106644EA064400FB03F3A34205
:10024C0008D91CEB040400F1FF3602D2A34200F2E1
:10025C00B8803046E41A40EA0E409FE7C1F120070F
:10026C0022FA07F48B40234306FA01FC26FA07F422
:10027C0020FA07F646EA0C064FEA134900FA01F891
:10028C00B4FBF9FE300C1FFA83FC09FB1E4440EA58
:10029C0004440EFB0CF0A04202FA01F20AD91C191C
:1002AC000EF1FF3A80F08B80A04240F28880AEF1D4
:1002BC00020E1C44241AB6B2B4FBF9F009FB10442C
:1002CC0046EA044400FB0CFCA44507D91C1900F1B8
:1002DC00FF3670D2A4456ED902381C4440EA0E4059
:1002EC00A0FB02E6A4EB0C04B442F446B14659D38D
:1002FC0056D0002D6ED0B8EB0C0364EB0904CB4048
:10030C0004FA07F71F43CC40C5E9007400214AE703
:10031C00C2F1200024FA00F10CFA02FC06FA02F3F6
:10032C0026FA00F04FEA1C4741EA0306B0FBF7F14E
:10033C001FFA8CF307FB110E300C40EA0E4001FB48
:10034C0003FE864504FA02F408D91CEB000001F107
:10035C00FF3832D2864530D902396044A0EB0E000A
:10036C00B6B2B0FBF7FE07FB1E0046EA00460EFBDA
:10037C0003F0B04209D91CEB06060EF1FF3818D277
:10038C00B04216D9AEF1020E6644361A4EEA01415D
:10039C0037E72946284606E70646E4E61846F9E616
:1003AC00F045A6D2BEEB020C66EB0303013899466E
:1003BC009FE7C646E9E7304690E74146CEE7D6468A
:1003CC0078E76444023845E7AEF1020E66442CE748
:1003DC00084603E72946E6E6704700BF70B491E88B
:1003EC007800B2E802105B1854EB0C04B2E802106F
:1003FC004D4156EB0C0680E878008041013070BC12
:10040C00704700BF70B491E87800B2E802105B1A34
:10041C0074EB0C04B2E802108D4176EB0C0680E80C
:10042C0078008041404270BC704700BF2DE9F00756
:10043C0091E8F807B2E802105B1854EB0C04B2E830
:10044C0002104D4156EB0C06B2E802104F4158EB2E
:10045C000C08B2E8021059EB01095AEB0C0A80E8BF
:10046C00F80780410130BDE8F00770472DE9F0072F
:10047C0091E8F807B2E802105B1A74EB0C04B2E8CE
:10048C0002108D4176EB0C06B2E802108F4178EB2E
:10049C000C08B2E8021079EB01097AEB0C0A80E83F
:1004AC00F80780414042BDE8F00770472DE9F0079E
:1004BC00524290E87800B1E880071740DB1918EA3F
:1004CC00020854EB080419EA020955EB09051AEA6B
:1004DC00020A56EB0A0678C090E87800B1E880076B
:1004EC0017407B4118EA020854EB080419EA020988
:1004FC0055EB09051AEA020A56EB0A0678C0804148
:10050C000130BDE8F00770472DE9F007524290E842
:10051C007800B1E880071740DB1B18EA020874EB7F
:10052C00080419EA020975EB09051AEA020A76EBC6
:10053C000A0678C090E87800B1E880071740BB4104
:10054C0018EA020874EB080419EA020975EB0905AC
:10055C001AEA020A76EB0A0678C080414042BDE8EE
:10056C00F007704790E8300091E8C000A31B1340DF
:10057C00E41AF618EB1B1340ED1AFF1830C0C0C17B
:10058C00704700BFF0B55242FFF7ECFFFFF7EAFFF0
:10059C00FFF7E8FFFFF7E6FFF0BD00BF2DE9F0071E
:1005AC003AC91668A1FB069A4FF0000CE3FB06ACA7
:1005BC004FF00007E4FB06C74FF00008E5FB067898
:1005CC0040F8049B56684FF00009E1FB06A9E3FBD9
:1005DC0066C9E4FB6679E5FB668940F804AB96686E
:1005EC004FF0000AE1FB06CAE3FB667AE4FB668A7D
:1005FC00E5FB669A40F804CBD6684FF0000CE1FBA3
:10060C00067CE3FB668CE4FB669CE5FB66AC80E851
:10061C008017BDE8F00770470A4600BF2DE9F04F80
:10062C0092E8F00F2DE9F30F87B01EC90998A1FBD2
:10063C0000784FF00009E2FB00894FF0000AE3FB61
:10064C00009A4FF0000BE4FB00AB0D984FF0000C40
:10065C00E1FB00BC4FF0000EE2FB00CE4FF00005BA
:10066C00E3FB00E54FF00006E4FB005600970A9808
:10067C004FF00007E1FB0087E2FB6097E3FB60A70C
:10068C00E4FB60B70E98E1FB60C7E2FB60E7E3FBBD
:10069C006057E4FB6067CDF804800B984FF00008BE
:1006AC00E1FB0098E2FB60A8E3FB60B8E4FB60C8E8
:1006BC000F98E1FB60E8E2FB6058E3FB6068E4FB49
:1006CC006078CDF808900C984FF00009E1FB00A978
:1006DC00E2FB60B9E3FB60C9E4FB60E91098E1FB65
:1006EC006059E2FB6069E3FB6079E4FB6089CDF85B
:1006FC000CA0089901F110011EC909984FF0000ACD
:10070C00E1FB00BAE2FB60CAE3FB60EAE4FB605A7F
:10071C000D98E1FB606AE2FB607AE3FB608AE4FB24
:10072C00609ACDF810B00A984FF0000BE1FB00CBAB
:10073C00E2FB60EBE3FB605BE4FB606B0E98E1FBC0
:10074C00607BE2FB608BE3FB609BE4FB60ABCDF872
:10075C0014C00B984FF0000CE1FB00ECE2FB605C6A
:10076C00E3FB606CE4FB607C0F98E1FB608CE2FBCC
:10077C00609CE3FB60ACE4FB60BCCDF818E00C982B
:10078C004FF0000EE1FB005EE2FB606EE3FB607E6F
:10079C00E4FB608E1098E1FB609EE2FB60AEE3FB35
:1007AC0060BEE4FB60CE079800F11C0181E8E05FBD
:1007BC00BDE8F80380E8F8030AB0BDE8F08F00BF8D
:1007CC0030B44FF0000310F8014B11F8015B013A03
:1007DC0084EA050443EA0403F5D1A3F101034FEACB
:1007EC00D37030BC704700BF4FF0000310F8012BE2
:1007FC00013943EA0203F9D1A3F101034FEAD370A3
:10080C00704700BF11F8013B00F8013B013AF9D1E8
:10081C00704700BF002200F8012B0139FBD1704753
:10082C002DE9F00791E8F807B2E802105B1854EBD9
:10083C000C04B2E802104D4156EB0C06B2E8021063
:10084C004F4158EB0C08B2E8021059EB01095AEB76
:10085C000C0A8941B3F1FF3374F1FF3475F1FF35A4
:10086C0076F1000677F1000778F1000879F10109BB
:10087C007AF1FF3A51F100015B184C414D4156F1B0
:10088C00000657F1000758F1000859EBD1795AEBE3
:10089C00010A80E8F807BDE8F00770472DE9F0077A
:1008AC0091E8F807B2E802105B1A74EB0C04B2E89A
:1008BC0002108D4176EB0C06B2E802108F4178EBFA
:1008CC000C08B2E8021079EB01097AEB0C0A8941A9
:1008DC005B184C414D4156F1000657F1000758F199
:1008EC00000859EBD1795AEB010A80E8F807BDE80A
:1008FC00F00770470A4600BF2DE9F04F92E8F00F61
:10090C002DE9F30F87B01EC90998A1FB00784FF0B1
:10091C000009E2FB00894FF0000AE3FB009A4FF05C
:10092C00000BE4FB00AB0D984FF0000CE1FB00BC9E
:10093C004FF0000EE2FB00CE4FF00005E3FB00E5AC
:10094C004FF00006E4FB005600970A984FF00007A2
:10095C00E1FB0087E2FB6097E3FB60A7E4FB60B779
:10096C000E98E1FB60C7E2FB60E7E3FB6057E4FB3A
:10097C006067CDF804800B984FF00008E1FB0098FD
:10098C00E2FB60A8E3FB60B8E4FB60C80F98E1FBF6
:10099C0060E8E2FB6058E3FB6068E4FB6078CDF84C
:1009AC0008900C984FF00009E1FB00A9E2FB60B93C
:1009BC00E3FB60C9E4FB60E91098E1FB6059E2FBE2
:1009CC006069E3FB6079E4FB6089CDF80CA00899C1
:1009DC0001F110011EC909984FF0000AE1FB00BAA1
:1009EC00E2FB60CAE3FB60EAE4FB605A0D98E1FBB2
:1009FC00606AE2FB607AE3FB608AE4FB609ACDF804
:100A0C0010B00A984FF0000BE1FB00CBE2FB60EB5F
:100A1C00E3FB605BE4FB606B0E98E1FB607BE2FB4D
:100A2C00608BE3FB609BE4FB60ABCDF814C00B98D0
:100A3C004FF0000CE1FB00ECE2FB605CE3FB606C54
:100A4C00E4FB607C0F98E1FB608CE2FB609CE3FBB9
:100A5C0060ACE4FB60BCCDF818E00C984FF0000ED5
:100A6C00E1FB005EE2FB606EE3FB607EE4FB608E0C
:100A7C001098E1FB609EE2FB60AEE3FB60BEE4FB22
:100A8C0060CEDDE90423069C12EB0A0253EB0B0348
:100A9C0054EB0C0455EB0E05002040F1000012EB5A
:100AAC000B0253EB0C0354EB0E0455EB0E054641B5
:100ABC000020474158EB000859EB0A0940F10000AF
:100ACC00B2EB0E0273F1000374F1000475EB0A052E
:100ADC0076EB0B0677EB0C0778EB0A0879EB0C0935
:100AEC0060F10000B5EB0B0576EB0C0677EB0E070F
:100AFC0078EB0B0879EB0E0960F100006FEAE07AF5
:100B0C00B2EB0A0273EB0A0374EB0A0475F10005ED
:100B1C0076F1000677F1000778EBDA7879EB0A09C1
:100B2C0060F100004FEAE07A12EB0A0253EB0A0381
:100B3C0054EB0A0455F1000556F1000657F1000775
:100B4C0058EBDA7859EB0A0940F100004FEAE07AE9
:100B5C0012EB0A0253EB0A0354EB0A0455F100059D
:100B6C0056F1000657F1000758EBDA7859EB0A09F1
:100B7C00DDE900ABDDE902011AEB060A5BEB070BC2
:100B8C0050EB080051EB09015FF0000C4CF1000C2C
:100B9C001AEB070A5BEB080B50EB090051EB090150
:100BAC0052EB0C025FF0000C53EB0C0354EB0C04F7
:100BBC0075414CF1000CBAEB090A7BF1000B70F19A
:100BCC000000B141BA4173EB0803B44175EB080561
:100BDC006CF1000CC91B72EB080273EB0903BC41EE
:100BEC0075EB09056CF1000C6FEAEC76BAEB060AB2
:100BFC007BEB060BB04171F1000172F1000273F155
:100C0C00000374EBD674B5416CF1000C4FEAEC7632
:100C1C001AEB060A5BEB060B704151F1000152F125
:100C2C00000253F1000354EBD67475414CF1000CE7
:100C3C004FEAEC761AEB060A5BEB060B704151F1AE
:100C4C00000152F1000253F1000354EBD6747541CC
:100C5C00079FA7E8000C87E83F0011B0BDE8F08FB4
:100C6C002DE9F04186B006F007FF01F01FFC00F003
:100C7C00CFFC00F005F900F0FDF801F097FE01F053
:100C8C0021FD00F0FDF8A43002F060FB02F02CFF17
:100C9C00012007F027FD734A734F744E0021012089
:100CAC0007F074FD034602203B6007F01BFD704A01
:100CBC000021022007F06AFD002430600725A046C1
:100CCC001F2D27D8DFE805F0B1262626262626A0DC
:100CDC0026262626989526262626269126262689F9
:100CEC007E7368652660265A3B681A68002A00F0F5
:100CFC00B580186001F076FC012007F03FFD3368E9
:100D0C001A68002A00F0AC801C6001F04DFE022035
:100D1C0007F034FD01F0D4FB044670B102F04EFF35
:100D2C00E37804F599700BB904F1180001F0D4FCC8
:100D3C0001F0E6FB012007F021FD01F089FD0446DE
:100D4C000028D1D001F098FD0546012007F016FDD2
:100D5C003B681A6832B1C3F8008001F043FC0120F3
:100D6C0007F00CFD33681A68002AA9D0C3F800807C
:100D7C0001F01AFE022007F001FDA1E7204601F068
:100D8C00A3FD00F08DFCC5E701F084FB01F03CFDF8
:100D9C00C0E701F045FCBDE7204601F093FD044699
:100DAC0000F06EF82146A43002F01EFEB2E7204699
:100DBC0001F086FD044600F063F82146A43002F0F1
:100DCC000FFEA7E7204601F079FD044600F058F825
:100DDC002146A43002F0F2FD9CE7204602A901F066
:100DEC0075FD02A801F09AFE94E7204601F03EFC46
:100DFC0090E701F0F7FB8DE7204602A901F058FDC2
:100E0C0002A802F0CBFD85E702F0D0FD01AA02A9F1
:100E1C00204601F065FD00F095FC9DF80410029849
:100E2C0000F012FC00F0D6FC74E70DF1020202A9EE
:100E3C00204601F023FD0DF1030201A9204601F02B
:100E4C0029FD00F07FFC01989DF8031000F012FCC6
:100E5C009DF8020002A900F01FFD5BE7FF2581E76A
:100E6C00FF252DE7400D0300B01B0020B41B002014
:100E7C0020A107004FF41472002104F0F7BF00BF4B
:100E8C0000487047700300202DE9F0413A4E33685A
:100E9C00002B4DD00446FFF7F3FF217B002241FAD3
:100EAC0002F313F0010356D10132082AF7D1334A69
:100EBC0094F814C01278677BE57B4FEACC0CA2F156
:100ECC00090E4FFA8CFCBEF1040F06D8DFE80EF0C9
:100EDC0003054634030043F0020304294CEA0303E0
:100EEC00A2F10C02DBB218BFFF27012A45EA030569
:100EFC002CD94FF0000830680022C270183001F075
:100F0C00E5FB294643463A46054601F003FD237BA3
:100F1C006168022B1DD0042B14BF28234FF4BC7323
:100F2C002846C91A01F0ECFCBDE8F04101F0FABA10
:100F3C00BDE8F04101F036BD43F004034CEA030375
:100F4C00DBB2042945EA030518BFFF27B0F83A8243
:100F5C00D1E71823E4E71301DBB2A8E743F006035B
:100F6C004CEA0303DBB2042945EA030518BFFF274B
:100F7C004FF00008BFE700BFE01B002010E9002085
:100F8C002DE9F041037913F0010F0CBF05240B245C
:100F9C000546980748BF06340E46590744BF01342E
:100FAC00E4B21A0744BF0234E4B2DB0601D4BDE854
:100FBC00F081FFF765FF2919074600F5087001F06D
:100FCC003DFF337B7068022B0FD0042B14BF2823FA
:100FDC004FF4BC73B7F8222297F82012C01A97F876
:100FEC002132BDE8F04102F0C9B81823F2E700BF86
:100FFC00027802F00F03073B012B00D970470379ED
:10100C00DB07FBD5114B1B78002BF7D0104B1B7853
:10101C00002BF3D05306F1D510B506220C46411D1A
:10102C000C4804F0E3FE0C4A0C48012106F0E2FDEA
:10103C0006F0BAFD0123036006F0F8FD06F0B8FDDA
:10104C00227DC0F340031343237510BD0EE900202D
:10105C000DE90020D71B0020D41B0020C41B00204E
:10106C000279D30701D40120704710B50C46094909
:10107C0002780978C2F380129142034601D0207D98
:10108C0010BD05480622591D04F07CFE0028F6D13F
:10109C00012010BD03E90020B81B002010B5044648
:1010AC00002006F059FE04F168020221002007F02E
:1010BC006DFB06F099FE0B4B1B78022B0ED0042B0C
:1010CC0009D104F514720021084607F05FFBBDE856
:1010DC00104006F041BE04F1CD02F4E704F1B90270
:1010EC00F1E700BF05E9002038B5002006F034FE1A
:1010FC00FFF7C6FE044690F82412FF22012006F0EA
:10110C0001FF94F8250206F041FF02F04FF8A0F120
:10111C00280502F06BF894F82432022B1CD0042B17
:10112C0017D100F5DA742A460221002007F02EFBB5
:10113C00002122460546084607F028FB04462846AF
:10114C0006F052FE204606F007FE054B00221A6000
:10115C0038BD00F13104E6E700F11D04E3E700BF00
:10116C00C01B002038B5002006F0F6FDFFF788FE06
:10117C00044690F83C12FF22012006F0C3FEB4F89E
:10118C003A0201F0FFFD06F001FF04F2362006F0F2
:10119C006FFF04F2322006F045FF022006F094FDAA
:1011AC0000210246084607F009FB082006F08CFDDA
:1011BC0001210246002007F001FB02F071F8A0F1BA
:1011CC00280502F091F894F83C32022B1AD0042B2B
:1011DC0015D100F5DA742A460221002007F0D6FA60
:1011EC00002105462246084607F0D0FA0446284658
:1011FC0006F0FAFD2046BDE8384006F0ADBD00F122
:10120C003104E8E700F11D04E5E700BF2DE9F047E4
:10121C0001F06AF95F4D2860002873D0183001F096
:10122C0053FA2B68044603F5997001F04DFA054604
:10123C00594B1B78002B35D0FFF722FE574B93F8F8
:10124C0000800646B8F1000F59D190F87890544FB1
:10125C0006F10800414603F00FFAC7E904012846DD
:10126C0087F8188006F074FF22462946384606F0A7
:10127C00EFFCB6F864004B4E01F076FE80F00101F5
:10128C00C9B2484606F0F8FC337893B9464B1B7844
:10129C0013B1464F3B78CBB9FFF7F2FDC0E992454D
:1012AC00BDE8F0873F4E204606F052FF3378002B06
:1012BC00ECD03E4F3B78002BEED0DFF8F48098F862
:1012CC00003023B3384B1B78002BE5D0394B187802
:1012DC0007F0D4F822460121374806F08BFC374A38
:1012EC00337801211170002BD6D0354B1B78002B95
:1012FC00D2D0042006F04CFC06F00AFFCCE790F8A4
:10130C007790A4E703F094FB2E4D2F4C90E72F49D8
:10131C002F48DFF8C090062204F068FD01212E4A08
:10132C00254806F067FC06F03FFC4FF0010AC0F8B8
:10133C0000A006F07BFC06F03BFCC0F3400089F8F3
:10134C0000000621214888F800A007F035FD20B9DF
:10135C0099F80080B8F1000F11D006F025FC8046FA
:10136C00402006F0B1FC414607F044F8114B1B4AF3
:10137C00187040210C4B118001221A708AE70D4E17
:10138C00307807F009F9FF233370074B83F800809E
:10139C0082E700BFE01B002009E900202E0300209B
:1013AC00C005002007E900200EE900200DE900200F
:1013BC0008E9002031030020C41B002001E90020B3
:1013CC0006E90020E41B0020E81C0020B81B0020CC
:1013DC00D71B002002E90020D41B0020F8E80020D5
:1013EC002DE9F04F85B00446FFF74AFD834B844F3F
:1013FC00DFF810A23978A173D3E90423C4E90623DA
:10140C000546D0F848229AF80000A0745378B3FA35
:10141C0083F67609E67410B1181E18BF0120E37B21
:10142C00607405F10808002B40F0CF8005F1A40989
:10143C000B464846414602F003F8734B1E683B7856
:10144C0083F001033B70D5E992B301930EB101F027
:10145C0069F8FFF7DBFE3B78002B00F08F8095F8E6
:10146C00777006F081FD002800F08F80022FA268B3
:10147C0000F0A480042F00F0A58002F1C40309221F
:10148C001A440021084607F081F906F065FC01F0CA
:10149C00DFFD0121A0F19C02002007F077F906F096
:1014AC0095FCE27B52B1019B9AF800205B780AB95B
:1014BC00032B03D9013B019ADBB2D25821463046AB
:1014CC0002F04AFB002E00F09080FFF7D9FC217B44
:1014DC000746002341FA03F212F0010240F08A8021
:1014EC000133082BF6D1206994F812A0E37B20F489
:1014FC007F0020F47F400028A07B4FEA400040EAA8
:10150C008A0040EA020014BF4FF0080A4FF0000AAC
:10151C004AEA000A5FFA8AFA4AEA030AF378627B1B
:10152C00042918BFFF2233BB06F11800019201F009
:10153C00CDF87B88019A5146064601F0F5F8237BDD
:10154C006168022B54D0042B14BF28234FF4BC73B6
:10155C00C91A304601F0D4F9E27BA37B002A3DD1B5
:10156C005A464146484602F015F8284B0F221A708D
:10157C0005B0BDE8F08F06F59970D7E795F878704F
:10158C0006F0F2FC00287FF471AFA2680390683279
:10159C00022107F0FBF89AF80020039B0290002A26
:1015AC0014BFFF22FB221846394606F0ABFC02980A
:1015BC0006F01AFC022FA2687FF45CAF02F1B403B0
:1015CC0005225DE702F514725BE7114640462246A0
:1015DC0002F0F0FFD5F84822A17B27E71A462846EF
:1015EC00594603F09BF8A37BBAE701F0DBF9B3E7AC
:1015FC001823ADE71B015AB275E700BFC0050020E8
:10160C002E03002009E90020E01B002010E9002037
:10161C000B4B10B50020187007F064F8022006F090
:10162C0053FB0446012006F009FB0146204606F058
:10163C00E1FE044B1870BDE8104003F0F7B900BF91
:10164C0010E9002000E9002010B40378064C07498B
:10165C00074A03F001002070C3F34000C3F380037A
:10166C0010BC087013707047300300202F0300204B
:10167C000FE9002010B40378064C0749074A03F021
:10168C0001002070C3F34000C3F3800310BC08704A
:10169C00137070470AE900200CE900200BE90020C8
:1016AC0010B50A4C01461022204604F09FFB102175
:1016BC00204607F081FB064C0649074A002380F0C0
:1016CC00010020700B70137010BD00BFC41B0020F4
:1016DC000DE9002002E9002008E9002070B50C4655
:1016EC000546FFF7CDFB0D4E083002F05FFF21469B
:1016FC00284602F01DFA10222946304607F06CFBF2
:10170C000822214606F1190004F070FB044B1878EE
:10171C0006F0B4FE034B01221A7070BDC005002008
:10172C0000E9002009E9002008B5044B187806F000
:10173C000FFF034B00221A7008BD00BF00E9002008
:10174C0009E9002070B5194E337853BB184A194B70
:10175C00194D002414701C7006F0E6FC287806F075
:10176C00F7FE164B1C7006F007FC06F035FA144B0E
:10177C00187806F0EDFE134B28781C7006F00CFF61
:10178C00114BFF2220462A701C7006F003FE01202C
:10179C0006F000FE0D4A0E4B3470012111701C60D6
:1017AC0070BD002006F0D8FAD0E700BF10E9002089
:1017BC0008E9002002E900203103002007E900209D
:1017CC0000E9002009E900200EE900202E0300208A
:1017DC00E01B002010B5FFF7B5FF264806F03AFBDA
:1017EC00012006F025FB402006F00CFC06F0DCF98D
:1017FC0004464FF4807006F067FA214606F0FAFDB5
:10180C001D4B1A781D4B002A18701D4A1D481E4B83
:10181C004FF4807C4FF0010414BF04212146A2F840
:10182C0000C00470FF222046197006F06BFB01F01B
:10183C005BF906F0ABFB154806F01AFC144806F0F1
:10184C00F1FB022006F040FA00210246084606F0A1
:10185C00B5FF082006F038FA21460246002006F0B3
:10186C00ADFF002006F0C0FAFFF7D0FC094B1C704E
:10187C0010BD00BF4D1C00000FE9002031030020FB
:10188C00F8E800200EE9002005E900208C9A000001
:10189C00889A000010E9002070B50D460446FFF749
:1018AC0051FF2648264E06F0D5FA012006F0C0FA64
:1018BC00062229462348347004F098FA21493078DE
:1018CC0006F008FC204B1D7806F018FC1F4A204B34
:1018DC00127820481D70002A1F4B4FF0010414BFD2
:1018EC0004212146FF2204702046197006F00AFBE1
:1018FC0001F0FAF806F04AFB184806F0B9FB184854
:10190C0006F090FB06F026FB022006F0DDF9002124
:10191C000246084606F052FF082006F0D5F921468B
:10192C000246002006F04AFF002006F05DFAFFF7A1
:10193C006DFC0C4B05221A7070BD00BF4D1C0000D5
:10194C0003E90020B81B00200CE900200BE9002063
:10195C0006E9002007E9002005E900208C9A000028
:10196C00889A000010E9002008B5FFF789FAB0F852
:10197C003A220132A0F83A2203F044F801F0DCFCE0
:10198C0028B9FFF7EFFB064B0C221A7008BD054B6C
:10199C0005491878FFF780FF014B05221A7008BD26
:1019AC0010E9002003E90020B81B00202DE9F041CC
:1019BC000446FFF765FA064606F0D0FB2146077889
:1019CC0090F804800546FFF713FB2046FFF75CFAFE
:1019DC00E37B1BB9BDE8F041FFF7C6BF304602F010
:1019EC00ABFFE37B002BF5D007F00F07072FF1D1EE
:1019FC0021462846FFF734FB0028EBD018F0100FD7
:101A0C00E8D021462846FFF7BBFAFFF76DFB024BE7
:101A1C000D221A70BDE8F08110E90020F8B5002005
:101A2C0006F0C4FC002006F097F9FFF729FA43886A
:101A3C0001334380044602F045FF304B01221A70FB
:101A4C0001F078FB00283FD1204602F04BFE054602
:101A5C0000283CD1608801F013F906F097FA284B66
:101A6C0094F877601B78002B14BFFF22FB222846CA
:101A7C00314606F047FA01F0EBFAA0F1280501F027
:101A8C0011FB022E30D0042E2AD100F5DA772A462B
:101A9C000221002006F07AFE00213A46064608464E
:101AAC0006F074FE0546304606F09EF9284606F010
:101ABC0053F9B4F8640001F057FAC8B106F04AFAC9
:101ACC00104B0E221A70F8BD204602F00BFE02F0ED
:101ADC00B5FF0D4B0D491878BDE8F840FFF7DCBE9B
:101AEC00283009270744D2E7183005270744CEE7EA
:101AFC0006F042FA034B0E221A70F8BD2E0300209A
:101B0C0009E9002010E9002003E90020B81B00209F
:101B1C00F0B583B00646FFF7B3F904460025FFF78E
:101B2C0011FE012006F02AFC2046658002F0EAFD39
:101B3C0001F0E8FF04F1080002F024FD04F150016B
:101B4C0004F1A40001F01AFC3A4806F083F90120D4
:101B5C0006F06EF904F16B0006F08AFA04F16E00DF
:101B6C0006F060FA344B94F877701B78AB4214BFD4
:101B7C00FF22FB223946284606F0C4F9304694F879
:101B8C006A6094F85F30B4F86220B4F8641001967F
:101B9C00B4F86860009601F0EDF9022006F094F8B4
:101BAC0029460246284606F009FE082006F08CF865
:101BBC0001210246284606F001FE608801F060F81B
:101BCC0006F0E4F901F044FAA0F1280601F06AFAF3
:101BDC00022F2BD0042F23D100F5DA7532460221C7
:101BEC00002006F0D3FD00212A460646084606F0E2
:101BFC00CDFD0546304606F0F7F8284606F0ACF861
:101C0C00B4F8640001F0B0F968B106F0A3F9FFF77D
:101C1C00FDFA02F011FF094B0E221A7003B0F0BD51
:101C2C0000F13105DAE706F0A7F9F0E700F11D0540
:101C3C00D4E700BF4D1C000009E9002010E900208A
:101C4C002DE9F0418AB0044606F078F98DF81400BD
:101C5C0006F07EF90021034608468DF815300294F3
:101C6C0006F0CAFD9DF81430022B4CD0042B45D144
:101C7C00A0F13C0301210020039306F0BDFD9DF86B
:101C8C0014309DF81520022B3BD0042B34D1002AA4
:101C9C000CBF1E23192302990022C31A08070493B0
:101CAC008DF817208DF818208DF81C202DD4A34DFD
:101CBC002B7843B1A24A029B12881A425DD105F0DF
:101CCC008BFF00232B709F4D204602F0B9FE2B7822
:101CDC00013B0E2B3FD8DFE813F059007500900044
:101CEC00A600DE00B900EF0001014701C601270084
:101CFC00750192019E01BA010923CCE70923C31A8D
:101D0C00B8E70523C7E70523F9E706F0C7F98E4BBB
:101D1C008DF817001B78002BC9D005F0C1FF05F01A
:101D2C00C7FF8DF81800C2E7029B1F0700F1CD8199
:101D3C00002006F03BFB002006F00EF8834BFF2240
:101D4C001978012006F0DEF800F0CEFE06F01EF940
:101D5C00002006F049F87E4A052310682B7038B134
:101D6C0006F034F82B780F2B02D10AB0BDE8F081C5
:101D7C00FFF74CFA0AB0BDE8F08105F057FF05F00B
:101D8C0017FFC0F340008DF81C0098E7029B190761
:101D9C0000F129826E4C23681BB11B68002B40F0AC
:101DAC009182002006F002FB002005F0D5FF00F028
:101DBC00A5FE06F0EBF8002006F016F801232068CB
:101DCC002B70CCE7029B1A0740F1758102A8FFF734
:101DDC005BF806F0C3F95F4B1B7893B19DF8173095
:101DEC007BB1047804F00F04032C0AD10498FFF79C
:101DFC0055F9574B2C701868B1E7029B1B0700F183
:101E0C009381002006F0D2FA002005F0A5FF00F027
:101E1C0075FE06F0BBF8002005F0E6FF4C4A0123E6
:101E2C0010682B709BE7029B1F0700F17481002048
:101E3C0006F0BCFA002005F08FFF444BFF22197806
:101E4C00012006F05FF800F04FFEE2E7029B1C0752
:101E5C0000F1A5813E4C23681BB11B68002B40F0A0
:101E6C0027823D4B1E7806F049F93C4A3C4B1670D4
:101E7C00002001221A7006F099FA002005F06CFF80
:101E8C0000F03CFE06F082F8002005F0ADFF0523C3
:101E9C0020682B7063E706F061F9029B1E0704466D
:101EAC0000F14B812A4C206818B10368002B40F0DC
:101EBC00FF8105232B7052E7029B1807CAD59906A0
:101ECC009DF81C2004D5274B1B78002B18BF1A46F5
:101EDC0002A88DF81C20FEF7D7FFBBE7029B190761
:101EEC007FF526AF06F03AF90678C77890F80480AB
:101EFC0006F00F0602A90446FFF77AF8072E7FF4C6
:101F0C0017AF02A92046FFF7ABF800283FF410AF3B
:101F1C0002A8FEF7B9FF9DF81730002B3FF408AF6D
:101F2C00BB09013B012B40F27B8218F0200F40F0E3
:101F3C00478218F0100F3FF4FBAE38E001E90020A7
:101F4C00F8E8002010E9002009E9002005E900204C
:101F5C00C01B0020300300200CE9002006E9002003
:101F6C0007E9002002E90020029B1F077FF5E0AE85
:101F7C0006F0F4F802A9077906780446FFF738F85A
:101F8C0002A8FEF781FF9DF81730002B3FF4D0AE6E
:101F9C0006F00F06072E7FF4CBAE02A92046FFF702
:101FAC005FF800283FF4C4AEFE067FF5C1AE2046B4
:101FBC0002A9FEF7E5FFFFF797F8B44A092310686A
:101FCC002B70CCE6FEF75CFF029B1C0740F15481A2
:101FDC0090F83C320398022B00F07281042B14BF52
:101FEC0028234FF4BC73C01A01F048F902A8FFF77C
:101FFC00DDFCA64B186800287FF4B2AEB2E6029B5B
:10200C00190750D502A8FFF7D1FCA04B186800287F
:10201C007FF4A6AEA6E6029B1A0772D59DF8143083
:10202C000398022B00F04A81042B14BF28234FF491
:10203C00BC73C01A01F060F801F076F802A8FFF743
:10204C00CFF9924B186800287FF48AAE8AE6029B7F
:10205C001B0732D502A8FFF7C3F98C4B1868002870
:10206C007FF47EAE7EE6029B1B077FF561AE02A875
:10207C00FEF70AFF06F072F89DF817300446002BA5
:10208C003FF456AE037803F00F03052B00F06D817F
:10209C00032B7FF44DAE0498FFF700F87B4A0B231B
:1020AC0010682B705BE6FFF75FFC784B1868002814
:1020BC007FF456AE56E6754C73E6FFF7AFFC734BE8
:1020CC00186800287FF44CAE4CE606F047F802A9DD
:1020DC000446FEF78DFF02A8FEF7D6FE9DF81730DA
:1020EC00002B3FF425AE237803F00F03082B00F0F0
:1020FC001581072B7FF41CAE2379DE067FF518AE15
:10210C0055E701F009F8FFF789FC604B18680028C7
:10211C007FF426AE26E606F021F802A9FEF768FF4A
:10212C0002A8FEF7B1FE82E606F018F802A9FEF747
:10213C005FFF02A8FEF7A8FE63E6077802AE07F081
:10214C000F083146FEF754FFB8F1070F00F0178166
:10215C00029B980640F1EA804D4B9DF81C201F70A5
:10216C004C4B1B78134330468DF81C30FEF78CFE1D
:10217C009DF817302BB3B8F1020F22D005F0D4FF25
:10218C00454B187806F0E4F9444B049800221A7079
:10219C00FEF784FF3D4A062310682B70DFE502A88A
:1021AC00FEF772FE05F0DAFF037803F00F03052B40
:1021BC0000F09880032B04D19DF81730002B40F0D1
:1021CC00C580374B1C7805F099FF3649334B0C70A2
:1021DC00012200201A7006F0E9F8002005F0BCFD81
:1021EC0000F08CFCB2E505F0B9FF02AE31460446B6
:1021FC00FEF7FEFE3046FEF747FE05F0AFFF2A4A1B
:10220C000378127803F00F03002A61D09DF8172091
:10221C00002A3FF4F6AD002B00F09080062B00F066
:10222C008D80224A1278002A3FF4EBAD072B7FF405
:10223C00E8AD002006F0BAF8002005F08DFD00F0A6
:10224C005DFC05F0A3FE0127002005F0CDFD314615
:10225C0020462F70FEF794FE00F0A8FF283800F0FF
:10226C00C3FF01210246002006F090FA074B1860CC
:10227C0000287FF475AD75E501F00AF8FFF774FBE3
:10228C00024B186800287FF46BAD6BE5C01B002077
:10229C0004E9002002E900203103002007E90020B6
:1022AC000CE9002006E90020300300202F03002059
:1022BC00FEF71AFF082320682B7050E51823B8E6A8
:1022CC00182390E6FEF710FF042320682B7046E5D8
:1022DC006A4A1278002A3FF494AD9DF81720002A20
:1022EC00A4D18EE59DF81730002B3FF46AAF644BF8
:1022FC00187800287FF465AF05F02EFD05F02EFF51
:10230C000446FEF7BDFD5F4B22781B781340214637
:10231C00C3F340130122503000F042FD0498FFF744
:10232C00F7FB594A0E2310682B7018E59DF81C30EA
:10233C00002B3FF410AD534A177014E70498FEF7C6
:10234C00ADFE514A022310682B7008E505F0D6FE4D
:10235C004E4A4F490498012313700B70FEF79EFEF2
:10236C00494A072310682B70F9E4FEF789FD012315
:10237C0090F824222146503000F012FD8BE63146B5
:10238C002046FEF76DFE00283FF4E5AC3046FEF724
:10239C007BFD9DF81730002B3FF4DDAC002006F0E0
:1023AC0005F8002005F0D8FC00F0A8FB05F0EEFDC8
:1023BC00002005F019FD0523314620462B7049E716
:1023CC00FEF75EFD039F064605F0C8FE037913F089
:1023DC00010F0CBF05240B249A0748BF0634804616
:1023EC00580744BF0134E4B2190744BF0234E4B2C5
:1023FC00DA0644BF0334E4B29B0619D4B6F826427D
:10240C00002C3FF495ACFEF7ADFE0C2330462B7040
:10241C0002F08EFA1C4B186800287FF4A1ACA1E4E2
:10242C000498FEF73BFE184A0A2310682B7096E4BA
:10243C00FEF726FD08EB0401044600F2262094F872
:10244C00242200F019FD94F82432022B14D0042B12
:10245C0014BF28204FF4BC70381AB4F82A7294F8C0
:10246C002832B4F8262294F83112019794F82942B4
:10247C00009400F0D9FEC1E71820EDE72F030020EF
:10248C000AE9002004E90020C01B002007E9002015
:10249C0006E9002008B500220321104606F08EF94B
:1024AC00BDE808400321002006F0A6B90249034A02
:1024BC0000230B8013807047FAE80020FCE8002012
:1024CC00064B074A1B8812889A421DBF05484FF4D9
:1024DC00147202FB03000020704700BFFAE80020D2
:1024EC00FCE80020E8050020034A044B12884FF456
:1024FC00147000FB02307047FCE80020E805002057
:10250C00064A074913880988994205D0072B1ABF38
:10251C0001339BB200231380704700BFFAE8002000
:10252C00FCE80020044A1388072B1ABF01339BB226
:10253C0000231380704700BFFCE8002030B583787F
:10254C004578012B8CBFB0F900502DB283B0033508
:10255C000446ADB201A805F0ADFD01A96019032236
:10256C0006F03AFCA91C635C1A0142EA1312C2F38E
:10257C008500930003F0CC0300F0330213435A1090
:10258C005B0002F0550223F0550313436354691C9E
:10259C00635C1A0142EA1312C2F38500930003F044
:1025AC00CC0300F0330213435A105B0002F05502C7
:1025BC0023F0550313436354635D1A0142EA13126B
:1025CC00C2F38501930003F0CC0301F033021343F3
:1025DC005A105B0002F0550223F055031343635568
:1025EC0003B030BD38B50B4C237803B138BD0A4A63
:1025FC000A4803F0FF050123237013681B0A0371BB
:10260C001368C37006210133136000F025FA25709E
:10261C0038BD00BF11E90020E81D00200C0000208F
:10262C0070B50E4C237803B170BD0D4A0D4D0E499B
:10263C0003F0FF060123237013681B0A2B71136828
:10264C00EB7001331360A81D052203F0CFFB0B21A7
:10265C00284600F001FA267070BD00BF11E9002079
:10266C00E81D002020000020909A000070B5124C4C
:10267C00237803B170BD114A114DD0F80600012327
:10268C00237013681B0A2B711368EB7001331360F2
:10269C0000F00EFA0A21020C030E0646E8802846CA
:1026AC002A726B7200F0D8F918B116B1304600F0EE
:1026BC000BFA0023237070BD11E90020E81D0020E7
:1026CC0000000020704700BF1530704704291CBF64
:1026DC00FF2300F8013B704710B50378FF2B04462D
:1026EC0003D18379062B0BD00134A3786178012BAD
:1026FC0013D9218820460631BDE8104000F0ACB952
:10270C00153000F05DFEA37D22781433D9B2FF2A78
:10271C004FEA13236170A370E6D089B220460631CC
:10272C00BDE8104000F098B9F0B5214E154632784E
:10273C0083B00AB103B0F0BD1E4AC1711F4601231C
:10274C00337013681B0A03711368C370FF2D03F1F8
:10275C00010313600CBF427D827D4FF00A030CBF56
:10276C001432153283710323837002700623120A0C
:10277C0042704371044605F037FC207205F03AFCB8
:10278C003B0AE3726072A77201A805F05DFC04229B
:10279C000DEB020104F1100006F01EFBFF2D18BF1B
:1027AC0025752046FFF7CAFE0023337003B0F0BD39
:1027BC0011E90020E81D002070B50C4605460146C5
:1027CC001522204603F012FB2B78FF2B04BF01349B
:1027DC000023607DE27918BF0123034403F1140642
:1027EC0003F11B0103F1170008BF013542F0080289
:1027FC0036B2E27129442044032203F0F7FAC6F3FF
:10280C0007232670637070BD38B50E4C237803B166
:10281C0038BD0D490D4A03F0FF05012323700B68E9
:10282C00D0801B0A13710B68D37001330B60010C41
:10283C00030E117253720A21104600F00DF9257027
:10284C0038BD00BF11E90020E81D00201400002055
:10285C0008B500F0DDF8034660B100688178427875
:10286C00012988BF0288596898BF92B2931D8B4288
:10287C0018BF002008BD00BF4079704738B504462A
:10288C00154606220846A11806F0A6FA237B2B70E3
:10289C0038BD00BF90F802C04378BCF1010F8CBF6B
:1028AC0003889BB2073B0D3013700860704700BF64
:1028BC000B461022811D184603F098BA063070475B
:1028CC000630704706307047063070478379CB70FE
:1028DC00C3790B70037A4B70437A8B70704700BFCF
:1028EC0090F802C04378BCF1010F88BF038810B484
:1028FC0088BFDBB2841D13700C6010BC704700BF26
:10290C004FEA112C0A0C0B0E017380F80DC0827368
:10291C00C3737047F0B5214E1546327883B00AB1B7
:10292C0003B0F0BD1E4AC1711F46012333701368FA
:10293C001B0A03711368C370FF2D03F101031360AD
:10294C000CBF427D827D4FF00A030CBF143215324E
:10295C0083710323837002700223120A4270437145
:10296C00044605F041FB3B0AE3722072A77205F0A6
:10297C0041FB607201A805F067FB04220DEB02011C
:10298C0004F1100006F028FAFF2D18BF257520461B
:10299C00FFF7D4FD0023337003B0F0BD11E9002024
:1029AC00E81D0020704700BF704700BF38B5104CC1
:1029BC001048114D05F0A0F84FF4806220460F49E5
:1029CC0006F024FA21460E4806F070FB4FF4404204
:1029DC0028460C4906F01AFA29460B4806F066FB05
:1029EC002A4621460948BDE8384005F06FBF00BFB4
:1029FC007422002012E900209CE20020741E0020AA
:102A0C00842200209C220020902200202C000020F8
:102A1C0010B50D4C0D4A0E4821468023C4E9002305
:102A2C0006F0A2FB002808BF002406F00DF808B140
:102A3C00204610BD074806F0EFF90028F8D106F043
:102A4C000BF8204610BD00BF6C1E0020EC1D0020B2
:102A5C00842200207422002030B5034683B0114834
:102A6C00CDE9003105F04CF8044610B9204603B00E
:102A7C0030BD684606F024FB05460B4806F0DAF933
:102A8C0085420AD901F0D6FF0024064805F048F823
:102A9C0005F0A4FF204603B030BD0448694606F09B
:102AAC002BFBF2E712E900209CE200209022002090
:102ABC00B0F5E12F034604D00248834218BF002032
:102ACC007047704740420F00B0F5E12F06D0054B20
:102ADC00984200D07047112005F042BF0F2005F03E
:102AEC003FBF00BF40420F00024A034B0021187841
:102AFC001170704713E90020340000200549064A84
:102B0C000B78D0780133B3FBF0FC00FB1C330B705B
:102B1C00D05C704713E9002034000020014B0068A2
:102B2C001860704734000020F0B5B3F802E01B8841
:102B3C009EFA9EFE5BBA8EEA030E1FFA8EFE82EAA6
:102B4C000E06044603220023370A9C4647FA0CF073
:102B5C00CCF1070500F00100A8400CF1010C034377
:102B6C00BCF1080FDBB2F1D11B0200250FFA83FC7C
:102B7C00F7B2284647FA00F3C0F1070603F0010349
:102B8C00B34001302B430828DDB2F3D14CEA0503E6
:102B9C009BB203EB03137344013A9EB2D3D1104D95
:102BAC008EEA0603A5FB03255A1B05EB52056D099E
:102BBC0005EBC50205EB82055D1BC5F3C402E8B24B
:102BCC00A45C05F00705012202FA05F52C4205D19B
:102BDC0091F8256006FB03F31B14C85CF0BD00BF25
:102BEC004D91CFBA0F4A30B500230F4D106000F154
:102BFC00220E01241846C3F3C40103F007021EF889
:102C0C00011004FA02F211425FFA83FC03F1010392
:102C1C0003D0421C05F800C0D0B2252BEBD185F8AF
:102C2C00250030BDACE20020B4E2002030B51149E3
:102C3C00114C124D08600022227000F1220E134636
:102C4C0010460124C3F3C40103F007021EF801105F
:102C5C0004FA02F211425FFA83FC03F1010303D080
:102C6C00421C05F800C0D0B2252BEBD185F825000D
:102C7C0030BD00BFACE2002014E90020B4E200201B
:102C8C00184B1B68997B024603F1220019B11649B7
:102C9C001E33FFF749BF154993F810C00B78144A3F
:102CAC00634482FB03C21A44521102EBC20C02EBC6
:102CBC008C029B1ADBB2DA0803F0070C805C0B70F9
:102CCC00012202FA0CF2104201D018467047064A53
:102CDC0092F82500B3FBF0F100FB1133DBB2D35CAF
:102CEC0018467047ACE20020B4E2002014E9002042
:102CFC00A7C867DD0F4A30B500230F4D106000F1F7
:102D0C00060E01241846C3F3C40103F007021EF893
:102D1C00011004FA02F211425FFA83FC03F1010381
:102D2C0003D0421C05F800C0D0B2252BEBD185F89E
:102D3C00250030BDB0E20020DCE200200F4A30B5A7
:102D4C0000230F4D106000F1060E01241846C3F34A
:102D5C00C40103F007021EF8011004FA02F211423A
:102D6C005FFA83FC03F1010303D0421C05F800C099
:102D7C00D0B2252BEBD185F8250030BDB0E2002078
:102D8C00DCE20020044B05490246186800F10C03F4
:102D9C000630FFF7C9BE00BFB0E20020DCE2002025
:102DAC00F8B504460D4616460331062207301F4679
:102DBC0003F01CF82946062211F8093BC3F38013D3
:102DCC006373204603F012F82946042211F80F0B06
:102DDC00A773C309A37104F11E0005F0FDFF05F1F3
:102DEC001301032204F11B0003F000F8AB7DE37325
:102DFC00B5F817306382B5F81930A382B5F81B30DB
:102E0C00E382B5F81D30238305F11F0104F1220084
:102E1C00052202F0EBFF95F8243003F01F03237416
:102E2C0095F8243084F827605B09A37684F8286031
:102E3C002046BDE8F840FFF7F9BE00BF0B7803F061
:102E4C003F0343710B78C3F3801303700B78DB09DA
:102E5C004370B1F80130C3F30C0343808B785B09EA
:102E6C00012B05D0022B14BF0123042303717047DF
:102E7C0002230371704700BF70B50B88C3F30C03BA
:102E8C0003804B78C3F3401383704B78C3F38013E8
:102E9C00C3700D464B8883801646042204461144A9
:102EAC00063002F0A3FF2B7A03F01F03A3722B7AD8
:102EBC005B09E37205F1090104F10C00042205F031
:102ECC008BFF05F10D0104F11000032202F08EFFBF
:102EDC002B8AA675A3822046BDE87040FFF70ABF77
:102EEC0010B500F242210446052200F50B7002F0E9
:102EFC007DFF04F22620BDE81040FFF71FBF00BF86
:102F0C000346503093F8A020B3F89CC0B3F89E1041
:102F1C00A3F872C0A3F8741083F87620FFF762BE92
:102F2C0000B58E46CA7BC2738446498ABEF814002B
:102F3C00BEF81830BEF816E0ACF816E0ACF812107B
:102F4C005DF804EBACF81400ACF8183000F04EB897
:102F5C0091F827300BB180F8273091F828300BB15D
:102F6C0080F82830704700BFB0F5506F94BF002038
:102F7C000120704710B594469DF80C20194CBDF8F3
:102F8C0008E002F00F02B1F5506F34F81220164C25
:102F9C0062844FF00002C4E9062240F2E242206053
:102FAC00A062A2601AD94FF47A7202FB01F1A1F56A
:102FBC004B11A1F5006140F2E242616002FB0CF1A1
:102FCC0003FB02F242F21073002003FB0EF3C4E980
:102FDC0003126362606184F8200010BD02FB01F1F2
:102FEC00E9E700BF9C9A000004E3002010B4174CE2
:102FFC00D4F804C0C4F81CC0B0F5506FD4F814C099
:10300C00C4F818C01CD94FF47A7C0CFB00F0A0F566
:10301C004B10A0F50060606089B240F2E24000FB0A
:10302C0001F100FB02F242F2107000FB03F30020EE
:10303C00C4E903126362606184F8200010BC70471D
:10304C0040F2E24C0CFB00F0E5E700BF04E300208B
:10305C00124A1349D2F818C0D06993680CFB0000CF
:10306C00D2F80CC09C44604492F82030D2F814C0C2
:10307C006344D2F804C00CFB0300538C1268323347
:10308C009BB200FB03F303F57423203A03F23F23B6
:10309C001044A1FB0323A0EB9340704704E30020F2
:1030AC0083DE1B43124A1349936830B4D2E90640BD
:1030BC0004FB0000D46815691C44204492F82030AD
:1030CC0054692344546804FB0300538C1468323352
:1030DC009BB200FB03F3621903F57423203203F255
:1030EC003F231044A1FB032300EB934030BC7047FB
:1030FC0004E3002083DE1B43064B00220121C3E9BD
:10310C000322C3E906225A6118609A6083F82010E2
:10311C00704700BF04E30020024A53690133536136
:10312C00704700BF04E30020014B1A689A62704795
:10313C0004E30020104B93F820205869BAB110B466
:10314C00D3E902411A6822440A449C6A5968121B4A
:10315C0000FB0110D3E90641104404FB01115B6A2A
:10316C0010BC084483428CBF002001207047052806
:10317C0094BF00200120704704E30020002B01F0D5
:10318C000301084B10B4084C33F81130206014BF05
:10319C004FF02C0C4FF01E0C84F806C02381A2803B
:1031AC0010BC7047989A000030E3002010B40C4912
:1031BC000C4C0B8988888A79323300FB02F29BB263
:1031CC0002FB03F3086803F57423203803F23F2352
:1031DC001044A4FB0323A0EB934010BC704700BF2A
:1031EC0030E3002083DE1B436438704710B40C4975
:1031FC000C4C08898B798A88323002FB033280B2FE
:10320C000B6802FB00F000F5742000F23F20203325
:10321C00A4FB0010134403EB904010BC704700BF9C
:10322C0030E3002083DE1B4310B5002B01F00F01AF
:10323C00104B9DF8084033F811100F4BBDF80CC023
:10324C00186014BF4FF4967E4FF01E0E9981002C1F
:10325C0040F2E2414FF0000014BF4FF4161400246A
:10326C0001FB0CF19882A3F806E09A809C6019612E
:10327C0010BD00BF9C9A00003CE30020034B0022D1
:10328C000121C3E900029A60998270473CE3002057
:10329C00024A537D01335375704700BF3CE3002055
:1032AC0010B40F4A0F4C9388D188906801FB03002F
:1032BC00537D117D1944136903FB01009389126836
:1032CC0032339BB200FB03F303F57423203A03F271
:1032DC003F231044A4FB0323A0EB934010BC704786
:1032EC003CE3002083DE1B4300B5114B597D1A7D56
:1032FC00B3F806C0B3F804E018690A4499680CFBEB
:10330C000E1100FB021298891B680A49323080B2F8
:10331C0002FB00F000F574202033634400F23F20E0
:10332C00A1FB0010134403EB90405DF804FB00BFBD
:10333C003CE3002083DE1B43034B587D052894BFE0
:10334C0000200120704700BF3CE3002010B5102284
:10335C0004460021074802F089FD1022002104F1E7
:10336C00170002F083FD0448214604F0E1FBA4F8A9
:10337C00BC0010BD34E400202139000070B50025DC
:10338C000E460446062207310571857180F8BE5041
:10339C0000F5947002F02AFD737B84F82E3106221E
:1033AC00314604F5BA7002F021FDB37984F87A3114
:1033BC0084F8C05084F8BF5084F8C25070BD00BF70
:1033CC002DE9F041037813F003052ED190F9032079
:1033DC004678C378002A044629DA13F0400F00F12E
:1033EC00040106F1020200F10A0003F03F070CBFD2
:1033FC004FF01B084FF0520802F0DEFC062384F855
:10340C00078027726572194622783344043B1BB23D
:10341C0042F00202C3F3072031442270E37004220D
:10342C000023617020716271A371BDE8F081C11C31
:10343C00F21C073002F0C0FC04231946E4E700BF7D
:10344C0070B5054614461E4604F028FE2C606E71BD
:10345C0063782BB120B1237803F00303032B00D046
:10346C0070BDE378052B07D00B2BF9D1002EF7D1CB
:10347C00BDE87040FEF758B905F1B30105F127001E
:10348C00BDE87040FEF72AB92DE9F04100F1E807DC
:10349C003B4904464022384602F074FC04F59A7805
:1034AC00374940220646404602F06CFC0546BEB940
:1034BC00002848D041463348202205F08DFC324884
:1034CC0004F5AA71202205F087FC0123B4F8BC0096
:1034DC0084F8C06084F8BF30BDE8F04104F044BB10
:1034EC00A8B939462748202205F076FC264804F571
:1034FC008471202205F070FC0123B4F8BC0084F820
:10350C00C05084F8BF30BDE8F04104F02DBB1F491A
:10351C004022384602F036FC00BB1A4820224146B5
:10352C0005F05AFC1848202204F5AA7105F054FC49
:10353C000123B4F8BC0084F8C03084F8BF30BDE877
:10354C00F04104F011BB1249202204F1C30005F034
:10355C0043FC012384F8BE30BDE8F0810B494022C6
:10356C00404602F00FFC0028F6D1064820223946CE
:10357C0005F032FC0448202204F58471D6E700BF24
:10358C00CC9A0000B4E30020D4E3002074E30020C4
:10359C000C9B00002DE9F04385B0044615461E46F1
:1035AC000F4604F07BFD256066716B78804676B122
:1035BC0004F1E40943B12B7803F00303022B3CD054
:1035CC00032B10D0012B05D005B0BDE8F08304F51A
:1035DC009879EFE7B8F1000F40F09B8089F84B80A9
:1035EC0005B0BDE8F083B8F1000FEDD0EE78042EF5
:1035FC0000F0C780062E00F0BF80032EE4D1291DF9
:10360C00082204F1810002F0F1FB2046022250F85E
:10361C00891B0C3102F0EAFB2046082250F88B1B68
:10362C000E3102F0E3FB2046042250F8AB1B16319E
:10363C0005B0BDE8F04302F0D9BBB5F80530A9F8E8
:10364C000030B8F1000FC9D0062BC7D1EB7989F83F
:10365C000230013B002E00F0AB800B2BBED801A238
:10366C0052F823F019370000E9350000E935000065
:10367C0003370000E9350000ED360000E9350000A5
:10368C00D7360000E9350000E9350000E9350000C7
:10369C00A13600000123A3716B7805F108015D1FB1
:1036AC00EDB2402D2E46A8BF4026324609F104004B
:1036BC0002F09CFB89F803606379002B8ED13F2DBF
:1036CC008CD92046FFF7E0FE88E705F10801002EB3
:1036DC0000F09D80102204F1410002F087FB7DE791
:1036EC00002E7FF47BAF102205F1080104F11700C6
:1036FC0002F07CFB72E705F108011022002E00F0AD
:10370C00948004F1610002F071FB67E701232371DF
:10371C0064E73146384600F0A3FF20B199F84B30EE
:10372C00002B7FF45BAFB9F80030062B7FF456AF5B
:10373C006379002B68D004F1E406B3780C2B7FF48A
:10374C004DAF2168F3784D78EA18402AC4BFC3F115
:10375C004005EDB20433F0182A46033102F046FB63
:10376C00F3782B44DBB2F3706279002A7FF436AF26
:10377C00402B7FF433AFA4E705B0BDE8F04300F075
:10378C00D1B9291D082204F1930002F02FFB204629
:10379C00324650F8AF1B0C3102F028FBB4F8BC00D9
:1037AC00012384F8C23005B0BDE8F04304F0DCB965
:1037BC000B2B3FF613AF01A252F823F01937000080
:1037CC00E9350000E935000003370000E935000059
:1037DC00F3360000F9370000D7360000E935000059
:1037EC00E9350000E9350000A136000005F11001B3
:1037FC00022204F1370002F0F9FA0822A91804F1A8
:10380C00390002F0F3FAE9E604F5987695E75134BD
:10381C001022204602F0EAFA68461022214605F0F2
:10382C00DBFA6846FDF73CFFD8E604F1710002F0C4
:10383C00DDFAD3E610B583798AB00446D3B190F89B
:10384C00BE300BB90AB010BD02A804F5BA73CDE9AD
:10385C00003004F1710204F1610104F5947304F178
:10386C00C30000F047FE102206A9E01D02F0BEFACC
:10387C000AB010BD0548E31D04F1610204F17101A9
:10388C000AB0BDE8104000F01FBE00BF34E40020B9
:10389C00037970B5044693BB04F19B05082204F12F
:1038AC008B01284602F0A2FA082204F1930104F1DC
:1038BC00A30002F09BFA042204F1AB0104F1B30063
:1038CC0002F094FA042204F1AF0104F1B70002F003
:1038DC008DFA022104F1890005F06EFA04F1270635
:1038EC0028B1082104F1810005F066FA50B92A4686
:1038FC0004F117013046BDE8704000F01BBBFFF728
:10390C0099FFC9E72A46E11D3046BDE8704000F03A
:10391C0011BB00BF90F8BF3010B50446EBB994F85A
:10392C00C13053B994F8C23003B910BD2046FFF72B
:10393C00AFFF002384F8C23010BD1249124805F0C5
:10394C007BFC1148202105F051FA1048202105F08C
:10395C004DFA002384F8C130E4E70D4B90F8C00019
:10396C0008490C4A002808BF19460B4805F078FC9A
:10397C000949202204F1C30005F02EFA0123A4F812
:10398C00BE30CCE754E3002074E3002094E3002025
:10399C00AC9A0000B4E30020F4E3002001461022AE
:1039AC00014805F019BA00BF34E400200248102287
:1039BC00002102F05BBA00BF34E4002010B52022D5
:1039CC000446064802F012FA0123B4F8BC0084F84D
:1039DC00C130BDE8104004F0C7B800BF54E300206C
:1039EC001022173005F0F8B91022073005F0F4B9A1
:1039FC002DE9F04F0668394A377807EBC70302EB1D
:103A0C004313D6E904A9D3E944018BB0824579EB81
:103A1C0001034FEAC70206F118043CBF82468946EF
:103A2C0009920794FDF72CFA00F108082046FEF7DE
:103A3C004BFE06F59973049018460893FEF744FE66
:103A4C001AF1040306934FEAC70303EB0705234B54
:103A5C00059049F1000B03EB45155B46C346D04678
:103A6C009A46049B0393059B02931D4B019318F1FB
:103A7C00010249F10009317800914B4619489046F2
:103A8C0000F0C0FC4246044600904B46394658466E
:103A9C0000F0FAFD84B9B5F81811069BC5F8108131
:103AAC000131D14508BF9845A5F81811C5F81491F6
:103ABC00D7D10BB0BDE8F08F099B3B441F46074B99
:103ACC00DDE9071003EB47170023F370A7F8183153
:103ADC000BB0BDE8F04FFEF76FBE00BF68180020BA
:103AEC0044E400204CE4002008B50349034804F0EA
:103AFC001FF8034B188008BD5CE40020FD39000062
:103B0C00FEE8002008B54FF410720448002102F0C2
:103B1C00ADF9034B00221A7008BD00BF68180020D5
:103B2C0015E90020014B01221A70704715E900209D
:103B3C0010B503460C4606481022194605F04CF900
:103B4C0021460448BDE81040082202F04FB900BFDE
:103B5C004CE4002044E4002070B491F80EC0CC7BFF
:103B6C0000B384F001034370D4B14B7C03BB1C46FF
:103B7C0083700CEBCC03C4705B010F4CD1E906567F
:103B8C00E35880F800C09B1AB3FA83F3C0E90456DB
:103B9C005B09037182604FEACC0363445B01E25022
:103BAC0070BC7047002CFBD0034C4FEACC03F4E7FD
:103BBC000C7C84F00104DBE7681800202DE9F84345
:103BCC0046788EB9C378057804467BB1037923BB5C
:103BDC00254B1B7843B1254B05EBC50503EB451570
:103BEC00B5F81831632B36D9BDE8F8838378002BF0
:103BFC00FAD01830FEF768FD05EBC50542781B4E70
:103C0C006D01014605F1080003323044354402F0E1
:103C1C00EDF8A3686B60BDE8F883144F826805EB80
:103C2C00C5054FEA451807EB45156B689A42DBD181
:103C3C0000F118094846FEF747FD6A7A08F10801B9
:103C4C003944033202F0D2F8494604F59970FEF774
:103C5C00B3FDE670C8E7064B064A1C601088BDE849
:103C6C00F84303F081BF00BF15E90020681800205D
:103C7C005CE40020FEE800202DE9F84FDFF8A0817D
:103C8C00DDF828A002F10F0714460D460D2201465F
:103C9C001E4608F11100012388F810304FF000097E
:103CAC0002F0A4F84046A8F81E9004F00FFB98F818
:103CBC0020209AF8003053408AF8003098F82120E0
:103CCC009AF8013053408AF8013098F822209AF87B
:103CDC00023053408AF8023098F823209AF80330C7
:103CEC004FEA171B53408AF80330BBF1000F2ED05C
:103CFC005F464FEA091A09F101095FFA89F9404652
:103D0C0088F81F9004F0E2FA102C5FFA8AFA234626
:103D1C00A8BF10230F2C06EB0A0E05EB0A0218D8CD
:103D2C008CB1591E3F4B02F1FF3C0EF1FF3E52FA93
:103D3C0081F11CF8010F13F8012F8C4580EA020069
:103D4C000EF8010FF5D1103C4F45E4B2D1D8BDE8C7
:103D5C00F88F98F8201015F80A304B4006F80A3006
:103D6C00537898F821104B408EF80130937898F8DE
:103D7C0022104B408EF80230D37898F823104B4029
:103D8C008EF80330137998F824104B408EF80430D9
:103D9C00537998F825104B408EF80530937998F8A4
:103DAC0026104B408EF80630D37998F827104B40EC
:103DBC008EF80730137A98F828104B408EF808309C
:103DCC00537A98F829104B408EF80930937A98F86A
:103DDC002A104B408EF80A30D37A98F82B104B40AF
:103DEC008EF80B30137B98F82C104B408EF80C305F
:103DFC00537B98F82D104B408EF80D30937B98F830
:103E0C002E104B408EF80E30D37B98F82F20103CA0
:103E1C0053404F458EF80F30E4B23FF66AAF96E749
:103E2C0070E400208FE400202DE9F04F3F4C83B06C
:103E3C001D460F4603F10F0901464923904604F134
:103E4C0011000D2223740026DDF830A001F0CEFF06
:103E5C0020464FEA191BE577A67704F037FA4FF4A2
:103E6C0080730D22314604F11300A774238201F0F4
:103E7C00FDFFBBF1000F3ED0CDF804A004F11007FC
:103E8C00C246B146A8460AE009F101095FFA89F376
:103E9C00A8F110089B4599465FFA88F829D9D4E90E
:103EAC0009202169A369266AE56A71404340666965
:103EBC00E069724045402046C4E90412C4E9063565
:103ECC0004F004FA42464FEA0911102AC9B2A8BFFD
:103EDC0010225144384601F089FFB8F10F0FD3D8A6
:103EEC0008F11000C8F110020021204401F0BEFFBF
:103EFC00CAE7DDF804A0206AA269D4E904134140A2
:103F0C002161A06A616A42405940C4E90512E36923
:103F1C00E26A06485340E36104F0D8F904490422EC
:103F2C00504603B0BDE8F04F01F060BF70E40020D4
:103F3C0090E400200B4611460246184604F090B956
:103F4C0030B585B00C4615461C496A4604F088F914
:103F5C000DF1FF30611E0DF10F0C002310F8012F35
:103F6C0043EA4203844501F8013F4FEAD213F5D1ED
:103F7C009DF90F302178002B16DB681E224605F1C7
:103F8C000F0C002300E0117843EA410300F8013FD5
:103F9C0012F8013B60454FEAD313F4D194F90F307A
:103FAC00002B05DB05B030BD81F087012170E4E703
:103FBC002B7883F087032B7005B030BD60E40020B4
:103FCC002DE9F04F9DB00D461F46079008A91446E9
:103FDC0028460CAAFFF7B4FF07F10F010E0907F0F2
:103FEC000F0B40F0FC803146102214A801F03EFF6C
:103FFC0018AE10ABCBF11000214618445A4601F014
:10400C00F5FECBF10F021CAB1344802103F8301CDE
:10401C00002A40F0EF819DF840B09DF830309DF8BB
:10402C0041A09DF842909DF843E09DF844C09DF856
:10403C0045709DF846409DF847009DF848109DF846
:10404C0049208BEA030B9DF831308DF840B08AEA99
:10405C00030A9DF832308DF841A089EA03099DF8D6
:10406C0033308DF842908EEA030300938DF8433081
:10407C009DF834308CEA030301938DF844309DF89D
:10408C0035307B4002938DF845309DF836306340D7
:10409C0003938DF846309DF83730434004938DF8E8
:1040AC0047309DF838304B4005938DF848309DF8DB
:1040BC0039309DF84B709DF84CE09DF84DC09DF843
:1040CC004E40534006939DF84A208DF849309DF898
:1040DC003A3082EA03089DF83B209DF84F308DF86A
:1040EC004A8057409DF83C208DF84B708EEA020EAA
:1040FC009DF83D208DF84CE08CEA020C9DF83E209A
:10410C008DF84DC054409DF83F208DF84E405340E3
:10411C008DF84F3028469DF85050079A8BEA0505CC
:10412C008DF860509DF851508AEA05058DF8615064
:10413C009DF8525089EA050531468DF86250009E73
:10414C009DF853506E408DF863609DF85450019E5D
:10415C006E408DF864609DF85550029E6E408DF84F
:10416C0065609DF85650039E6E408DF866609DF814
:10417C005750049E6E408DF867609DF85850059E10
:10418C006E408DF868609DF85950069E6E409DF803
:10419C005A508DF8696088EA05058DF86A509DF8CB
:1041AC005B506F408DF86B709DF85C508EEA050E7D
:1041BC009DF85D508DF86CE08CEA050C9DF85E5016
:1041CC008DF86DC06C408DF86E409DF85F4063407B
:1041DC008DF86F3004F044F81DB0BDE8F08F10225C
:1041EC00002114A801F042FE012E5FFA86F900F0BE
:1041FC000681A9F102095FFA89F3A4F11009B94407
:10420C00A9EB031904EB0708A7F1100A18AEA8EBE9
:10421C0007039DF8500013F80A2018F80F1C18F823
:10422C000E3C42408DF860209DF852009DF85120C4
:10423C00434051409DF8530018F80D2C8DF8611037
:10424C00424018F80C1C9DF855008DF862308DF822
:10425C00632018F80B3C9DF85420434051409DF8C6
:10426C00560018F80A2C8DF86410424018F8091CF6
:10427C008DF866209DF857209DF858008DF8653014
:10428C00514018F8083C18F8072C8DF867109DF869
:10429C00591043404A408DF868309DF85A1018F870
:1042AC00063C8DF869204B408DF86A3018F8052CC7
:1042BC009DF85B0018F8041C18F8033C42408DF87C
:1042CC006B209DF85C209DF85D0051408DF86C10C2
:1042DC0018F8022C9DF85E1043404A408DF86D3062
:1042EC009DF85F1018F8013C8DF86E204B40A8F13A
:1042FC00100814AA314628468DF86F3003F0B0FF31
:10430C00C84584D1BBF1000F7FF473AE94F800B0B4
:10431C009DF8203094F801A094F80290E2788BEA92
:10432C00030B9DF821308DF840B08AEA030A9DF802
:10433C0022308DF841A089EA03099DF823308DF8CD
:10434C0042905340009322798DF843309DF82430ED
:10435C005340019362798DF844309DF825305340D9
:10436C000293A2798DF845309DF826305340039383
:10437C00E2798DF846309DF8273053400493227A29
:10438C008DF847309DF82830534005938DF8483010
:10439C00627A9DF82930E77A94F80CE094F80DC015
:1043AC00A17B53400693A27A8DF849309DF82A30B0
:1043BC0082EA03089DF82B30E27B8DF84A805F403F
:1043CC009DF82C308DF84B708EEA030E9DF82D3035
:1043DC008DF84CE08CEA030C9DF82E308DF84DC016
:1043EC0081EA03049DF82F308DF84E4053408DF830
:1043FC004F308FE610A8002101F038FD0BE618AE07
:10440C0080E700BF2DE9F04F89B01D46149F9DF841
:10441C0048B07E78DDF85490043EF6B20DF10C08ED
:10442C00F11C1446824639440422404605F03F05EF
:10443C0001F0DCFC45EACB15082224FA02F38DF8D6
:10444C0014503D4613998DF810408DF811300DF134
:10445C001500230C240E8DF812308DF8134001F04A
:10446C00C5FC15F8034B17485146102209F1030AF5
:10447C0001F0BCFC04F0E30429465346324604A880
:10448C00CDF80080FFF7F8FB214602AC524604A899
:10449C0000943346FFF7C8FC41462046042201F045
:1044AC0071FC18B1002009B0BDE8F08F3B7889F899
:1044BC00003089F80160BB7889F80230012009B01E
:1044CC00BDE8F08F70E4002070B5164684B0082269
:1044DC0005460DEB02001C4601F088FC3146082213
:1044EC00684601F083FC6A4629462046FFF722FD08
:1044FC0004B070BD2DE9F04393B015460C4602464E
:10450C001E46684620231D49DDF86C804FF00009DB
:10451C00FFF756FD01271A998DF8109007220DF11F
:10452C0012008DF8117001F061FC314607220DF17B
:10453C00190001F05BFC2946102208A801F056FC7A
:10454C00214610220CA801F051FC0D49042210A8A0
:10455C0001F04CFC04AA6946404635238DF8449082
:10456C00FFF72EFD352304AA694608F110008DF8DB
:10457C004470FFF725FD13B0BDE8F083309B0000BD
:10458C002C9B000010B538220021044601F06EFC73
:10459C004FF0FF334FF0FF32C4E90C23C4E906237C
:1045AC00012384F82230A37210BD00BF01230370D5
:1045BC00704700BF2DE9F047567C91F800C0917B05
:1045CC00CCF3800581F0010ECCF3C00C0EB1137C42
:1045DC0083BB01EB410300EBC3030EEB4E029C7A51
:1045EC0000EBC202A4EB0C04977A1E73B4FA84F4A9
:1045FC00640906781C7287EA05045C724C008EB163
:10460C00167B7EB10EF1010E0EEB4E0E00EBCE06BC
:10461C0050F83EA0D6F80480D2E9046EF04508BFED
:10462C00B24511D0214400EBC10080F80AC0C5721C
:10463C00BDE8F087D2E906234C1C04EB440400EBE4
:10464C00C404C4E90023C4E7AF42EBD0DB7AAB422D
:10465C00E8D001364EF1000316615361E2E700BF6A
:10466C0001EB410100EBC101087A704701EB4101FC
:10467C0000EBC101487A704701EB410100EBC1012D
:10468C00D1E90401704700BF2DE9F0410D461F46EA
:10469C00164604469DF8188003F022FA05EB450CEB
:1046AC0004EBCC0CDCE90423964277EB03034FEAD2
:1046BC00450106D3731CCCF8103047F10003CCF83D
:1046CC001430B8F1000F09D0294404EBC104D4E92B
:1046DC000623B242BB4138BFC4E90667BDE8F041CE
:1046EC0003F006BA90F8422003461AB190F8430042
:1046FC0000B1704793F840000028FAD093F84100BD
:10470C00704700BF00230122027080F84C3080F803
:10471C004830036480F84430704700BF10B50B7804
:10472C0003F00303032B0ED082F0010400EB4404CE
:10473C0094F8403003B910BD11460830FFF796FFCE
:10474C0084F8410010BDCB78182BEDD801A454F897
:10475C0023F000BF054800005F480000B14800008E
:10476C00354700003547000035470000354700004D
:10477C00354700003547000035470000354700003D
:10478C00354700003547000035470000354700002D
:10479C00354700003547000035470000354700001D
:1047AC00354700003547000035470000354700000D
:1047BC0035470000C5470000B1F806E04388404C7F
:1047CC00AEEB030384FB03C404EB030CDC17C4EB58
:1047DC00EC34C4EB04441B1B47F6FE74A342A3DC6D
:1047EC000B7980F8A130497980F8A210012380F868
:1047FC004830A0F84AE097E7B1F80DE04388304C18
:10480C00AEEB030384FB03C404EB030CDC17C4EB17
:10481C00EC34C4EB04441B1B47F6FE74A3424CDC83
:10482C000B7980F88930B1F80530A0F88C30B1F8EC
:10483C000730A0F88E30B1F80930A0F89030B1F8FC
:10484C000B10A0F89210012380F84430A0F846E039
:10485C006AE7B1F809E04388194CAEEB030384FB1B
:10486C0003C404EB030CDC17C4EBEC34C4EB0444BE
:10487C001B1B47F6FE74A3421FDC0B7980F89C309F
:10488C004B7980F89D308B7980F89E30CB7980F80D
:10489C009F30097A80F8A010012380F84C30A0F8E2
:1048AC004EE041E700EB420393F8401000297FF4FF
:1048BC003BAF012183F8401036E70023037033E748
:1048CC000180008090F84C20438810B504461AB142
:1048DC00B0F84E209A4223D094F844201AB1B4F880
:1048EC0046209A4211D094F848201AB1B4F84A20C4
:1048FC009A4200D010BD04F17A0104F15000FEF789
:10490C0027FB002384F8483010BD04F17A0104F130
:10491C005000FEF705FB0022638884F84420E2E790
:10492C00FEF7EEFA0022638884F84C20D4E700BF2F
:10493C00002380F83E3270472DE9F04FD0F84872D2
:10494C003B79FC7813F0010F0CBF05250B259A075A
:10495C0048BF06355E0744BF0135EDB280461807E7
:10496C0044BF0235EDB2D90644BF0335EDB29A0609
:10497C0044BF1235EDB25B0644BF0135EDB204F015
:10498C003F04641B053424B2002C83B034DDDFF803
:10499C0070A047F6FE7908F2422B05E0A41B24B266
:1049AC003544002CEDB227DD7B197E5D5A78282A20
:1049BC00F4D1D8F84822DB79B8F83A122A44127AA2
:1049CC0043EA02235A1A8AFB02018818D117C1EB59
:1049DC00E031C1EB0141521A4A45DFDCA91C3944D4
:1049EC0005225846019301F001FA019BA8F84032C8
:1049FC00012388F83E32D1E703B0BDE8F08F00BF49
:104A0C000180008090F83E3243B1B0F83A22B0F801
:104A1C0040329A4210B5044601D010BD7047FEF7E3
:104A2C005FFA002384F83E3210BD00BF704700BF10
:104A3C00704700BF704700BF704700BF704700BF92
:104A4C00704700BF30B1436803F00303012B07D05C
:104A5C00032B02D06FF0150070470368002BF9D0C0
:104A6C0000238360184670474268816002F003029D
:104A7C00032A03460CBF0068002000225A607047CE
:104A8C002DE9F04F0646008B83B010F0080301931C
:104A9C0040F0E38000F00707DFF830A2BC460229A3
:104AAC00BFB2144653D1002F40F08F803368002BD7
:104ABC0000F08F8020F00701336941F0060189B2C4
:104ACC00D3F8009031830627674500F09580B368D2
:104ADC00002B00F091800025AB4641F0080131839A
:104AEC0084F31188BFF36F8FB16889B10C68A84645
:104AFC005B464D683A463046A84744B12146246887
:104B0C004D685B463A463046A847002CF6D14546E0
:104B1C00002D39D1B9F1000F02D051463046C847AB
:104B2C004FF04003EFF3118483F31188BFF36F8FC1
:104B3C00318B21F0080189B222463183C80638D561
:104B4C0021F0100080B201F007073083BC46D6F884
:104B5C0014B0BBF1000F75DB791F012966D9042F46
:104B6C0000F099800025674540F0A8800146002D93
:104B7C00E4D040F00800308384F31188BFF36F8FCA
:104B8C004FF00009002DC5D02846594650F8048B2B
:104B9C00FFF76AFF044640B129465B463A46304669
:104BAC004546A047002DEFD1B4E74546002DEBD18B
:104BBC00B0E78B060DD521F0200080B201F0070C78
:104BCC003083022100F0070769E7022F1FD1738B96
:104BDC0033B184F31188BFF36F8F03B0BDE8F08F4E
:104BEC00336920F00701042741F004016745D3F82D
:104BFC00049031837FF46BAFB9F1000F9ED041F07C
:104C0C000801318382F31188BFF36F8F85E7012F81
:104C1C00DFD13368002BDCD0336920F0070141F081
:104C2C000501D3F80890318305274DE7019B3568C2
:104C3C00736020F00700062F80B2336016D03083EB
:104C4C00002790E720F00700019B3568736040F067
:104C5C00010030833360012785E701290CBF40F048
:104C6C00100340F0200314463383B2E75DB1718B1F
:104C7C00013189B22F463F684B1C884699B2002FF0
:104C8C00F9D1A6F81A80778B40F00201318377B105
:104C9C000846022767E720F00700356880B23083AA
:104CAC0055B140F02000002730833D465BE740F0D3
:104CBC0022003083022756E72F4654E7B1684FF0A5
:104CCC00000900293FF452AF014606E7DD4C000015
:104CDC0010B40C464FF04001EFF3118281F31188B0
:104CEC00BFF36F8F0121446110BCFFF7C9BE00BF39
:104CFC0070B169B10B685BB14B684BB10023C0E973
:104D0C000033C0E90233C0E905330161184670472E
:104D1C006FF01500704700BF002869D0F8B50F463A
:104D2C00002962D00E1D05463046FFF78BFE002889
:104D3C0022D1BB6833F0030357D14FF04003EFF39C
:104D4C00118283F31188BFF36F8F6B8B298B4FF616
:104D5C00FF70834201F0070430D0022C1BD08B076C
:104D6C000CD0062C0AD0052C38D082F31188BFF356
:104D7C006F8F6FF00400F8BDDFDAF8BD00233B60E5
:104D8C006B6813B31F606F6014BB28460221FFF7DA
:104D9C0077FE2046F8BD01336B8382F31188BFF395
:104DAC006F8F00213046FFF75FFE064620B10023CF
:104DBC00394628462246B0472046F8BD82F3118872
:104DCC00BFF36F8F6FF00A00F8BDC5E90077DBE722
:104DDC00204682F31188BFF36F8FF8BD82F31188E0
:104DEC00BFF36F8F6FF02200F8BD6FF01500F8BDA8
:104DFC006FF01500704700BF8C460446114608B58D
:104E0C001A466046A04702F09BFA00F0CDFE00BFA8
:104E1C008368B3F5004F70B500EBC1021AD253880A
:104E2C005B08B3FA83F3C3F11F0300EB830E1FFA85
:104E3C0081FCDEF81040002C4AD000EBC40EBEF80A
:104E4C0004309380DE00D4808319A3F806C0AEF83A
:104E5C0004C070BD53685B08012BFAD0013BB3FA58
:104E6C0083F3C3F11F0300EB830CDCF81040E4B1B7
:104E7C0000EBC40EDEF8083093608568B5F5004F82
:104E8C004FEAC30600EBC3032FD3D4608268B2F59C
:104E9C00004F2DD3D9608368B3F5004F28BFCEF8EF
:104EAC000810D6D21FFA81FCD1E7C4684FF0010E6E
:104EBC000EFA03F31C43C460CCF8101091608368A5
:104ECC00B3F5004F28BFD160C3D21FFA81FC09E0B3
:104EDC00C468012505FA03F31C43C460CEF8101016
:104EEC00A2F804C0A2F806C070BD1FFA81FCAAE7A4
:104EFC001FFA81FCA9E700BFB2F5802F2CBF082355
:104F0C000423D21A2DE9F043CC1D114424F00704DC
:104F1C0021F00701A1EB040C4FEADC060023002270
:104F2C000460B6F5004FC4E900234FF00003C4E958
:104F3C00026346D2B6FA86F0C0F12401890007312B
:104F4C00D0F120004FEAD10146D0002304F10C022D
:104F5C001D460133834242F8045FFADB701AB6F542
:104F6C00004F4FEA41034FEA40084FEAC10904EBF6
:104F7C00C10E04EB0C0704EBC60237D343F001035C
:104F8C006360CEF80480A368B3F5004F33D344F8C4
:104F9C000910A368B3F5004F2FD37D60A368B3F558
:104FAC00004F2CD344F80C00A368B3F5004F27D363
:104FBC00536843F0010320465360BDE8F043FFF70C
:104FCC0027BF731EB3FA83F3C3F12000C3F124038C
:104FDC009B000733D908B8E7701A4B0004EB0C0799
:104FEC0004EBC6024FEA400804EBC10E43F0010388
:104FFC006380AEF80280AEF8001000237B8038800E
:10500C00538843F0010320465380BDE8F043FFF77B
:10501C00FFBE00BF704700BFC368C9B201EB4101BE
:10502C0003EB8101086C00F00700704770B5049E1B
:10503C00C468C9B24FF04005EFF3118E85F31188A7
:10504C00BFF36F8F01EB410C04EB8C0CDCF8404090
:10505C0004F00705012D0CD004F0C004A6428EF319
:10506C001188BFF36F8F0CBF6FF044004FF0FF300F
:10507C0070BDCCF840608EF31188BFF36F8F406821
:10508C00CCF8382050F83120CCF83C309047002038
:10509C0070BD00BF1B4A70B50546AB1A1A489B1071
:1050AC0000FB03F30E46DBB24FF04000EFF311812F
:1050BC0080F31188BFF36F8F03EB430C02EB8C0C66
:1050CC00DCF8402012F080040AD081F31188BFF381
:1050DC006F8F4FF0FF3128463346BDE870401847BC
:1050EC000122CCF8402081F31188BFF36F8F074A5F
:1050FC0002EBC3035B689847214628463346BDE85C
:10510C0070401847B0E40020B76DDBB65C9B000024
:10511C00C368C9B2C1EBC10003EB8000002110478A
:10512C0030B50D4A0D4B821A83B092100C4603FB1E
:10513C0002F1402300930A4A054623460948FFF72B
:10514C0075FF011E01DB03B030BD2846234603B0BA
:10515C00BDE83040184700BFB0E40020B76DDBB6A7
:10516C001D51000038030020094BBFF35B8F53E83F
:10517C00002F22F0020143E800100028F7D1BFF302
:10518C005B8FD30702D4012001F064BB704700BFD2
:10519C0000E50020002001F05DBB00BF104602F0CE
:1051AC00D5B800BF10B586B08024002300940493BA
:1051BC0002AC01230593084A2346CDE90244FFF7CC
:1051CC0035FF002805DB4FF480420023204602F017
:1051DC00E3F806B010BD00BFA951000010B5094C92
:1051EC00237823B1BDE81040002001F0F9BA4FF448
:1051FC00A57002F003F9012323700020BDE81040D4
:10520C0001F0EEBA16E90020002270B50121044627
:10521C00104600F0B7FA002000F096FA0F4801F0A3
:10522C00B9FA0F4B984215D101F0C6FAE5680D4951
:10523C002846FFF75DFD00280BDBE46809490126D1
:10524C002E6404F11C00FFF753FD002801DBE6641B
:10525C00002070BD6FF0040070BD00BF8D530000C6
:10526C000000AD0B6C9B000010B5C268C9B24FF0CA
:10527C004003EFF3118C83F31188BFF36F8F01EBB5
:10528C00410302EB8302136C13F0400406D08CF341
:10529C001188BFF36F8F4FF0FF3010BD01231364E3
:1052AC008CF31188BFF36F8F436803EBC1014B681C
:1052BC009847204610BD00BF114B00EB400203EB9A
:1052CC0082030146002030B4D3E90E5298634FF0AC
:1052DC004004EFF3118084F31188BFF36F8F1C6CC3
:1052EC0004F0C00444F002041C6480F31188BFF382
:1052FC006F8F1DB12B46034830BC184730BC70472C
:10530C00B0E40020380300204FF04003EFF311818C
:10531C0083F31188BFF36F8F174A136843F00200B1
:10532C001060DA0706D481F31188BFF36F8F012068
:10533C0001F056BA4FF08043D3F80C24D3F80C3458
:10534C00D307F0D54FF04003EFF3118083F31188AE
:10535C00BFF36F8F094A136C03F0C00343F00203D1
:10536C00136480F31188BFF36F8F81F31188BFF33F
:10537C006F8F0020FFF7A0BF00E50020B0E40020F5
:10538C0020B1012801D1FFF797BF7047024B1B6C6E
:10539C005B07F8D0704700BFB0E4002038B5C9B245
:1053AC00C4684FF04005EFF3118E85F31188BFF3FD
:1053BC006F8F01EB410C04EB8C0CDCF8404004F0DB
:1053CC000705012D0CD004F0C004802C8EF311883D
:1053DC00BFF36F8F0CBF6FF044004FF0FF3038BD40
:1053EC008024CCF840408EF31188BFF36F8F406857
:1053FC00CCF8382050F83120CCF83C3090470020C5
:10540C0038BD00BF38B5254BBFF35B8F0446012573
:10541C0053E8002F43E800510029F9D1BFF35B8F0B
:10542C0032B3631E012B00D938BD01F0E1FF10B976
:10543C001B4B1B7823BB4FF04003EFF3118083F31E
:10544C001188BFF36F8F01254FF08043D3F81824D8
:10545C00D3F81814C903F9D502F00302022A01D0BB
:10546C00012CF3D19DB180F31188BFF36F8F38BD40
:10547C000C490D484A60CA608D60FFF74DFCD0E7BF
:10548C004FF080430222C3F808230546DCE74FF0B7
:10549C0080430222C3F8042338BD00BF04E500207A
:1054AC0019E90020A0E40020CCE40020704700BFE4
:1054BC00704700BF104A1149D2F80433DB0330B4F3
:1054CC000C6802D5D2F840310BB930BC70470020C3
:1054DC00C2F840014FF48033D2F84051C2F848333F
:1054EC00D2F8403514B90C6030BC70474A6808607B
:1054FC001946234630BC18470010014008E500202F
:10550C002DE9F0474FEA800800F1500708F1804878
:10551C00BF0008F58838BFB207F180474FF48039D7
:10552C00D8F840351B4E09FA00F921F07F4407F5F5
:10553C0088374FF0000A1CE0AA1CA31A23F07F4303
:10554C00B3F5000F88BF1446C7F800A024F07F43C2
:10555C003A68C6F84493C8F84035D6F80415621A70
:10556C00023A8D42234622F07F4211D0B2F5000F51
:10557C000ED9D6F804555B1B23F07F4325F07F42F0
:10558C00012BC8F84025D7D1132001F037FFD3E702
:10559C00BDE8F08700100140044A1368C81A20F0D7
:1055AC007F400344136002F039B900BF14E50020BA
:1055BC0038B50F4C0F4B00254FF480314FF40032AF
:1055CC00C4F808551120C4F80413C3F88021012134
:1055DC002A4600F0D7F8112000F0B6F80123064A4D
:1055EC00A360022023601360FFF70CFF284638BD30
:1055FC000010014000E100E010E50020431C10B455
:10560C0023D0013800281BDC0020114A114B1168F3
:10561C00D3F80435104C114A5B1A13F4000F23F025
:10562C007F4318BF002001330344A34294BFC91821
:10563C00091900200A4B10BC50601360FFF760BFC3
:10564C00054B9842A8BF1846DFE70648DDE700BFC8
:10565C0014E5002000100140FFFF7F0008E500204A
:10566C00A5550000FEFF7F004FF04002EFF31183C1
:10567C0082F31188BFF36F8F0649074AD1F80405EE
:10568C001268801A20F07F4083F31188BFF36F8F6C
:10569C00704700BF0010014014E5002010B40A4A06
:1056AC000A4C936824680A49C3E91E044B6843F00A
:1056BC00805300204B6080F31188BFF36F8F936889
:1056CC0010BCD86F704700BF98E50020049C000008
:1056DC0000ED00E012498A684FF038001044EFF3F7
:1056EC00098C80E8F01F402080F31188BFF36F8F86
:1056FC000C4F4FF000668A6A8A603E60906F002300
:10570C00936780F3118804B5104600F07BFABDE86E
:10571C00044002F1380090E8F01F8CF309887047C0
:10572C0098E5002004ED00E01EF0040F0CBFEFF331
:10573C000880EFF30980816911F8021C0229FFD05F
:10574C0001B500F0B1F801BD43B2002B08DB0549EF
:10575C005B09012200F01F0002FA00F041F823005F
:10576C00704700BF00E100E0054B420900F01F004C
:10577C0053F82220012303FA00F01040704700BFB9
:10578C0000E100E0D3075CBF0231490143B254BFD2
:10579C00C9B20021002B06DB03F1604303F5614322
:1057AC0083F800137047034B00F00F000344197685
:1057BC00704700BFFCEC00E00021012000F072B843
:1057CC0008B572B6054B586A08B962B608BD002216
:1057DC005A6201F01BF962B608BD00BF98E50020C3
:1057EC0010B4019942F81C1C029942F8181C0A4981
:1057FC0042F8203C21F00101039B42F8081C42F8BE
:10580C00143C4FF08074A2F12001002342F8044CA8
:10581C0010BC816583677047054E0000094B9B687F
:10582C0002466BB112F1160F986E05D0A0F1200351
:10583C00934205D8824203D2814228BF0020704790
:10584C000020704798E5002008B504460E46154622
:10585C0000F0CCF9084B20469C6000F0D3F92846A8
:10586C0086F30988002163B681F31188BFF36F8F2B
:10587C0000220023FFF7C0FA98E50020014910220E
:10588C000A60704710ED00E072B6404080F311885A
:10589C00BFF36F8FBFF34F8F30BF62B6BFF36F8F05
:1058AC00704700BF01F096B80146006801F092B84D
:1058BC0008B500F005F8BDE8084000F05BB900BF82
:1058CC0030BFFFF7FDBF00BF0E4A08B50E4B22F0EC
:1058DC007F029A60BFF34F8FBFF36F8FD3F888208E
:1058EC0022F47002C3F88820EFF3148323F004032E
:1058FC0083F3148801F0BCF801F050FE00F048F975
:10590C0001F0DAF80000000000ED00E001B572B61D
:10591C000B4A506A00281EBF0021516201F076F834
:10592C0062B6EFF30580A0F110004FEAC000054904
:10593C00014409C99847BDE80140034908470000E4
:10594C0098E500203C990000815B000000F0F6FA1D
:10595C00402080F3118808484FF40261401880F30E
:10596C000988EFF314800221084380F31488BFF3F5
:10597C006F8FFFF7A9FF0000A0EE0020EFF3088067
:10598C00EFF3098101B5724600F05AF801BD00BF72
:10599C0038B51A4B9C6A9C6A9D6AAD07144603D5B0
:1059AC005D6B9A6A120621D46FF01505134B9A6A37
:1059BC009A6A9A6AD1060BD49B6A9A0708D400207B
:1059CC000E4A936A002143F0FF039362217038BDA5
:1059DC000A4B5B681B05F2D501462846FFF71EFFF4
:1059EC000028ECD080F309880220E9E70029DDD0FB
:1059FC009A6A22F080029A62D8E700BF00ED00E0BC
:105A0C000E4B9A6A9A6A9A6A920508D59A6B9A6AA8
:105A1C00120404D518B19A6A22F400429A62074B18
:105A2C009A6A9A6AD205054A58BF9B6A936A002003
:105A3C0043F47F4393620870704700BF00ED00E0B1
:105A4C0070B5474B5B688AB0C3F308034FF0000C8A
:105A5C008CF31188BFF36F8F02F07F44B4F17F4F4A
:105A6C005ED102F00C04082C5AD0140747BF0C4628
:105A7C006546044601250022033B8DF80720032BC5
:105A8C0010D8DFE803F032254402354B9A6A9A6A43
:105A9C009A6A9A6A9A6A9A6A9A6A6FEA02426FEAF0
:105AAC0012429A6200262022214602A800F09EF99A
:105ABC00099B002D37D0C3F3080240F2FF110AB93D
:105ACC000B43099302A93046FFF7ECFE0AB070BDF8
